:100000000C9434000C9451000C9451000C94510049
:100010000C9451000C9451000C9451000C9451001C
:100020000C9451000C9451000C9451000C9451000C
:100030000C9451000C9451000C9451000C945100FC
:100040000C9451000C9451000C9451000C945100EC
:100050000C9451000C9451000C9451000C945100DC
:100060000C9451000C94510011241FBECFEFD4E02A
:10007000DEBFCDBF11E0A0E0B1E0EEE4F5E102C0EB
:1000800005900D92A43DB107D9F711E0A4EDB1E0C0
:1000900001C01D92AC3DB107E1F70E9473080C94BA
:1000A000A50A0C940000E1ECF0E010828093C500FA
:1000B0006093C40082E08093C00088E1808386E082
:1000C0008093C200089520E030E003C000002F5F5D
:1000D0003F4F82179307D4F7089566BD85BDA89B4F
:1000E000FECFA89A15BC08950F931F93CF93DF936B
:1000F0008C01C0E0D0E005C085E062EB0E946D009D
:100100002196C017D107C4F3DF91CF911F910F91B2
:100110000895EEE6F0E090819160908366BD85BD24
:100120000895EFE6F0E080818160808382E0809333
:100130008100089570938500609384009FEF96BBC3
:1001400080938100B09BFECFB09A109281000895F9
:10015000EFE6F0E09081916090837093850060936A
:1001600084008093810008956093B2008093B10071
:10017000B89BFECFB89A1092B100089584E48093A2
:10018000BC008091BC0087FFFCCF8091BB00109227
:10019000BB0084EC8093BC008091BC0087FFFCCF47
:1001A00086E48093BB0084E88093BC008091BC000F
:1001B00087FFFCCF84E88093BC008091BC00816401
:1001C0008093BC000895982F84E48093BC008091B4
:1001D000BC0087FFFCCF8091BB001092BB0084EC79
:1001E0008093BC008091BC0087FFFCCF9093BB0044
:1001F00084E88093BC008091BC0087FFFCCF80E83E
:100200008093BC000895782F84E48093BC00809193
:10021000BC0087FFFCCF8091BB007093BB0084ECD7
:100220008093BC008091BC0087FFFCCF6093BB0033
:1002300084EC8093BC008091BC0087FFFCCFFA0166
:1002400020E030E0472F50E0BA0161507040A4EC4C
:1002500094E818C080812617370749F48093BB00C3
:100260009093BC008091BC0087FFFCCF08C08093B6
:10027000BB00A093BC008091BC0087FFFCCF2F5F28
:100280003F4F3196241735072CF380E88093BC004C
:100290000895DF93CF930F92CDB7DEB71E9903C0B9
:1002A00081E0898301C0198281E061E5AE014F5F81
:1002B0005F4F0E9403010F90CF91DF910895DF936C
:1002C000CF9300D0CDB7DEB7982F4A83698382E001
:1002D000692FAE014F5F5F4F0E9403010F900F9097
:1002E000CF91DF910895DF93CF9300D0CDB7DEB7E4
:1002F00089836A8382E065E0AE014F5F5F4F0E94B1
:1003000003010F900F90CF91DF910895DF93CF936A
:1003100000D0CDB7DEB7982F698381E0692FAE0199
:100320004F5F5F4F0E9403010F900F90CF91DF91BD
:100330000895982FAB0188E0692F0E94030108956A
:10034000AC0188E067E40E9403010895982FAB0197
:1003500088E0692F0E9403010895AC0188E064E001
:100360000E9403010895DF93CF9300D0CDB7DEB78D
:1003700081E689831A8282E062E0AE014F5F5F4FBF
:100380000E9403010F900F90CF91DF910895DF93AA
:10039000CF9300D0CDB7DEB789836A8382E063E074
:1003A000AE014F5F5F4F0E9403010F900F90CF91FE
:1003B000DF910895DF93CF9300D000D0CDB7DEB7A3
:1003C0004C81FB815A81E98120E030E02130310508
:1003D00081F02230310524F42115310541F00EC0A1
:1003E0002230310541F02330310541F406C0E82FB9
:1003F00005C0592F03C0F62F01C0472F2F5F3F4F75
:100400002430310519F74C83FB835A83E98384E058
:1004100061E0AE014F5F5F4F0E9403010F900F90AC
:100420000F900F90CF91DF9108958093BB0084ECE3
:100430008093BC008091BC0087FFFCCF089580931F
:10044000BB0084E88093BC008091BC0087FFFCCF98
:10045000089584EC8093BC008091BC0087FFFCCFA2
:100460008091BB00089584E88093BC008091BC001B
:1004700087FFFCCF8091BB000895CF93DF93FC01F1
:10048000EB0184E48093BC008091BC0087FFFCCF2B
:100490008091BB0020E030E054EC5093BC00809190
:1004A000BC0087FFFCCF4091BB0037FD20C023304C
:1004B000310524F023303105D1F40DC080819181C4
:1004C000A281B381840F911DA11DB11DBA2FA92F47
:1004D000982F882708C080819181A281B381840FE1
:1004E000911DA11DB11D80839183A283B3832F5FD2
:1004F0003F4F2430310589F684E88093BC00809119
:10050000BC0087FFFCCF8091BB00888380E880938C
:10051000BC00DF91CF910895AF92BF92CF92DF924E
:10052000EF92FF920F931F93CF93DF935A0101969F
:10053000689F7001699FF00C789FF00C112401975F
:10054000689F8001699F100D789F100D112462E053
:1005500070E04CEF5FEF6801C094D09431C02F5F22
:100560003F4FE60FF71FCF01861B970B08171907A0
:10057000B4F7260F371F269FD001279FB00D369F57
:10058000B00D1124EB01CC0FDD1F9D012C0D3D1D85
:10059000220F331F2A0D3B1D05C0F901E40FF51F83
:1005A00011821082A60FB71F2C0F3D1FCD01861B95
:1005B000970BE816F9068CF76F5F7F4F425050405B
:1005C000669FC001679F900D769F900D11248E1538
:1005D0009F0524F4FC0120E030E0C3CFDF91CF91F0
:1005E0001F910F91FF90EF90DF90CF90BF90AF9051
:1005F0000895AF92BF92CF92DF92EF92FF920F9346
:100600001F93CF93DF936A010196689F7001699FE2
:10061000F00C789FF00C11240197689F8001699F6E
:10062000100D789F100D112462E070E0CCEFDFEF29
:100630005801A094B0943CC04F5F5F4FF901260F62
:10064000371FC901861B970B08171907ACF731979D
:10065000E01BF10BEE0FFF1FEC0DFD1D8081918162
:10066000892B19F1460F571F469FD001479FB00DA8
:10067000569FB00D1124AB01440F551F9D012A0D4B
:100680003B1D220F331F2C0D3D1D05C0F901EC0F42
:10069000FD1F11821082A60FB71F240F351FCD0139
:1006A000861B970BE816F9068CF76F5F7F4F229732
:1006B000669FC001679F900D769F900D11248E1547
:1006C0009F0524F49C0140E050E0B8CFDF91CF912A
:1006D0001F910F91FF90EF90DF90CF90BF90AF9060
:1006E00008954F925F926F927F928F929F92AF92F6
:1006F000BF92CF92DF92EF92FF920F931F93DF93FF
:10070000CF93CDB7DEB764970FB6F894DEBF0FBEB8
:10071000CDBF3C01CC24DD24EE24FF244E010894FF
:10072000811C911C45E1442E512C4C0E5D1E540140
:10073000C7010196F401819391930196E415F505A3
:10074000D1F7C6016AE070E0A4010E948C0200E0CB
:1007500010E002C00F5F1F4FF501819191915F0181
:10076000892BC1F3F801EE0FFF1FE80DF91D0EC034
:10077000208131812230310534F0C301B9010E945A
:100780003F0A892B99F00F5F1F4F32960B301105EE
:100790007CF36E147F0444F00894C11CD11C8AE0E1
:1007A00090E0E80EF91EC3CF20E030E0C901649666
:1007B0000FB6F894DEBF0FBECDBFCF91DF911F9172
:1007C0000F91FF90EF90DF90CF90BF90AF909F90F0
:1007D0008F907F906F905F904F9008958091C000B0
:1007E00087FFFCCF08958091C00087FFFCCF8091E8
:1007F000C60008958091C6000895982F20E030E04B
:100800000DC02F5F3F4F8FE1213438071CF091500E
:1008100020E030E0992311F480E008958091C00039
:1008200087FFEFCF81E008958091C00087FFFCCF64
:100830008091C6008D3011F08A3051F481E00E9421
:10084000FD03882311F48DE008958091C6008DE0AA
:10085000089585E00E94FD03813019F48091C6005F
:10086000F8CF0895982F8091C00085FFFCCF90931A
:10087000C6000895AC0120E030E0FA01E20FF31F5A
:10088000E081EE2359F02F5F3F4F8091C00085FF3C
:10089000FCCFE093C600283C310579F7089580E04D
:1008A00091E00E943A0408951F931EE285E00E94A1
:1008B000FD03813049F48091C6008091C00085FF1E
:1008C000FCCF1093C600F2CF0E944F041F910895F1
:1008D0002F923F924F925F926F927F928F929F9250
:1008E000AF92BF92CF92DF92EF92FF920F931F933E
:1008F000CF93DF93EC015A016B01403080E0580741
:1009000080E0680780E8780751F52A3021F020312F
:1009100009F06CC014C028E3288394E3998386E32C
:100920008A8383E38B832C839D8387E38E839F83DA
:1009300081E3888782E389878DE28A870EC080E31E
:10094000888389838A838B838C838D838E8388E3DA
:100950008F838DE2888719861A861B8647C080E0C0
:1009600090E0FE01E80FF91F108201968C3091058E
:10097000C1F786017501D7FE07C0EE24FF24870169
:10098000EA18FB080C091D094E0166247724222E63
:10099000332444245524C801B701A20191010E94C7
:1009A000740AF40160836A3010F4605D02C0695C0F
:1009B000F40160830894611C711CC801B701A20195
:1009C00091010E94740AC901DA017C018D01089429
:1009D000811C911C1E141F0410061106E4F2D7FEA0
:1009E00005C06C0E7D1E8DE2F3018083DF91CF91F7
:1009F0001F910F91FF90EF90DF90CF90BF90AF903D
:100A00009F908F907F906F905F904F903F902F902E
:100A10000895AC0120E030E002C02F5F3F4FFA01A3
:100A2000E20FF31F80818823C1F721503040FA0183
:100A3000E20FF31F2F5F3F4F0AC090818091C000EB
:100A400085FFFCCF9093C60021503040319721158F
:100A5000310599F708950F931F93DF93CF93CDB787
:100A6000DEB72C970FB6F894DEBF0FBECDBF282F90
:100A70008E010F5F1F4FC8010E946804C8010E94C9
:100A800009052C960FB6F894DEBF0FBECDBFCF91EF
:100A9000DF911F910F91089590E080538A3008F400
:100AA00091E0892F0895803328F08A3328F081540B
:100AB000863010F080E0089581E008951F93182F8C
:100AC00087FF10C083E091E00E943A04412F552730
:100AD00047FD5095509541955F4F662757FD6095AE
:100AE000762F0AC087E091E00E943A04412F5527F3
:100AF00047FD5095652F752F8AE00E942B051F91A9
:100B00000895AF92BF92CF92DF92EF92FF920F9330
:100B10001F93CF93DF937A018B0160E070E0FC01BB
:100B2000E60FF71F10826F5F7F4F6C307105B9F7CA
:100B3000EC01A22EBB24CC24DD24C801B701A60100
:100B400095010E94520A68836A3010F4605D01C00A
:100B5000695C6883C801B701A60195010E94520A29
:100B6000C901DA017C018D012196E114F10401052E
:100B7000110519F7DF91CF911F910F91FF90EF9021
:100B8000DF90CF90BF90AF9008950F931F93DF93A6
:100B9000CF93CDB7DEB72C970FB6F894DEBF0FBE5C
:100BA000CDBF282F8E010F5F1F4FC8010E94810506
:100BB000C8010E9409052C960FB6F894DEBF0FBE3F
:100BC000CDBFCF91DF911F910F91089588E40E94CE
:100BD000E30084E48093BC008091BC0087FFFCCFDD
:100BE0008091BB0024EC2093BC008091BC0087FF67
:100BF000FCCF9091BB00992339F08091C00085FF14
:100C0000FCCF9093C600EFCF84E88093BC00809126
:100C1000BC0087FFFCCF8091BB0080E88093BC00C4
:100C20000895DF93CF9300D0CDB7DEB789831A82C2
:100C300081E060E5AE014F5F5F4F0E94030184E4F5
:100C40008093BC008091BC0087FFFCCF8091BB00EB
:100C500084EC8093BC008091BC0087FFFCCF909116
:100C6000BB0084EC8093BC008091BC0087FFFCCF6C
:100C70002091BB0020518AE0989FC0011124280FC9
:100C800040E050E030E0B90161507040F4ECE4E83D
:100C900020C04617570769F4E093BC008091BC0060
:100CA00087FFFCCF9091BB008091C00085FFFCCFF7
:100CB0000CC0F093BC008091BC0087FFFCCF9091EA
:100CC000BB008091C00085FFFCCF9093C6004F5FB2
:100CD0005F4F42175307ECF280E88093BC000F90FF
:100CE0000F90CF91DF910895FF920F931F9388E5A6
:100CF0000E94E30084E48093BC008091BC0087FFE5
:100D0000FCCF8091BB0084EC8093BC008091BC0040
:100D100087FFFCCF1091BB0084EC8093BC008091D6
:100D2000BC0087FFFCCFF090BB0084E88093BC0040
:100D30008091BC0087FFFCCF0091BB0080E88093CE
:100D4000BC008BE091E00E943A0488E191E00E94AF
:100D50003A04412F50E060E070E080E10E942B05F2
:100D60008091C00085FFFCCF89E08093C60088E2B7
:100D700091E00E943A045F2D40E0400F511D66272C
:100D800057FD6095762F8AE00E942B058FE291E057
:100D90000E943A048091C00087FFFCCF8091C6007A
:100DA000893709F04CC087E491E00E943A048AE553
:100DB0000E94E30084E48093BC008091BC0087FF24
:100DC000FCCF8091BB0084EC8093BC008091BC0080
:100DD00087FFFCCF4091BB0084EC8093BC008091E6
:100DE000BC0087FFFCCF0091BB0084E88093BC006F
:100DF0008091BC0087FFFCCF1091BB0080E88093FE
:100E0000BC0050E060E070E080E10E942B05809122
:100E1000C00085FFFCCF89E08093C60088E591E0A3
:100E20000E943A04502F40E0410F511D662757FDA4
:100E30006095762F8AE00E942B050E944F041F9137
:100E40000F91FF90089584E48093BC008091BC00D2
:100E500087FFFCCF8091BB001092BB0084EC809395
:100E6000BC008091BC0087FFFCCF86E58093BB006F
:100E700084E88093BC008091BC0087FFFCCF84E8AD
:100E80008093BC008091BC0081648093BC00089575
:100E900084E48093BC008091BC0087FFFCCF8091EC
:100EA000BB001092BB0084EC8093BC008091BC001E
:100EB00087FFFCCF8FE48093BB0084E88093BC0065
:100EC0008091BC0087FFFCCF80E88093BC00089530
:100ED00084E48093BC008091BC0087FFFCCF8091AC
:100EE000BB001092BB0084EC8093BC008091BC00DE
:100EF00087FFFCCF8DE48093BB0084E88093BC0027
:100F00008091BC0087FFFCCF80E88093BC000895EF
:100F100089E50E94E30008950F931F938C01FC0163
:100F2000808191810E94970AF801808191810196C8
:100F3000918380831F910F9108950E94970A0895CD
:100F40001F93282F162F8EEF91E0622F0E94970A91
:100F50008FEF91E0612F0E94970A8EEF91E00E943F
:100F60008F0A482F50E060E070E080E10E942B057E
:100F70008091C00085FFFCCF80E28093C6008FEF98
:100F800091E00E948F0A482F50E060E070E080E11D
:100F90000E942B051F9108950F931F93CF93DF930A
:100FA0008C01EB018EEF91E00E948F0AF8018083A3
:100FB0008FEF91E00E948F0A8883F801408150E012
:100FC00060E070E080E10E942B058091C00085FF09
:100FD000FCCF80E28093C600488150E060E070E082
:100FE00080E10E942B05DF91CF911F910F91089511
:100FF000CF93DF93EC01CE0121960E948F0A982FA8
:10100000882339F08091C00085FFFCCF9093C60003
:10101000F2CF0E944F04DF91CF910895FC018081AF
:10102000918101969183808301970E948F0A089590
:101030000E948F0A0895EF92FF921F93CF93DF9340
:101040007C01009711F09C010DC08CEF91E00E9493
:101050008F0A182F8BEF91E00E948F0A312F20E02A
:10106000280F311DE901D695C795D695C795C901B9
:10107000E3E096958795EA95E1F7C827D927C22737
:10108000D327C90175E0969587957A95E1F7C8272A
:10109000D927DD27C695D795CC2736952795C22B1E
:1010A000D32BEF2851F48CEF91E06D2F0E94970A1B
:1010B0008BEF91E06C2F0E94970ACE01DF91CF91C8
:1010C0001F91FF90EF90089580E090E00E941B0830
:1010D000BC01660F771F0E94DA0183E062E67EE9B9
:1010E0000E949A00F1CF0F931F93CF93DF9304B622
:1010F00003FE03C081E08093D401A89584B7877F65
:1011000084BF8091600088618093600010926000CD
:1011100082E08093BA0080917C00806480937C00A0
:1011200085B78F7E85BF8AB18B778AB98BB184688A
:101130008BB926982E9A85B78F7E85BF84B18B7721
:1011400084B987B1887F87B98AB187788AB985B130
:10115000846885B988B1876088B98BB188678BB995
:10116000609166008DEF91E00E94970A499BFECF47
:1011700085E06CED0E946D008EEF91E00E948F0A79
:10118000182F803150F0803F40F48FEF91E00E94A3
:101190008F0A181711F4109366001092C100109274
:1011A000C50080E18093C40082E08093C00088E1A4
:1011B0008093C10086E08093C20081E090E00E94AD
:1011C00074008091D401882309F04AC00E9449012B
:1011D0000E94230784E48093BC008091BC0087FFB9
:1011E000FCCF8091BB0084E88093BC008091BC0060
:1011F00087FFFCCF8091BB00813079F580E8809338
:10120000BC0080E691E00E943A048091C00087FF14
:10121000FCCF8091C600823361F0833318F48133B0
:10122000F9F405C0833349F08433D1F413C080E36B
:1012300001C081E30E94110613C00E94E6050E94CE
:101240004F048091C00087FFFCCF8091C600883793
:10125000A1F706C00E94640803C080E88093BC0028
:101260001E99FECF01E010E0C0E0D0E801C0E80127
:1012700081E090E00E9474001E99FECF80E090E033
:101280000E941B0863E070E00E942B0A019620E098
:1012900030E00BC040E80030140719F401E010E022
:1012A00002C0000F111F2F5F3F4F2817390790F31F
:1012B00080E8C030D80719F4C1E0D0E002C0CC0FFC
:1012C000DD1FC801BE010E94DA010C171D0749F499
:1012D00083E290E00E9474001E991AC01E9BFECF0C
:1012E000C7CF88E090E00E947400C2CFC80160E0E0
:1012F00070E00E94DA0180E190E00E94740080E0DA
:1013000090E0B8010E94DA0180E190E00E94740050
:101310001E99ECCFACCF1F938CEF91E00E948F0A07
:10132000182F16951695982F969596959695192798
:101330001827982F92959F701927179511271795A1
:101340008695182B8CEF91E0612F0E94970A812FD0
:101350001F9108954F925F926F927F928F929F920A
:10136000AF92BF92CF92DF92EF92FF920F931F93B3
:10137000DF93CF93CDB7DEB74C017B014DB65EB6A0
:10138000CB01880F991F2DB73EB7281B390B0FB61D
:10139000F8943EBF0FBE2DBF8DB79EB701963C019E
:1013A000AA24BB24CC24DD248301F30120E030E017
:1013B00007C02F5F3F4FC9018C0D9D1D81939193F5
:1013C0002E153F05B4F3C501B701A3010E948C029D
:1013D00020E030E018C0D801ED91FC91E230F10539
:1013E00074F0C401BF010E943F0A892B41F420E040
:1013F00030E0E815F905C1F421E030E015C02F5FB9
:101400003F4F0E5F1F4F2E153F052CF3CE0CDF1CF8
:10141000C6018E199F098816990624F00894A11C0C
:10142000B11CC2CF20E030E0C9010FB6F8945EBE17
:101430000FBE4DBECF91DF911F910F91FF90EF90A6
:10144000DF90CF90BF90AF909F908F907F906F90E4
:101450005F904F900895AA1BBB1B51E107C0AA1FC4
:10146000BB1FA617B70710F0A61BB70B881F991F45
:101470005A95A9F780959095BC01CD01089597FBE9
:10148000092E07260AD077FD04D0E5DF06D000201C
:101490001AF4709561957F4F0895F6F790958195B0
:1014A0009F4F0895A1E21A2EAA1BBB1BFD010DC080
:1014B000AA1FBB1FEE1FFF1FA217B307E407F50704
:1014C00020F0A21BB30BE40BF50B661F771F881FE0
:1014D000991F1A9469F760957095809590959B0176
:1014E000AC01BD01CF01089597FB092E05260ED052
:1014F00057FD04D0D7DF0AD0001C38F45095409532
:10150000309521953F4F4F4F5F4F0895F6F79095D7
:101510008095709561957F4F8F4F9F4F0895F999F2
:10152000FECF92BD81BDF89A992780B50895262FE8
:10153000F999FECF1FBA92BD81BD20BD0FB6F894B8
:0E154000FA9AF99A0FBE01960895F894FFCF1B
:10154E000D0A0020452D0020452B000D0A41544D5B
:10155E0045474120333238002020202043616C2043
:10156E00666163746F7220006572726F7220000D77
:10157E000A517569636B2063616C3F2079206F722D
:10158E0020414F4B0D0A0054656D702063616C2035
:10159E00666163746F7220006572726F7220200034
:1015AE000D0A50726573730D0A3120666F72204FEB
:1015BE00532076657273696F6E0D0A3220666F72F4
:1015CE002073797374656D20646174610D0A332024
:1015DE004D6573736167652066726F6D2074686503
:1015EE00204F5320287820746F20657363617065D7
:1015FE00290D0A342044656661756C742070726F13
:10160E006A6563740D0A3020746F206573636170B0
:04161E00650D0A004C
:00000001FF
