:100000000C948D000C94AA000C94AA000C94AA00E5
:100010000C94AA000C94AA000C94AA000C949617B5
:100020000C94AA000C94A6180C94AA000C94AA0094
:100030000C94AA000C941C170C94AA000C94AA000F
:100040000C945D230C94AA000C94AA000C94AA00B2
:100050000C94AA000C94AA000C94AA000C94AA0078
:100060000C94B9170C94AA00A628C128C1284829C5
:100070005A297B299C29A129A629FE27FE27FE278C
:10008000FE27FE27FE27FE27FE27FE27FE27FE2748
:10009000FE27FE27FE27FE27FE27FE27FE27FE2738
:1000A000FE27FE27FE27FE27FE27FE27FE27FE2728
:1000B000FE27FE27FE27FE27FE27FE27FE27FE2718
:1000C000FE27FE27FE27FE27FE27FE27FE27FE2708
:1000D000FE27FE27FE27FE27FE27FE27FE27FE27F8
:1000E000FE27FE27FE27FE27AB29B029B529BA290E
:1000F000BF29C429D929EB29A128612A822AAE2A3D
:10010000182B1D2B222BB82BCA2BFE27FE27FE27D0
:10011000DF2BE52B0D2C4E2C532C11241FBECFEFC3
:10012000D8E0DEBFCDBF11E0A0E0B1E0EEE1FAE53E
:1001300002C005900D92AA38B107D9F712E0AAE8DB
:10014000B1E001C01D92A937B107E1F70E944E2727
:100150000C940D2D0C94000066BD85BD0895709320
:1001600085006093840080938100089570938500DA
:10017000609384009FEF96BB80938100B09BFECF7D
:10018000B09A10928100089581E48093740285EA08
:100190008093BC0010923D0210923C0210926302C8
:1001A0000895E0913702F0913802E952FE4FE08164
:1001B000E633E9F1E733A0F4E23369F1E33358F4CD
:1001C000E03329F1E133B8F5ED3209F446C0EE32FF
:1001D00009F049C040C0E433B1F1E53320F51FC058
:1001E000E534E9F1E63438F4E83341F1E83310F16D
:1001F000E933C9F527C0E83591F1E93518F4E03560
:1002000091F524C0EF3539F1E53669F528C0299814
:100210008BB183781EC029988BB18B741AC0299832
:100220008BB1837616C029988BB1877212C08BB1BF
:1002300087700FC029988BB1837F0BC029988BB131
:10024000837007C029988BB1837303C029988BB141
:100250008B718BB908955C9808955F9808952998DB
:100260008BB18F708BB908958091370290913802CD
:100270008330910501F1843091054CF48130910572
:10028000B1F082309105ACF4892B69F00EC0853055
:100290009105A9F08530910584F08630910589F0AB
:1002A000079719F410C091E00FC090E00DC092E0E4
:1002B0000BC094E009C098E007C090E105C090E24F
:1002C00003C090E401C090E88091D701892309F030
:1002D00029988091D801892309F05F988091D901EC
:1002E000892309F05C988091DA01892309F05A98F2
:1002F0008091DB01892309F05B988091DC018923DF
:1003000009F05D988091DD01982309F05E980895C9
:100310008091370290913802019690933802809331
:100320003702809137029091380268E070E00E94B5
:10033000932C909338028093370285B18D6385B9F1
:1003400088B1876088B9299A8BB18C6F8BB98091FD
:100350003702909138028330910509F452C08430FD
:1003600091054CF48130910541F182309105BCF545
:10037000892B89F09BC08530910509F465C08530D3
:1003800091050CF450C08630910509F46EC00797B2
:1003900009F08CC07BC08091390280FF0CC0809135
:1003A00055028F5F80935502815062E10E947A2C42
:1003B0009D3008F07BC02C9879C08091390281FF74
:1003C0000CC0809156028F5F80935602815062E18B
:1003D0000E947A2C9D3008F069C02B9867C08091EC
:1003E000390282FF0CC0809157028F5F80935702C1
:1003F000815062E10E947A2C9D3008F057C02A9803
:1004000055C08091390283FF0CC0809158028F5FE4
:1004100080935802815062E10E947A2C9D3008F04E
:1004200045C0289843C08091390284FF0BC0809159
:1004300059028F5F80935902815062E10E947A2CA9
:100440009D30A0F5429832C08091390285FF0BC0E3
:1004500080915A028F5F80935A02815062E10E941C
:100460007A2C9D3018F5419821C08091390286FF81
:100470000BC080915B028F5F80935B02815062E1D1
:100480000E947A2C9D3090F4409810C080913902DF
:1004900087FF0BC080915C028F5F80935C0281506C
:1004A00062E10E947A2C9D3008F42D98809187019A
:1004B0008A3080F4863008F5843030F4823000F5DC
:1004C000813009F00FC11FC08430B9F0853009F0C8
:1004D00009C1BEC08D3458F4893478F4813408F4ED
:1004E00001C1873450F0873409F0FCC009C0803561
:1004F00021F0883509F0F6C006C00E94D1000895A9
:100500000E9434010895809137029091380283301F
:10051000910509F449C0843091054CF4813091056E
:1005200029F1823091058CF5892B89F00895853069
:10053000910509F459C0853091050CF444C086300A
:10054000910509F462C0079709F0CCC06FC0809193
:10055000D70180FD5A988091D70181FD5E988091E6
:10056000D90180FD5B988091D9013BC08091D70172
:1005700082FD5A988091D70183FD5E988091D901C0
:1005800082FD5B988091D9013DC08091D70184FDA7
:100590005A988091D70185FD5E988091D90184FD9C
:1005A0005B988091D9013FC08091D70186FD5A9810
:1005B0008091D70187FD5E988091D90186FD5B9877
:1005C0008091D90141C08091D80180FD5A988091D5
:1005D000D80181FD5E988091DA0180FD5B98809161
:1005E000DA0181FF7FC032C08091D80182FD5A9824
:1005F0008091D80183FD5E988091DA0182FD5B983D
:100600008091DA0183FF6EC021C08091D80184FD02
:100610005A988091D80185FD5E988091DA0184FD19
:100620005B988091DA0185FF5DC010C08091D80190
:1006300086FD5A988091D80187FD5E988091DA01F5
:1006400086FD5B988091DA0187FF4CC05D98089524
:100650000E94D10080913702909138028530910537
:10066000C1F0863091051CF40497E1F506C0863090
:100670009105D9F00797B1F527C08091500280FF0E
:1006800003C08BB1837F8BB98091500281FF2AC058
:1006900017C08091500282FF03C08BB1837F8BB95A
:1006A0008091500283FF1EC00BC08091500284FFD6
:1006B00003C08BB1837F8BB98091500285FF12C03C
:1006C0008BB18F798BB908958091500286FF03C05A
:1006D0008BB1837F8BB98091500287FF03C08BB1B0
:1006E0008F798BB9089580915D02813009F054C0F3
:1006F00080918F01893330F480918F018F5F8093D7
:100700008F014AC090E390938F01809190018533CF
:1007100030F4809190018F5F809390013DC0909361
:10072000900180919201893330F4809192018F5F22
:100730008093920131C0909392018091930185330F
:1007400030F4809193018F5F8093930125C0909343
:100750009301809196018033F8F0823318F0823350
:10076000D9F40CC080919501893360F09093950184
:10077000809196018F5F809396010EC080919501C4
:10078000833330F4809195018F5F8093950104C08D
:10079000909395019093960180915D02823089F546
:1007A00080916C02893330F480916C028F5F80936A
:1007B0006C0227C090E390936C0280916D028533A8
:1007C00030F480916D028F5F80936D021AC0909318
:1007D0006D0280916F02893330F480916F028F5FD8
:1007E00080936F020EC090936F02809170028533E8
:1007F00030F4809170028F5F8093700202C09093FA
:10080000700280915D028330E9F580916B0289333B
:1008100030F480916B028F5F80936B02089590E3B8
:1008200090936B0280916C02853330F480916C025E
:100830008F5F80936C02089590936C0280916E029A
:10084000893330F480916E028F5F80936E02089539
:1008500090936E0280916F02853330F480916F0225
:100860008F5F80936F02089590936F028091700262
:10087000893330F4809170028F5F80937002089505
:1008800090937002089580915D02823041F0833030
:10089000F9F480916902893330F080E307C08091D8
:1008A0006902893330F4809169028F5F8093690215
:1008B000089590E39093690280916A02893330F43D
:1008C00080916A028F5F80936A02089590936A0212
:1008D0000895CF93DF93EC011092D7011092D801C5
:1008E0001092D9011092DA011092DB011092DC0112
:1008F00080E8C030D80799F488E38093D70186E375
:100900008093D80187E38093D90182E38093DA0151
:1009100083E38093DB018DE28093DC0125C09E019F
:10092000D7FF04C0222733272C1B3D0B40E0E42FC8
:10093000F0E0C9016AE070E00E94932C805DE9520A
:10094000FE4F80834F5FC9016AE070E00E94932CE4
:100950009B016115710559F7D7FF06C0E42FF0E040
:10096000E952FE4F8DE28083DF91CF910895482FA9
:100970001092D7011092D8011092D9011092DA0189
:10098000803869F488E38093D70182E38093D801AB
:1009900081E38093D9018DE28093DA010895282FB5
:1009A00027FD219530E0E32FF0E0822F6AE00E94DE
:1009B000862C905DE952FE4F90833F5F822F6AE064
:1009C0000E94862C282F882371F747FF06C0E32F4B
:1009D000F0E0E952FE4F8DE280830895282F1092B7
:1009E000D7011092D8011092D9011092DA0130E0AB
:1009F000E32FF0E0822F6AE00E947A2C905DE952AA
:100A0000FE4F90833F5F822F0E947A2C282F8823ED
:100A100079F708956F927F928F929F92AF92BF92D3
:100A2000CF92DF92EF92FF920F93DF93CF93CDB7E8
:100A3000DEB760970FB6F894DEBF0FBECDBF6B0177
:100A40007C01A42E80E090E0FC01E952FE4F108270
:100A5000019688309105C1F74E010894811C911CC4
:100A6000F401CE010B961192E817F907E1F787E040
:100A70008A150CF4BFC000E03E010894611C711C93
:100A8000F301E00FF11DFE87ED87C701B6012AE0F3
:100A900030E040E050E00E94A62C605DED85FE85D0
:100AA00060830F5FC701B6012AE030E040E050E00C
:100AB0000E94A62CC901DA016C017D01C114D10488
:100AC000E104F104E9F6093078F0E02FF0E038971E
:100AD000E60DF71DD4019E01275F3F4F81918D9355
:100AE000A217B307D9F703C0083009F0A394F401A3
:100AF0009E2F981981918033D9F3A7FE02C0A1944B
:100B0000F1C0AA2009F4EEC0CBC08D91F901E952E1
:100B1000FE4F80832F5F3F4FC901860F971F0897B5
:100B2000A4F31092390260E070E09701241B350BAA
:100B300008C080913902880F8F5F809339026F5F00
:100B40007F4F26173707ACF78091390286959BC0F7
:100B50008D91F901E952FE4F80832F5F3F4F24179B
:100B60003507B4F392C0F901E40FF51F8D9180832E
:100B70004F5F5F4FCA018E0D9F1D0897A4F3872F0B
:100B8000992787FD9095D901A80FB91F20E030E083
:100B9000E62EFF24E7FCF094E81AF90A07C08D91CD
:100BA000F901E952FE4F80832F5F3F4F2E153F051D
:100BB000B4F3B70120E030E04A2D552747FD5095AA
:100BC00080E308C0FB01E952FE4F80832F5F3F4F57
:100BD0006F5F7F4F24173507ACF3FA01EE0DFF1D51
:100BE000DF01A952BE4F8FE58C93E852FE4F80E3A0
:100BF00080834BC0BB244E010894811C911CC4010E
:100C00008B0D911D988B8F87C701B6012AE030E0CC
:100C100040E050E00E94A62C605DEF85F88960837B
:100C2000B394C701B6012AE030E040E050E00E94F2
:100C3000A62CC901DA016C017D01C114D104E104C3
:100C4000F104E9F6DE01199627E030E08C91F90114
:100C5000E952FE4F808311972150304022303105F8
:100C6000A9F788E58093D9018A2D6AE00E94862C35
:100C7000805D8093D8018A2D6AE00E94862C905D69
:100C80009093D70188EF8093390280E090E0FC01D7
:100C9000EB5AFD4F1082019688309105C1F738C09C
:100CA0004A2D552747FD5095892F992787FD909507
:100CB00028E030E07901E81AF90ABE016F5F7F4F42
:100CC000E416F50644F4D901A41BB50BA60FB71F13
:100CD00020E030E03DCFDB01A80FB91F20E030E07D
:100CE000BC011ACF68E0691B6650762F7A0D6A5FE7
:100CF00077FD70E0892F992787FD90959E012F5FE2
:100D00003F4FD901A80FB91F40E050E07C0132CF1E
:100D100060960FB6F894DEBF0FBECDBFCF91DF91C6
:100D20000F91FF90EF90DF90CF90BF90AF909F908A
:100D30008F907F906F9008957F928F929F92AF9245
:100D4000BF92CF92DF92EF92FF920F931F934B01CE
:100D50005C0180E090E0FC01E952FE4F10820196B8
:100D600088309105C1F7D501C40181589946A7463D
:100D7000BF4F8F579747AE48B640B0F57501640135
:100D8000B7FE07C0CC24DD247601C818D908EA08CC
:100D9000FB087724072D10E0C701B6012AE030E0F8
:100DA00040E050E00E94C82C605D09521E4FF801DF
:100DB00060837394C701B6012AE030E040E050E060
:100DC0000E94C82CC901DA016C017D011C141D04AC
:100DD0001E041F04FCF2B7FE12C0E72DF0E0E9523A
:100DE000FE4F8DE280830BC080E090E02FE5FC0198
:100DF000E952FE4F2083019688309105C1F71F917B
:100E00000F91FF90EF90DF90CF90BF90AF909F90A9
:100E10008F907F9008952F923F924F925F926F92A2
:100E20007F928F929F92AF92BF92CF92DF92EF927A
:100E3000FF920F931F93CF93DF93EC015A016B0145
:100E4000403080E0580780E0680780E8780749F57F
:100E50002A3021F0203109F06BC014C028E3288328
:100E600094E3998386E38A8383E38B832C839D8336
:100E700087E38E839F8381E3888782E389878DE27E
:100E80008A870DC080E3888389838A838B838C83E0
:100E90008D838E8388E38F83188619861A861B8636
:100EA00047C080E090E0FE01E80FF91F1082019634
:100EB0008C309105C1F786017501D7FE07C0EE247D
:100EC000FF248701EA18FB080C091D094E0166245E
:100ED0007724222E332444245524C801B701A201CB
:100EE00091010E94C82CF40160836A3010F4605DA7
:100EF00002C0695CF40160830894611C711CC80124
:100F0000B701A20191010E94C82CC901DA017C013C
:100F10008D010894811C911C1E141F0410061106DB
:100F2000E4F2D7FE05C06C0E7D1E8DE2F3018083D6
:100F3000DF91CF911F910F91FF90EF90DF90CF90B5
:100F4000BF90AF909F908F907F906F905F904F90E9
:100F50003F902F900895AC0120E030E002C02F5F59
:100F60003F4FFA01E20FF31F80818823C1F7DF01B1
:100F700027E030E04150504007C08C91F901E95220
:100F8000FE4F8083215030401197A417B507A9F771
:100F900008950F931F93DF93CF93CDB7DEB72C97B0
:100FA0000FB6F894DEBF0FBECDBF282F8E010F5FA6
:100FB0001F4FC8010E940B07C8010E94AB072C9667
:100FC0000FB6F894DEBF0FBECDBFCF91DF911F915A
:100FD0000F9108959F92AF92BF92CF92DF92EF92BE
:100FE000FF920F931F93DF93CF93CDB7DEB72C976C
:100FF0000FB6F894DEBF0FBECDBF982E7A018B01DD
:1010000081E090E0A0E0B0E0CC24DD2448E0A42E14
:10101000B12CA21AB30A0DC0BC01CD012AE030E008
:1010200040E050E00E945B2CDC01CB010894C11C25
:10103000D11CCA14DB0484F320E03AEC4AE95BE3F8
:10104000E20EF31E041F151FAC01BD0122E0440F88
:10105000551F661F771F2A95D1F7480F591F6A1F22
:101060007B1F4E0D5F1D601F711F8E010F5F1F4F95
:10107000C801292D0E940B0780E090E020E205C006
:10108000F801E80FF91F20830196A816B906C4F7E6
:101090008EE28A8748E050E0CA010197FC01E952DC
:1010A000FE4F2081342F652FAC012223A9F7832F17
:1010B000962F9C01A901DE011A9608C041505040AC
:1010C0008C91FA01E952FE4F808311974115510529
:1010D000A9F72C960FB6F894DEBF0FBECDBFCF9107
:1010E000DF911F910F91FF90EF90DF90CF90BF9015
:1010F000AF909F900895CF92DF92EF92FF920F935F
:101100001F93CF93DF937A018B0141E050E060E0C1
:1011100070E0CC24DD24C8E0D0E0C21BD30B0DC0AE
:10112000CB01BA012AE030E040E050E00E945B2CA5
:10113000AB01BC010894C11CD11CCC16DD0684F3A4
:1011400080E09AECAAE9BBE3E80EF91E0A1F1B1F18
:1011500020E0DB01CA01E2E0880F991FAA1FBB1F34
:10116000EA95D1F7840F951FA61FB71F8E0D9F1DFF
:10117000A01FB11F80509449A543B74708F421E050
:10118000822FDF91CF911F910F91FF90EF90DF9011
:10119000CF900895CF93DF93EC0134EA23E094E8F5
:1011A0003093BC008091BC0087FFFCCF2093BB0034
:1011B0009093BC008091BC0087FFFCCF8091B90068
:1011C000803471F784E88093BC008091BC0087FF75
:1011D000FCCF9091BB0084E88093BC00903321F059
:1011E000923309F053C045C0A8E0B0E09D01215002
:1011F0003040F901E952FE4F8081A952BE4F8C93D5
:101200002115310511F0D901F1CF8091980190910C
:10121000990120916502309166028217930779F057
:10122000821B930BC80FD91F219788818093D70108
:101230002F5F3F4F309366022093650227C02091B5
:101240004E0230914F022330310554F481E68093F1
:10125000D7012F5F3F4F30934F0220934E0216C0AD
:1012600010924F0210924E02109266021092650286
:101270000DC01092870110928E011092B200109250
:10128000B100809170008E7F80937000DF91CF91CC
:1012900008950F931F93CF93DF938C01C0E0D0E0AC
:1012A00001C02196F801EC0FFD1F80818823C9F74A
:1012B00034EA22E094E83093BC008091BC0087FFC0
:1012C000FCCF2093BB009093BC008091BC0087FFB3
:1012D000FCCF8091B900883171F7CE016AE070E0EF
:1012E0000E94932C605D6093BB0084E88093BC00F7
:1012F0008091BC0087FFFCCFCE016AE070E00E94C5
:10130000932C805D8093BB0084E88093BC00809127
:10131000BC0087FFFCCF20E030E094E80EC0F8016D
:10132000E20FF31F80818093BB009093BC008091FB
:10133000BC0087FFFCCF2F5F3F4F2C173D077CF38E
:1013400084E98093BC00DF91CF911F910F910895A4
:101350004F925F926F927F928F929F92AF92BF92C5
:10136000CF92DF92EF92FF920F931F93CF93DF9371
:1013700059016A0138014701F80111821082F70111
:1013800011821082CFE0D0E011E0412E512C7B0180
:101390008C01EE0CFF1C001F111FC801B701A60134
:1013A00095010E94A62C211531054105510571F0CA
:1013B00092010C2E02C0220F331F0A94E2F7F401AF
:1013C00080819181822B932B91838083C801B70107
:1013D000A60195010E94A62CAC01CB01DA01BC014B
:1013E000CD012197FFEFCF3FDF0789F6CFE0D0E0B7
:1013F000A1E08A2E912C7B018C01EE0CFF1C001FBA
:10140000111FC801B701A60195010E94A62C211544
:1014100031054105510571F094010C2E02C0220FD7
:10142000331F0A94E2F7F30180819181822B932B81
:10143000918380832197FFEFCF3FDF0761F0C801E1
:10144000B701A60195010E94A62CAC01CB01DA01DF
:10145000BC01CD01D0CFDF91CF911F910F91FF90B3
:10146000EF90DF90CF90BF90AF909F908F907F9044
:101470006F905F904F9008952F923F924F925F929E
:101480006F927F928F929F92AF92BF92CF92DF9294
:10149000EF92FF920F931F93DF93CF93CDB7DEB7F9
:1014A00062970FB6F894DEBF0FBECDBF20E030E0EC
:1014B00040E050E0E0E0F0E08B01007011701D832F
:1014C0000C83DB01A071B070BF83AE838B0104700D
:1014D000107019870887DB01A870B070BB87AA87D6
:1014E00012E0212E312C26223722B1E04B2E512C36
:1014F00046225722A0E46A2E712C6622772200E24F
:10150000802E912C86229722B62FB078BC87A12CF2
:1015100010E1B12EA622B722C12CB4E0DB2EC622E8
:10152000D722E12CA2E0FA2EE622F7228B010070EE
:101530001870DB01A070B074BE87AD87DB01A070AE
:10154000B072BA8BA98B60707078E730F10509F43E
:101550007FC0E830F105D4F4E330F10509F454C05C
:10156000E430F10554F4E130F105D1F1E230F10558
:101570000CF040C0309759F1B8C0E530F10509F4DE
:1015800055C0E630F1050CF05AC047C0EB30F1050C
:1015900009F481C0EC30F1054CF4E930F10509F4AF
:1015A0006AC0EA30F1050CF06EC05CC0ED30F105A8
:1015B00009F483C0ED30F1050CF476C0EE30F1058E
:1015C00009F484C0EF30F10509F08FC087C06115C0
:1015D000710509F48AC020503B494243524E85C0F0
:1015E000AD85BE85AB2B09F480C020583D444941F0
:1015F000514F7BC0A989BA89AB2B09F476C0205C16
:10160000364A4C48584F71C0A114B10409F46DC05A
:101610002056334546445C4F68C00115110509F456
:1016200064C0205B394243425E4F5FC0C114D104A5
:1016300009F45BC0285D344941415F4F56C0E11455
:10164000F10409F452C02C563A4C48485F4F4DC043
:10165000AC81BD81AB2B09F448C026533546444CC0
:101660005F4F43C0BC85BB2309F43FC02B593243B5
:10167000424E5F4F3AC061147104B9F12D543941A3
:10168000414F5F4F32C08114910479F1275A3C4891
:10169000484F5F4F2AC0AE81BF81AB2B31F123553C
:1016A00036444C4F5F4F21C0AA85BB85AB2BE9F078
:1016B0002A5233424E4F5F4F18C0A885B985AB2BD5
:1016C000A1F0255931414F4F5F4F0FC02114310414
:1016D00061F02A5C38484F4F5F4F07C041145104F6
:1016E00021F02556344C4F4F5F4F3196E031F105D4
:1016F00009F02BCF60E070E0FC01E070F270FA833B
:10170000E98300E2202E312C2822392218E0412ED4
:10171000512C48225922B0E16B2E712C682279227B
:10172000A4E08A2E912C88229922F82FF078FB834E
:10173000F0E4AF2EB12CA822B922C12CE1E0DE2EBC
:10174000C822D922E12C00E2F02EE822F9228C01F5
:1017500000701870DC01A070B470BE87AD87DC012A
:10176000A070B071FC01E070F078F88BEF878070AA
:1017700090746630710509F46EC067307105C4F469
:101780006230710509F443C06330710544F461159A
:10179000710559F16130710509F09DC030C06430A8
:1017A000710509F445C0653071050CF04AC038C0B8
:1017B0006A30710509F470C06B3071054CF4683003
:1017C000710509F459C0693071050CF05DC04CC059
:1017D0006C30710509F470C06C3071050CF464C094
:1017E0006D30710509F077C06FC0EF85F889EF2B78
:1017F00009F471C02353324E4F4F5F4F6CC00097B6
:1018000009F469C02951314F4F4F5F4F64C0E11453
:10181000F10409F460C02D58384F4F4F5F4F5BC043
:10182000109709F458C026543C4F4F4F5F4F53C098
:101830000115110509F44FC023523E4F4F4F5F4F22
:101840004AC0ED85FE85EF2B09F445C022513F4F7C
:101850004F4F5F4F40C0E981FA81EF2BE1F12958EA
:101860003F4F4F4F5F4F37C0C114D104A1F1245CEB
:101870003F4F4F4F5F4F2FC0FB81FF2361F1225E2F
:101880003F4F4F4F5F4F27C0A114B10421F1215F9B
:101890003F4F4F4F5F4F1FC021143104E1F0295FCC
:1018A0003F4F4F4F5F4F17C061147104A1F02C5F81
:1018B0003F4F4F4F5F4F0FC04114510461F02E5FF7
:1018C0003F4F4F4F5F4F07C08114910421F02F5FAE
:1018D0003F4F4F4F5F4F6F5F7F4F6031710509F092
:1018E00048CF285F3F4F4F4F5F4F207FB901CA015C
:1018F00062960FB6F894DEBF0FBECDBFCF91DF91D9
:101900001F910F91FF90EF90DF90CF90BF90AF901D
:101910009F908F907F906F905F904F903F902F900F
:101920000895AF92BF92CF92DF92EF92FF920F9302
:101930001F937B018C0197FF02C06095709580E03A
:1019400090E00E943C0A5B016C01A801772757FDDB
:101950007095672F17FF13C04F3F8FEF58078FEF1A
:1019600068078FEF780739F48DE28093DE0180E31A
:101970008093DD0107C04F5F5F4F6F4F7F4F8AE05D
:101980000E94C9078AE0B601A50125E030E00E9467
:10199000EA071F910F91FF90EF90DF90CF90BF90DB
:1019A000AF9008952F923F924F925F926F927F92E5
:1019B0008F929F92AF92BF92CF92DF92EF92FF925F
:1019C0000F931F93DF93CF9300D000D000D0CDB7FB
:1019D000DEB79A8389837C836B835E834D83FA01B0
:1019E00080819181A0E0B0E02C0133242224FB010E
:1019F00080819181A0E0B0E0280E391E4A1E5B1E56
:101A0000FA0122813381C901A0E0B0E04C017724C2
:101A10006624FB0182819381A0E0B0E0680E791E0C
:101A20008A1E9B1E37FF08C056944794379427940C
:101A30009694879477946794C201B101A4019301AD
:101A40000E94A62C59016A0169010B811C810C5F5F
:101A50001F4FED80FE8084E090E0E80EF91EC20189
:101A6000B101A40193010E94A62CA40193010E943C
:101A7000A809ED81FE8164817581EB81FC818481FF
:101A800095810E943C0A9B01AC01AB2809F46CC013
:101A90002AE030E040E050E00E94A62CC901DA01C3
:101AA0009C01AD01F5E0CF16D10409F440C086E0F9
:101AB000C816D104B8F492E0C916D10449F1E3E0A4
:101AC000CE16D10430F4F1E0CF16D10409F047C0AE
:101AD0001AC083E0C816D10401F194E0C916D104FC
:101AE000F1F520C0E7E0CE16D10459F1F7E0CF16AA
:101AF000D10410F188E0C816D10441F199E0C9166B
:101B0000D10469F528C020503F414A405A4F27C0B0
:101B100020503E434441544F22C020503D454E4149
:101B20005E4E1DC020503C474842584E18C02050C1
:101B30003B494243524E13C020503A4B4C435C4DFC
:101B40000EC02050394D4644564D09C02050384FE4
:101B50004045504D04C0205037414B455A4CE98117
:101B6000FA8182818F5F8283B901CA0126960FB6FE
:101B7000F894DEBF0FBECDBFCF91DF911F910F91C3
:101B8000FF90EF90DF90CF90BF90AF909F908F909D
:101B90007F906F905F904F903F902F900895AF92FD
:101BA000BF92CF92DF92EF92FF920F931F93DF933A
:101BB000CF93CDB7DEB72C970FB6F894DEBF0FBE2C
:101BC000CDBF5C016B018C01085F1F4F81E090E08D
:101BD000A0E0B0E0F50180879187A287B38711C0AC
:101BE000CA01B9012AE030E040E050E00E945B2CDD
:101BF000F8016083718382839383F60180818F5F14
:101C00008083F5016081718182819381F801208157
:101C1000318142815381621773078407950700F76A
:101C20008E010F5F1F4FB7E0EB2EF12CEC0EFD1E67
:101C30000E94A809ACE0EA2EF12CEA0CFB1C81E022
:101C400090E0A0E0B0E0F50184879587A687B7878C
:101C500086010F5F1F4F11C0CA01B9012AE030E0B1
:101C600040E050E00E945B2CF70160837183828327
:101C70009383F80180818F5F8083F5016481758192
:101C800086819781F70120813181428153816217DA
:101C900073078407950700F78E010D5F1F4FF9E06A
:101CA000EF2EF12CEC0EFD1E0E94A809F60180819A
:101CB0009181891B8283C601BE016F5F7F4FAE0198
:101CC000495F5F4F0E94D20C2C960FB6F894DEBF8E
:101CD0000FBECDBFCF91DF911F910F91FF90EF907D
:101CE000DF90CF90BF90AF900895AF92BF92CF9208
:101CF000DF92EF92FF920F931F93DF93CF93CDB7B5
:101D0000DEB72C970FB6F894DEBF0FBECDBF6C01C7
:101D10005B01A8E0EA2EF12CE80EF91E81E090E0CC
:101D2000A0E0B0E0F60180879187A287B3878B019E
:101D30000F5F1F4F11C0CA01B9012AE030E040E037
:101D400050E00E945B2CF701608371838283938350
:101D5000F80180818F5F8083F601648175818681BF
:101D60009781F70120813181428153816217730786
:101D70008407950700F78E010F5F1F4FF7E0EF2EE6
:101D8000F12CEC0EFD1E0E94A8098601045F1F4F76
:101D900081E090E0A0E0B0E0F60184879587A68717
:101DA000B78711C0CA01B9012AE030E040E050E035
:101DB0000E945B2CF8016083718382839383F50119
:101DC00080818F5F8083F80120813181428153813E
:101DD000F60180819181A281B38182179307A407C4
:101DE000B50700F7CA01B9012AE030E040E050E051
:101DF0000E94A62CF6012487358746875787F50170
:101E0000808181508083F60120813181428153811C
:101E100084859585A685B785281739074A075B0706
:101E200089F4CA01B9012AE030E040E050E00E94A4
:101E30005B2CF6016083718382839383F50180813B
:101E400081508083F601648575858685978520811C
:101E50003181428153818E010D5F1F4FE9E0EE2EEB
:101E6000F12CEC0EFD1E0E94A809F50181819081E4
:101E7000890F8283C501BE016F5F7F4FAE01495F4D
:101E80005F4F0E94D20C2C960FB6F894DEBF0FBEA7
:101E9000CDBFCF91DF911F910F91FF90EF90DF9019
:101EA000CF90BF90AF9008952F923F924F925F9244
:101EB0006F927F928F929F92AF92BF92CF92DF925A
:101EC000EF92FF920F931F93DF93CF93CDB7DEB7BF
:101ED00067970FB6F894DEBF0FBECDBF6C01798B4C
:101EE000688BA42EA8E0EA2EF12CE80EF91E81E002
:101EF00090E0A0E0B0E0F60180879187A287B387E9
:101F00008B010F5F1F4F12C0CA01B9012AE030E0F8
:101F100040E050E00E945B2CD7016D937D938D9340
:101F20009C931397F80180818F5F8083D60114966C
:101F30006D917D918D919C911797F7012081318151
:101F4000428153816217730784079507E8F68E0173
:101F50000D5F1F4FF9E0EF2EF12CEC0EFD1E0E94DD
:101F6000A809D6016D907D908D909C908601045FAC
:101F70001F4F81E090E0A0E0B0E0F60184879587F4
:101F8000A687B78713C0CA01B9012AE030E040E054
:101F900050E00E945B2CD8016D937D938D939C93B0
:101FA0001397E889F98980818F5F8083D8012D910B
:101FB0003D914D915C91F60180819181A281B38127
:101FC00082179307A407B507F0F6CA01B9012AE002
:101FD00030E040E050E00E94A62CD6011C962D93E4
:101FE0003D934D935C931F97E889F98980818150D7
:101FF00080832D913D914D915C9113971C968D910D
:102000009D910D90BC91A02D281739074A075B07B9
:1020100099F4CA01B9012AE030E040E050E00E94A2
:102020005B2CD6016D937D938D939C931397E889D8
:10203000F989808181508083D6011C966D917D91B4
:102040008D919C911F972D913D914D915C918E01A9
:102050000F5F1F4FE7E0EE2EF12CEC0EFD1E0E94ED
:10206000A809F60160827182828293822F8138856D
:10207000C901A0E0B0E02C013324222489819A8197
:10208000A0E0B0E0280E391E4A1E5B1E37FD02C0DC
:102090001F8606C05694479437942794F1E0FF8733
:1020A0006624772443011E861D862A2D30E02150A8
:1020B00030403B8B2A8B8889998902969D8B8C8B2B
:1020C000A889B9891196BF8BAE8BE2C089859A85A4
:1020D000A0E0B0E08C01FF24EE248B819C81A0E085
:1020E000B0E0E80EF91E0A1F1B1FBF85B13021F4B6
:1020F00016950795F794E794EE89FF898081A88962
:10210000B9899C91890FEC89FD898083C801B70149
:10211000A20191010E94A62C59016A016901C8011E
:10212000B701A20191010E94A62CA20191018E018A
:102130000B5F1F4FEBE0EE2EF12CEC0EFD1E0E940C
:10214000A8096B857C858D819E810E943C0A3B019C
:102150004C01AB2809F471C02AE030E040E050E0C7
:102160000E94A62CC901DA013C014D01F5E0CF1611
:10217000D10409F441C026E0C216D104C0F432E013
:10218000C316D10451F183E0C816D10430F491E0B4
:10219000C916D10409F04CC01BC0A3E0CA16D10473
:1021A00009F1B4E0CB16D10409F042C020C0E7E049
:1021B000CE16D10459F1F7E0CF16D10410F128E082
:1021C000C216D10441F139E0C316D10489F528C003
:1021D00080E091EEA5EFB5E027C080E092ECABEE99
:1021E000BBE022C080E093EAA1EEB1E11DC080E037
:1021F00094E8A7EDB7E118C080E095E6ADECBDE14D
:1022000013C080E096E4A3ECB3E20EC080E097E256
:10221000A9EBB9E209C080E098E0AFEABFE204C0F0
:1022200080E099EEA4EAB5E3680E791E8A1E9B1E33
:10223000AC89BD898C918F5F8C9321E030E040E0C8
:1022400050E00AC0CA01B9012AE030E040E050E0A5
:102250000E945B2C9B01AC016216730684069506F6
:1022600088F7C401B3018E010D5F1F4FB9E0EB2E5B
:10227000F12CEC0EFD1E0E94A809EC89FD898081DD
:10228000AE89BF898C93ED85FE853196FE87ED87FB
:102290002A893B898D859E85821793070CF416CF7A
:1022A000B301C40167960FB6F894DEBF0FBECDBF71
:1022B000CF91DF911F910F91FF90EF90DF90CF9022
:1022C000BF90AF909F908F907F906F905F904F9056
:1022D0003F902F9008952F923F924F925F926F926E
:1022E0007F928F929F92AF92BF92CF92DF92EF92A6
:1022F000FF920F931F93DF93CF93CDB7DEB729974C
:102300000FB6F894DEBF0FBECDBF6C015B01FB01C1
:1023100021912F012D83FB0121808C01045F1F4F30
:1023200081E090E0A0E0B0E0F60184879587A68781
:10233000B787322E0EC0CA01B9012AE030E040E072
:1023400050E00E945B2CF801608371838283938349
:102350003394F6016081718182819381F80120813B
:10236000318142815381621773078407950718F7FB
:102370008E010F5F1F4FA3E0EA2EF12CEC0EFD1E25
:102380000E94A8096B817C8189819A810E943C0A04
:102390006E837F838887998781E090E0A0E0B0E03A
:1023A000F60181939193A193B1938F01F6018483F8
:1023B0009583A683B783F2E06F2E712C6A0C7B1C89
:1023C000F5011282F5011082F2011082C601B501F9
:1023D000422D0E94540F2E813F8148855985261732
:1023E00037074807590720F4F30180818315E9F086
:1023F000F30180813816CCF0F60180819181A281B1
:10240000B3810196A11DB11D80839183A283B38303
:10241000F80180819181A281B3810196A11DB11D36
:1024200080839183A283B383CDCFF6018081918194
:10243000A281B3810197A109B10980839183A2830D
:10244000B38384819581A681B7810197A109B109E0
:1024500084839583A683B783F50110821182C60118
:10246000B501422D0E94540FF50110821182F60130
:10247000408151816281738121E030E088240BC06A
:10248000C901880F991FB3E0220F331FBA95E1F7F6
:10249000280F391F8394C901A0E0B0E048175907FD
:1024A0006A077B0768F799249A94F6016081718125
:1024B000828193812AE030E040E050E00E945B2C72
:1024C000F6016083718382839383F8016081718157
:1024D000828193810E945B2CF801608371838283E7
:1024E0009383EE24FF24F5019082F2019082C601CD
:1024F000B501422D0E94540F2E813F814885598598
:10250000261737074807590720F4F3018081831500
:1025100019F1F30180813816FCF0F6018081918178
:10252000A281B3810196A11DB11D80839183A283F5
:10253000B383F80180819181A281B3810196A11DAD
:10254000B11D80839183A283B3830894E11CF11CA5
:10255000FAE0EF16F10439F6F60180819181A2814B
:10256000B3810197A109B10980839183A283B383C9
:10257000F80180819181A281B3810197A109B109FC
:1025800080839183A283B383F5019082F2019082CC
:102590009A94F9EF9F1609F088CFF50182822D8178
:1025A00020832182F6016081718182819381299645
:1025B0000FB6F894DEBF0FBECDBFCF91DF911F9154
:1025C0000F91FF90EF90DF90CF90BF90AF909F90D2
:1025D0008F907F906F905F904F903F902F900895D5
:1025E0009F92AF92BF92CF92DF92EF92FF920F93A2
:1025F0001F937C018B01FB019180FC01A480B580BD
:10260000C680D78080819181A281B38184839583A4
:10261000A683B783FB0180818183C701492D0E9476
:10262000540FF8019182F701A482B582C682D78245
:102630001F910F91FF90EF90DF90CF90BF90AF90E0
:102640009F9008952F923F924F925F926F927F9248
:102650008F929F92AF92BF92CF92DF92EF92FF92B2
:102660000F931F93DF93CF93CDB7DEB7EB970FB6E2
:10267000F894DEBF0FBECDBF79AF68AFBC0199271C
:1026800077FD9095892F9B01AC012070307829A7A8
:102690003AA74BA75CA79B01AC0120703074407037
:1026A00050702DA33EA34FA358A79B01AC012070EF
:1026B00030724070507029A33AA34BA35CA39B01D6
:1026C000AC0120703071407050702D8F3E8F4F8F55
:1026D00058A39B01AC012070387040705070298F56
:1026E0003A8F4B8F5C8F9B01AC012070347040702F
:1026F00050702D8B3E8B4F8B588F9B01AC012070FF
:10270000327040705070298B3A8B4B8B5C8B9B01E5
:10271000AC0120703170407050702D873E874F871C
:10272000588B9B01AC012078307040705070298725
:102730003A874B875C879B01AC01207430704070F6
:1027400050702D833E834F8358879B01AC012072CC
:1027500030704070507029833A834B835C8350E122
:10276000252E312C412C512C262237224822592249
:1027700048E0642E712C812C912C662277228822CD
:10278000992234E0A32EB12CC12CD12CA622B72241
:10279000C822D92222E0E22EF12C012D112DE622B1
:1027A000F722082319239B01AC012170307040707F
:1027B00050702CAB3DAB4EAB5FAB20E030E040E067
:1027C00050E0E0E0F0E0E730F10509F4A5C0E830C2
:1027D000F105DCF4E330F10509F464C0E430F105FF
:1027E0005CF4E130F10509F440C0E230F1050CF091
:1027F0004AC0309759F1FDC0E530F10509F46FC0CA
:10280000E630F1050CF079C05BC0EB30F10509F45E
:10281000BCC0EC30F1054CF4E930F10509F499C085
:10282000EA30F1050CF0A3C085C0ED30F10509F4E4
:10283000C0C0ED30F1050CF4B2C0EE30F10509F482
:10284000C2C0EF30F10509F0D4C0C7C069A57AA5B0
:102850008BA59CA5611571058105910509F4C9C079
:1028600020503A4C4A495B43C4C08DA19EA1AFA100
:10287000B8A50097A105B10509F4BBC020503B499C
:102880004243524EB6C069A17AA18BA19CA16115A9
:1028900071058105910509F4ACC020583D444941BA
:1028A000514FA7C08D8D9E8DAF8DB8A10097A1050A
:1028B000B10509F49EC0205C364A4C48584F99C077
:1028C000698D7A8D8B8D9C8D6115710581059105C2
:1028D00009F48FC02056334546445C4F8AC08D8929
:1028E0009E89AF89B88D0097A105B10509F481C013
:1028F000205B394243425E4F7CC069897A898B896B
:102900009C89611571058105910509F472C0285DE6
:10291000344941415F4F6DC08D859E85AF85B88933
:102920000097A105B10509F464C02C563A4C4848FB
:102930005F4F5FC069857A858B859C8561157105C0
:102940008105910509F455C026533546444C5F4F27
:1029500050C08D819E81AF81B8850097A105B105DA
:1029600009F447C02B593243424E5F4F42C0698140
:102970007A818B819C816115710581059105C9F171
:102980002D543941414F5F4F34C02114310441046B
:10299000510479F1275A3C48484F5F4F2AC06114CF
:1029A00071048104910429F1235536444C4F5F4F43
:1029B00020C0A114B104C104D104D9F02A52334279
:1029C0004E4F5F4F16C0E114F1040105110589F067
:1029D000255931414F4F5F4F0CC08CA99DA9AEA91D
:1029E000BFA90097A105B10521F02A5C38484F4FD7
:1029F0005F4F3196E031F10509F0E5CEE0E0F0E01F
:102A0000A8ADB9ADA070B170BEA7ADA768AD79ADE6
:102A10006071707078AB6FA788AD99AD847090705D
:102A20009AAB89AB28AC39AC98E02922332448AC66
:102A300059ACA2E04A22552468AC79ACB0E46B22D0
:102A4000772488AC99AC60E28622992478AD7078BE
:102A50007BABA12C00E1B02E88AD99ADA822B922A4
:102A6000C12C14E0D12EC822D922E12CB2E0FB2ED9
:102A7000E822F922807098709BAF8AAF08AD19AD3B
:102A80000070107488AD99AD8070907268AD79ADAA
:102A900060707078E730F10509F478C0E830F1052E
:102AA000CCF4E330F10509F44CC0E430F1054CF40A
:102AB000E130F105A9F1E230F105DCF5309739F1AB
:102AC000A7C0E530F10509F44FC0E630F1050CF080
:102AD00054C040C0EB30F10509F479C0EC30F10589
:102AE0004CF4E930F10509F462C0EA30F1050CF06C
:102AF00066C055C0ED30F10509F47AC0ED30F1053E
:102B00000CF46EC0EE30F10509F082C07AC0611598
:102B1000710509F47DC02556344C4F4F5F4F78C086
:102B20000115110509F474C02353324E4F4F5F4F06
:102B30006FC0009709F46CC02951314F4F4F5F4F60
:102B400067C0A114B10409F463C02D58384F4F4F2A
:102B50005F4F5EC0AAADBBADAB2B09F459C0265484
:102B60003C4F4F4F5F4F54C0C114D10409F450C0C3
:102B700023523E4F4F4F5F4F4BC0E114F10409F415
:102B800047C022513F4F4F4F5F4F42C0ADA5BEA53A
:102B9000AB2BF1F129583F4F4F4F5F4F39C0BBA9C5
:102BA000BB23B1F1245C3F4F4F4F5F4F31C06114E5
:102BB000710471F1225E3F4F4F4F5F4F29C0811466
:102BC000910431F1215F3F4F4F4F5F4F21C0AFA5BF
:102BD000B8A9AB2BE9F0295F3F4F4F4F5F4F18C0AB
:102BE00021143104A9F02C5F3F4F4F4F5F4F10C0AD
:102BF000A9A9BAA9AB2B61F02E5F3F4F4F4F5F4F92
:102C000007C04114510421F02F5F3F4F4F4F5F4FDA
:102C10003196E031F10509F03DCFB901CA01EB96DB
:102C20000FB6F894DEBF0FBECDBFCF91DF911F91DD
:102C30000F91FF90EF90DF90CF90BF90AF909F905B
:102C40008F907F906F905F904F903F902F9008955E
:102C50007F928F929F92AF92BF92CF92DF92EF922C
:102C6000FF920F931F93DF93CF93CDB7DEB72C97CF
:102C70000FB6F894DEBF0FBECDBF4B015C01742EC2
:102C8000690180E090E0F601E80FF91F10820196DB
:102C900080319105C1F7C501B4010E9422137B0167
:102CA0008C01B7FE04C0E094F094009510958AE082
:102CB000B801A70127E030E00E947B088823A1F03B
:102CC00082E39AECAAE9BBE3E80EF91E0A1F1B1F78
:102CD000C601B801A7012AE00E940B07D6011C9289
:102CE00011961C9290E004C080E3F601808791E089
:102CF0008EE2D60119968C93199780E31A968C93DD
:102D00001A97B7FE03C08DE21B968C93913019F48D
:102D100081E3F601828780E090E001C00196F60130
:102D2000E80FF91F20812223C9F32033B9F3DF0113
:102D300020E030E04FE050E0481B590BF601E20F75
:102D4000F31F8D9180832F5F3F4F42175307B4F7D6
:102D5000772009F446C0472D552747FD5095652F2C
:102D6000752F8E010F5F1F4FC8012AE00E940B07CD
:102D700060E070E002C06F5F7F4FF801E60FF71F61
:102D800080818823C1F7F601E61BF70B3D96D6013B
:102D900040E050E02DE030E0261B370B80811F968D
:102DA0008C931F974F5F5F4F31971197241735070B
:102DB000ACF720E030E0AE014F5F5F4F07C0FA0193
:102DC000E20FF31F80818C932F5F3F4FD601A20F3C
:102DD000B31F261737079CF388E58C9380E2119682
:102DE0008C93E6ECF1E020E030E0922F432F8191CC
:102DF0002F5F3F4F8823C9F7909398014093990123
:102E0000109266021092650210924F0210924E02CA
:102E10002C960FB6F894DEBF0FBECDBFCF91DF91D9
:102E20001F910F91FF90EF90DF90CF90BF90AF90E8
:102E30009F908F907F9008951F920F920FB60F92E0
:102E400011242F933F935F936F937F938F939F935F
:102E5000AF93BF93EF93FF9380918701853568F41B
:102E6000823508F048C0893069F0893008F449C0DB
:102E70008D54823008F045C03EC08855833008F03C
:102E800040C039C08091330290913402892B51F4B3
:102E900080E090E0FC01E952FE4F108201968830FC
:102EA0009105C1F78091330290913402EEEDF1E08B
:102EB000E81BF90B8FE580838091330290913402F7
:102EC0000196909334028093330280913302909163
:102ED000340268E070E00E94932C90933402809357
:102EE000330280EF809385008EEB8093840085E031
:102EF000809381000BC080919B018F5F80939B0129
:102F000005C081E080938B0110928100FF91EF91C9
:102F1000BF91AF919F918F917F916F915F913F9101
:102F20002F910F900FBE0F901F9018951F920F9228
:102F30000FB60F9211248F93EF93FF93E3EBF0E022
:102F40008081875D80838081808381E480937402A7
:102F500085EA8093BC0010923D0210923C021092D0
:102F60006302FF91EF918F910F900FBE0F901F9012
:102F700018951F920F920FB60F9211242F933F9323
:102F80004F938F939F93EF93FF9340917402453437
:102F900089F1463440F44234B1F0433411F1413404
:102FA00009F072C008C04734D9F1473458F14834A9
:102FB00009F06AC05DC083E08093BB0085E8809320
:102FC000BC0082E45FC08091B900803429F485E8B8
:102FD0008093BC0083E456C085EA8093BC0081E402
:102FE00051C08091BB00809363028091630288236B
:102FF00069F447C083E08093BB0085E88093BC0000
:1030000086E440C08091B900803429F085EA80933D
:10301000BC0085E437C085EC8093BC0087E432C0F7
:10302000E0913C02F0913D028091BB00E952FE4FDD
:10303000808380913C0290913D02019690933D02E5
:1030400080933C0220913C0230913D0280916302CA
:1030500090E001972817390734F485EC8093BC0081
:103060004093740211C085E88093BC0088E40AC0D4
:10307000E0913C02F0913D028091BB00E952FE4F8D
:1030800080838AE580937402809174028A3521F4EA
:1030900084E98093BC00A895FF91EF919F918F9157
:1030A0004F913F912F910F900FBE0F901F90189549
:1030B0001092850010928400109281001092B1004D
:1030C0008091B60080FDFCCF1092B0008091B600D8
:1030D00081FDFCCF1092B2008091B60084FDFCCF40
:1030E000089581E08093B1008091B60080FDFCCF0F
:1030F00081E0809381000895982F1092B100809113
:10310000B60080FDFCCF1092B0008091B60081FD2A
:10311000FCCF1092B2008091B60084FDFCCF9923C1
:1031200069F08091700081608093700081E08093ED
:10313000B1008091B60080FDFCCF089580917000B1
:103140008E7F809370001092870108951F920F92D6
:103150000FB60F9211242F933F934F935F936F936A
:103160007F938F939F93AF93BF93EF93FF93809140
:103170008701853560F4823518F58B3481F08B3406
:1031800008F4A6C08D54823008F0A2C019C085355D
:1031900009F477C08855833008F09AC011C0809137
:1031A0008E018F5F80938E0180918E01833009F0B4
:1031B000B9C010928E0186EC91E00E94CA08B2C09C
:1031C00010928100409184005091850010928500FA
:1031D0001092840081E0809381002091DF01309182
:1031E000E00180919A0190E028173907F4F19A01E3
:1031F00040E050E080919B01813091F0813018F0E7
:10320000823099F51AC08091750290917602A09152
:103210007702B09178028452944FA040B04019C018
:103220008091750290917602A0917702B091780218
:103230008452944FAF4FBF4F0CC080917502909154
:103240007602A0917702B09178028452944FAE4FEB
:10325000BF4F820F931FA41FB51F809375029093D9
:103260007602A0937702B093780210929B0180912E
:10327000DF019091E00101969093E0018093DF01DE
:1032800051C034EA23E094E83093BC008091BC0044
:1032900087FFFCCF2093BB009093BC008091BC00C3
:1032A00087FFFCCF8091B900803471F784E8809368
:1032B000BC008091BC0087FFFCCF9091BB0084E9EB
:1032C0008093BC00992371F580E00E947C182AC08D
:1032D00080918E018F5F80938E0180918E0180316D
:1032E00009F510928E0180918701863441F00E9489
:1032F000730389E290E09093890180938801809123
:103300008701863479F489E28093B30081E4809365
:10331000740285EA8093BC0010923D0210923C0238
:1033200010926302FF91EF91BF91AF919F918F91A6
:103330007F916F915F914F913F912F910F900FBEB1
:103340000F901F901895BF92CF92DF92EF92FF924D
:103350000F931F93582F623021F486E0B4E0BB2E08
:1033600009C0653021F48FE0AAE0BA2E03C082E0E4
:10337000BB24B3941092E0011092DF011092750209
:10338000109276021092770210927802282F30E085
:103390008091DF019091E00182179307CCF31092A6
:1033A000E0011092DF01C0907502D0907602E090AB
:1033B0007702F0907802442351F4F7FE08C0F094AD
:1033C000E094D094C094C11CD11CE11CF11C552385
:1033D000E1F00091350210913602000F111F0F51DC
:1033E0001E4F2B2D30E040E050E0C701B6010E9497
:1033F000C82CF801318320838091350290913602E8
:10340000019690933602809335022B2D30E040E0F8
:1034100050E0C701B6010E94C82CCA01B9011F9132
:103420000F91FF90EF90DF90CF90BF9008958F9213
:103430009F92AF92BF92CF92DF92EF92FF920F9343
:103440001F93CF93DF937B01EA0149015C01CC24F8
:10345000B7FCC094DC2C1AC0F70180818093660011
:1034600080E062E040E00E94A319F4016083718370
:10347000828393836A157B058C059D0554F0F701C3
:1034800080818150808388818F5F888388818431A7
:1034900018F38881843128F480916600F8018083D4
:1034A00004C0F801808180936600DF91CF911F9165
:1034B0000F91FF90EF90DF90CF90BF90AF909F90D3
:1034C0008F9008958F929F92AF92BF92CF92DF928A
:1034D000EF92FF920F931F9382E080939A0150E145
:1034E000D52EBB24B39442E0842E34EA932E24E8F4
:1034F000C22E94E9A92E80917000816080937000A3
:1035000080916F00816080936F000E945818B09284
:10351000B1008091B60080FDFCCFB0928100D092C6
:10352000660080E062E041E00E94A3197B018C010B
:103530008091D601809366000E9458188091700097
:103540008E7F8093700080916F008E7F80936F00DC
:103550009092BC008091BC0087FFFCCF8092BB00A2
:10356000C092BC008091BC0087FFFCCF8091B90065
:10357000883171F7BB2717FDBA95A12F902F8F2D9A
:103580008093BB00C092BC008091BC0087FFFCCF41
:10359000E092BB00C092BC008091BC0087FFFCCFD2
:1035A000A092BC00D39481EFD81609F0A4CF1F914C
:1035B0000F91FF90EF90DF90CF90BF90AF909F90D2
:1035C0008F900895EF92FF920F931F938091700058
:1035D00081608093700080916F00816080936F00A4
:1035E0000E94581881E08093B1008091B60080FD60
:1035F000FCCF81E08093810085E080939A0180E098
:1036000065E040E00E94A31980E065E040E00E9490
:10361000A31980E065E040E00E94A3197B018C01C2
:103620000E945818809170008E7F80937000809166
:103630006F008E7F80936F0034EA22E094E830932D
:10364000BC008091BC0087FFFCCF2093BB0090930F
:10365000BC008091BC0087FFFCCF8091B90088310D
:1036600071F7809166008093BB0084E88093BC0072
:103670008091BC0087FFFCCFBB2717FDBA95A12F17
:10368000902F8F2D8093BB0084E88093BC008091A5
:10369000BC0087FFFCCFE092BB0084E88093BC00B5
:1036A0008091BC0087FFFCCF84E98093BC001F9110
:1036B0000F91FF90EF900895EF92FF921F93CF9399
:1036C000DF938091A001882379F58091A10188235F
:1036D00059F58091A201882339F58091A3018823AF
:1036E00019F58091A4018823F9F48091A50188231C
:1036F000D9F48091A6018823B9F480919F01813487
:1037000099F4109271021092720210923902109282
:103710003B0210923A021092970110924C021092C2
:103720004D021092AB0115C250E080919F0180358F
:1037300009F451E060913A0270913B02552331F057
:10374000FB01EF58FD4F8081882329F0E6EAF1E084
:1037500020E030E014C08FEF808320E030E0F901FA
:10376000E156FE4F8081F901E952FE4F80832F5FC1
:103770003F4F2830310599F7ECC12F5F3F4F8081D3
:1037800031978823D1F3A8E0A21B80919701A81755
:1037900011F0B1E001C0B52FA093970140E020E007
:1037A00030E0F901E952FE4F9081F901E156FE4FF8
:1037B0008081981709F44F5F2F5F3F4F2830310504
:1037C00081F7483011F020E002C021E025278091E8
:1037D000DE01882349F19091DE018091A6018917CD
:1037E000F1F49091DD018091A5018917C1F49091C8
:1037F000DC018091A401891791F49091DB01809103
:10380000A301891761F49091DA018091A2018917CF
:1038100031F49091D9018091A101891729F080910B
:10382000AB018F5F8093AB019091AB01992309F0BD
:1038300071C0222309F06EC020E030E0F901E156AA
:10384000FE4F8081F901E952FE4F80832F5F3F4F89
:103850002830310599F7BB2309F47BC1672BC9F4E4
:1038600090917102992309F474C180913902880FF3
:103870008F5F8093390291509093710280E090E0C5
:10388000FC01EB5AFD4F1082019688309105C1F77B
:1038900060C190917202992381F480913902880F5E
:1038A0008093390280E090E0FC01EB5AFD4F1082DA
:1038B000019688309105C1F715C09F3F9CF4809117
:1038C0003902880F8F5F8093390291509093720272
:1038D00080E090E0FC01EB5AFD4F108201968830A9
:1038E0009105C1F7809172028F3F09F032C180913A
:1038F00039028F5F8093390280E090E0FC01EB5A3F
:10390000FD4F1082019688309105C1F78EEF8093AC
:1039100072021FC1672B09F4DDC020E030E0F9011D
:10392000E952FE4F8081D901A156BE4F8C9310827F
:103930002F5F3F4F2830310591F780916F008160F4
:1039400080936F0080EF809385008EEB80938400DE
:1039500085E08093810080918B018823E1F31092B0
:103960008B0180916F008E7F80936F0020E030E0AC
:10397000F901E156FE4F8081F901E952FE4F808343
:103980002F5F3F4F2830310599F7923070F48091C6
:103990007102882319F08F5F809371028091720207
:1039A000882319F08F5F80937202C0E0D0E001C0DD
:1039B0002196FE01E952FE4F80818823C9F77E01DE
:1039C00060E070E080E090E013C02197FE01E952D2
:1039D000FE4F10812AE030E040E050E00E945B2C76
:1039E0006053704080409040610F711D811D911D9A
:1039F000209759F76093B2017093B3018093B4019B
:103A00009093B50197012F5F3F4FF901E952FE4FA7
:103A10008081882319F028303105ACF3E90120E0DA
:103A200030E040E050E016C0FE01E952FE4F108148
:103A3000CA01B9012AE030E040E050E00E945B2C6E
:103A40009B01AC012053304040405040210F311DBC
:103A5000411D511D2197CE15DF0531F72093AE0191
:103A60003093AF014093B0015093B10160E070E03A
:103A7000FB01E952FE4F8081FB01E15CFD4F808339
:103A80006F5F7F4F6830710599F78091390280939D
:103A900047028091710280934C0280917202809360
:103AA0004D022093BE013093BF014093C00150935B
:103AB000C1018091B2019091B301A091B401B09184
:103AC000B5018093C2019093C301A093C401B09348
:103AD000C5013FC080913902880F880F8093390259
:103AE00080E090E0FC01EB5AFD4F10820196883097
:103AF0009105C1F726E030E0F901E952FE4F8081DF
:103B0000F901E852FE4F8083215030408FEF2F3F64
:103B1000380791F71092D70126E030E0F901E95219
:103B2000FE4F8081F901E852FE4F808321503040E2
:103B30008FEF2F3F380791F780E38093D7018A2FCB
:103B40008E5F8093970181E090E090933B02809399
:103B50003A02DF91CF911F91FF90EF90089530913D
:103B60009F013093640280914C0280937102809196
:103B70004D02809372028091BE019091BF01A0918D
:103B8000C001B091C1018093AE019093AF01A093A9
:103B9000B001B093B1016091C2018091C3019091D5
:103BA000C4012091C50142EB51E06093B2018093C2
:103BB000B3019093B4012093B5013D3481F03E34BC
:103BC00038F4313409F45EC0343409F078C00EC0E2
:103BD000303509F44EC0323509F071C016C0CA0143
:103BE000049761E772E00E94750E06C0CA0104974F
:103BF00061E772E00E94CF0D60935F0270936002F4
:103C000080936102909362025AC010923402109223
:103C1000330280916F00816080936F0080EF80930A
:103C200085008EEB8093840085E080938100609313
:103C30007202CA01049761E772E00E946B116093FF
:103C40005F027093600280936102909362028091A0
:103C50006F008E7F80936F001092810080E090E073
:103C6000FC01E952FE4F1082019688309105C1F7A0
:103C700026C060937202CA01049761E772E00E9455
:103C8000F012BACF20E030E0F901E15CFD4F808115
:103C9000F901E952FE4F80832F5F3F4F28303105F5
:103CA00099F7809147028093390280E090E0FC010F
:103CB000EB5AFD4F1082019688309105C1F7809133
:103CC0006402813409F465C060915F027091600202
:103CD0008091610290916202409173020E940A05F4
:103CE0006091730260935E0280915F029091600226
:103CF000A0916102B091620280935402292F3A2F61
:103D00004B2F5527209353029D014427552720937D
:103D100052028B2F9927AA27BB278093510210921A
:103D20005F0210926002109261021092620234EA05
:103D300022E094E83093BC008091BC0087FFFCCF68
:103D40002093BB009093BC008091BC0087FFFCCF08
:103D50008091B900883171F7E1E5F2E094E8808163
:103D60008093BB009093BC008091BC0087FFFCCF88
:103D7000319682E0E535F80791F76093BB0084E85F
:103D80008093BC008091BC0087FFFCCF84E98093C6
:103D9000BC0008950F931F93CF93DF938091A601EA
:103DA000882309F057C020E030E0F901E156FE4FCA
:103DB0008081F901E952FE4F80832F5F3F4F283009
:103DC000310599F726E030E0F901E952FE4F808194
:103DD000F901E852FE4F8083215030408FEF2F3F92
:103DE000380791F71092D70126E030E0F901E95247
:103DF000FE4F8081F901E852FE4F80832150304010
:103E00008FEF2F3F380791F790E39093D70181E32D
:103E10008093D7019093D80123E030E0F901E95273
:103E2000FE4F8081D901A552BE4F8C931082215044
:103E300030408FEF2F3F380789F78091DE018823CC
:103E400019F480E38093DE018091DC018823E9F599
:103E500080E31CC0813319F08233B9F51EC0809114
:103E6000DB01893349F48091DC01893329F480E353
:103E70008093DB018093DC018091DB01893349F47D
:103E800080E38093DB018091DC018F5F8093DC0114
:103E90001CC08091DB018F5F16C08091DB018133F4
:103EA00021F48091DC01803381F08091DB0180334B
:103EB00039F48091DC0181508093DC0189E303C0F7
:103EC0008091DB0181508093DB016091DE012091C4
:103ED000DD014091DC018091DB011092D70110924D
:103EE000D8011092D9011092DA0190E080519240ED
:103EF000EAE04E9FA0011124840F951F30E020516D
:103F000032406E9FB0011124260F371F829FE001BF
:103F1000839FD00D929FD00D112400E010E0CE01C0
:103F20006AE070E00E94932C805DF801E952FE4F38
:103F300080830F5F1F4FCE016AE070E00E94932CD8
:103F4000EB01161617065CF380E38093390280E0DC
:103F500090E0FC01EB5AFD4F1082019688309105EC
:103F6000C1F7DF91CF911F910F9108950F931F9388
:103F7000CF93DF939091A7016091640220E030E03D
:103F80002830310511F4692F08C0F901E156FE4FC0
:103F90008081F901E952FE4F80832F5F3F4F293026
:103FA000310571F760936402C0E0D0E001C0219652
:103FB000FE01E952FE4F8081882319F440E050E071
:103FC00017C0C330D10599F7F9CF2197FE01E95207
:103FD000FE4F2081CA01B3E0880F991FBA95E1F71F
:103FE000440F551F480F591F40535040420F511D59
:103FF000209759F7613439F480914A0290914B022D
:10400000840F951F08C0633559F480914A0290913E
:104010004B02841B950B90934B0280934A0206C07F
:10402000633421F410924B0210924A0200914A022A
:1040300010914B02109368020093670217FF08C0AB
:1040400088279927801B910B90934B0280934A02FB
:1040500020914A0230914B02C9016AE070E00E944F
:10406000932C805DFE01E652FE4F80832196C901AC
:104070006AE070E00E94932C9B011616170664F309
:1040800017FF04C0C652DE4F8DE2888387E080931D
:10409000390280E090E0FC01EB5AFD4F108201965E
:1040A00088309105C1F710934B0200934A02DF91CB
:1040B000CF911F910F9108950F931F93CF93DF938B
:1040C00080919F018093D7018091A0018093D801B6
:1040D0008091A1018093D90100914A0210914B0275
:1040E000109368020093670217FF08C0882799277A
:1040F000801B910B90934B0280934A0220914A02BD
:1041000030914B02C0E0D0E0C9016AE070E00E944B
:10411000932C805DFE01E652FE4F80832196C901FB
:104120006AE070E00E94932C9B011616170664F358
:1041300017FF04C0C652DE4F8DE2888387E080936C
:10414000390280E090E0FC01EB5AFD4F10820196AD
:1041500088309105C1F710934B0200934A02DF911A
:10416000CF911F910F91089520E030E047E050E09B
:10417000FA01E21BF30BD901A156BE4F8C91E15716
:10418000FE4F80832F5F3F4F2830310589F720E0B5
:1041900030E0F901E157FE4F8081F901E952FE4F0D
:1041A00080832F5F3F4F2830310599F782E080935D
:1041B000B1008091700081608093700081E08093F5
:1041C0008C0180935D02089580919F018093A901E5
:1041D000853341F1863340F4823379F0833381F0C3
:1041E000813309F0E1C0DDC0873309F46FC0873344
:1041F000D8F1883309F0D8C098C010928C01D4C08F
:1042000010928C0120E030E0F901E157FE4F8081EF
:10421000F901E952FE4F80832F5F3F4F283031056F
:1042200099F7C2C080918F01893320F480918F016A
:104230008F5F53C090E390938F01809190018533FD
:1042400020F4809190018F5F55C0909390018091F0
:104250009201893308F46DC090939201809193018B
:10426000853308F05FC072C080919201813308F0FD
:104270004BC089E38093920180919301813308F0D0
:104280004DC085E38093930180919601803389F03E
:10429000803308F486C0833308F083C08091950191
:1042A000813358F483E38093950180919601815086
:1042B00076C080919501813320F0809195018150E5
:1042C00068C083E38093950182E369C080918F0188
:1042D000813330F080918F01815080938F0161C0D4
:1042E00029E320938F0180919001813330F08091F8
:1042F000900181508093900154C095E39093900178
:1043000080919201813320F080919201815014C0FC
:104310002093920180919301813320F08091930149
:10432000815017C0909393013CC0809192018933D2
:1043300030F4809192018F5F8093920132C090E3BC
:104340009093920180919301853330F48091930191
:104350008F5F8093930125C0909393018091960184
:104360008033F8F0823318F08233D9F40BC0809197
:104370009501893358F080E38093950180919601EF
:104380008F5F0DC080919501833330F4809195014A
:104390008F5F8093950105C080E3809395018093A2
:1043A000960181E080938C0181E080935D02089505
:1043B0003F924F925F926F927F928F929F92AF92B5
:1043C000BF92CF92DF92EF92FF920F931F93DF93F2
:1043D000CF93CDB7DEB7CF55D0400FB6F894DEBF40
:1043E0000FBECDBF20919F0180E090E030E3FC0143
:1043F000E759FD4F3083019688309105C1F722338C
:1044000041F482E080935D0210926B0210926E0282
:1044100007C083E080935D0210926A0210926D02E1
:104420001092B20082E08093B100809170008160B0
:104430008093700011E0CC24DD24EE24FF24AA2414
:10444000BB2444EA442E33E0332E24E8722E04ECDD
:1044500094E9592E4E010894811C911C80E3682E2A
:1044600001C011E04092BC008091BC0087FFFCCFEE
:104470003092BB007092BC008091BC0087FFFCCFE3
:104480008091B9008034E9F18091B20020918801D7
:104490003091890190E08217930721F7809188017C
:1044A00090918901899660E071E00E94932C90932D
:1044B00089018093880180915D02823071F08330A0
:1044C00071F480918D018F5F80938D018A3039F472
:1044D0000E94430410928D0102C00E9443041130D7
:1044E00009F620E030E0F901E759FD4F8081F9013C
:1044F000E952FE4F80832F5F3F4F2830310599F7F7
:10450000B1CF0093BC008091BC0087FFFCCF8091AD
:10451000BB00809363020093BC008091BC0087FFC6
:10452000FCCF8091BB00809387017092BC0080918A
:10453000BC0087FFFCCF9091BB009093A9015092E3
:10454000BC00809187018A3089F41092B10080917B
:1045500070001092700080E090E0FC01E952FE4F84
:104560001082019688309105C1F776C0923361F0D0
:10457000933320F4913309F075CF73CF933369F1FE
:10458000943309F06FCF46C020E030E0F901E759DD
:10459000FD4F8081F901E952FE4F80832F5F3F4F2D
:1045A0002830310599F7D401AC0DBD1D20E030E075
:1045B000F901E952FE4F80818D932F5F3F4F2830E4
:1045C0003105B1F7C601089660E570E00E94932CB2
:1045D0006C010894A11CB11C3DC080E090E0FC017E
:1045E000E759FD4F6082019688309105C1F78091AF
:1045F0005D02823021F410926B0210926E02809163
:104600005D02833021F410926A0210926D021092C2
:10461000B20027CFA114B10409F424CFD401AE0D08
:10462000BF1D20E030E08D91F901E952FE4F8083FB
:104630002F5F3F4F28303105B1F7C70108962AE0B8
:10464000A216B10414F4B60102C060E570E00E9445
:10465000932C7C0110E006CFC15ADF4F0FB6F894BF
:10466000DEBF0FBECDBFCF91DF911F910F91FF90A5
:10467000EF90DF90CF90BF90AF909F908F907F9002
:104680006F905F904F903F9008958093BB0084E8B7
:104690008093BC008091BC0087FFFCCF08958823E5
:1046A00011F484E801C084EC8093BC008091BC00CC
:1046B00087FFFCCF8091BB0008951F920F920FB629
:1046C0000F9211242F933F934F935F936F937F9398
:1046D0008F939F93AF93BF93EF93FF938BEF93E0F1
:1046E0000E94F72C8F3F99F580914802833091F01A
:1046F000843028F4813051F0823050F414C0853079
:1047000069F0853048F0863071F40AC082E809C04B
:1047100086E407C082EC05C082EB03C082EA01C0D8
:1047200084E686BD01C016BC80918701863469F499
:10473000809170001092700078940E94880180919E
:10474000700083608093700002C00E9488018BEF2C
:1047500093E00E94F72C813009F050C0809149020B
:10476000882399F480918701863469F480917000E0
:104770001092700078940E9488018091700083608C
:104780008093700002C00E948801809148028330AB
:1047900091F0843028F4813051F0823050F413C00D
:1047A000853069F0853048F0863069F40AC080E8C9
:1047B0000BC085E409C016BC08C082EB05C082EAC4
:1047C00003C084E601C082EC86BD8091490281303D
:1047D00049F0813028F0823059F0833079F40CC0F0
:1047E00081E007C0299A8BB18C6F8BB982E001C040
:1047F00083E08093490202C010924902FF91EF9139
:10480000BF91AF919F918F917F916F915F914F91E8
:104810003F912F910F900FBE0F901F9018951F93EF
:1048200088EF93E00E94F72C182F16951695982F75
:1048300096959695969519271827982F92959F707B
:1048400019271795112717958695182B88EF93E050
:10485000612F0E94FF2C812F1F910895EF92FF92EC
:104860000F931F93CF93DF9380E090E00E94F72C8B
:10487000182F81E090E00E94F72C312F20E0790181
:10488000E80EF11CC5E0D0E010E007C0CE010E94A8
:10489000F72C882309F41F5F2196EC16FD06B4F768
:1048A0000E940F241150612F0E947A2C092F0F5F54
:1048B00009F401E0C5E0D0E011E0101741F0CE01AD
:1048C0000E94F72C882309F41F5F2196F6CF34EA63
:1048D00022E094E83093BC008091BC0087FFFCCFBD
:1048E0002093BB009093BC008091BC0087FFFCCF5D
:1048F0008091B900883171F714E8CE010E94F72C3D
:104900008093BB001093BC008091BC0087FFFCCF5C
:104910002196CE010E94F72C882379F71092BB00D4
:1049200084E88093BC008091BC0087FFFCCF10928C
:10493000BB0084E88093BC008091BC0087FFFCCF63
:1049400084E98093BC00DF91CF911F910F91FF907C
:10495000EF9008956F927F928F929F92AF92BF9245
:10496000CF92DF92EF92FF920F931F93DF93CF933B
:10497000CDB7DEB727970FB6F894DEBF0FBECDBF19
:104980001B8280916E0010926E0084B78E7F84BF70
:1049900085E06DE771EE0E94B60011E010939A0178
:1049A00084E580938701809170008160809370001E
:1049B00080916F00816080936F000E94581810935F
:1049C000B1008091B60080FDFCCF81E08093810032
:1049D00081EF89838981815089838093660080E09B
:1049E00062E040E00E94A3199B01AC016C837D83CF
:1049F0008E839F838981893E68F7285E33404040DB
:104A0000504044F7809166008B831A8285E0809342
:104A10009A01A8EEEA2EA3E0FA2EF2E06F2E712C96
:104A20006C0E7D1EE4E08E2E912C8C0E9D1E73E08C
:104A3000A72EB12CAC0EBD1E6E010894C11CD11C5A
:104A40008CE99FEFE80EF91EC701B601A30194019E
:104A500085010E94171A94E6E916F10489F780E0AF
:104A600062E040E00E94A3196C837D838E839F8364
:104A7000109166000E945818809170008E7F80937C
:104A8000700080916F008E7F80936F008EEF91E0B9
:104A9000612F0E94FF2C8FEF91E0612F0E94FF2C6D
:104AA00089EF93E00E94F72C813029F489EF93E09D
:104AB0006FEF0E94FF2C34EA22E094E83093BC00B0
:104AC0008091BC0087FFFCCF2093BB009093BC007B
:104AD0008091BC0087FFFCCF8091B900883171F7CD
:104AE000809166008093BB0084E88093BC00809135
:104AF000BC0087FFFCCF2C813D814E815F81BB27AD
:104B000057FDBA95A52F942F832F8093BB0084E87F
:104B10008093BC008091BC0087FFFCCF2093BB003A
:104B200084E88093BC008091BC0087FFFCCF84E9BF
:104B30008093BC0080916E00816080936E00279608
:104B40000FB6F894DEBF0FBECDBFCF91DF911F919E
:104B50000F91FF90EF90DF90CF90BF90AF909F901C
:104B60008F907F906F900895DF92EF92FF920F9356
:104B70001F93CF93DF93109236021092350285E097
:104B800080939A0180917000816080937000809181
:104B90006F00816080936F000E94581881E08093BD
:104BA000B1008091B60080FDFCCF81E08093810050
:104BB00080916600845180936600C0E0D0E081E07F
:104BC00065E041E00E94A319809166008F5F8093A9
:104BD00066002196C932D10591F78091D601809364
:104BE00066000E945818809170008E7F809370003C
:104BF00080916F008E7F80936F0034EA22E094E80A
:104C00003093BC008091BC0087FFFCCF2093BB0099
:104C10009093BC008091BC0087FFFCCF8091B900CD
:104C2000883171F780919D018093BB0084E8809367
:104C3000BC008091BC0087FFFCCF4091D60144515D
:104C40004093BB004C5E84E88093BC008091BC0024
:104C500087FFFCCFE1EEF1E054E820813181832F22
:104C6000992787FD9A958093BB005093BC00809153
:104C7000BC0087FFFCCF2093BB005093BC00809109
:104C8000BC0087FFFCCF329682E0E333F80729F7B8
:104C90004093BB0084E88093BC008091BC0087FFF8
:104CA000FCCF84E98093BC0034EA23E094E830939D
:104CB000BC008091BC0087FFFCCF2093BB00909389
:104CC000BC008091BC0087FFFCCF8091B90080348C
:104CD00071F784E88093BC008091BC0087FFFCCF13
:104CE000D090BB0084E98093BC008091700081600B
:104CF0008093700080916F00816080936F000E94AC
:104D0000581881E08093B1008091B60080FDFCCFFF
:104D100081E0809381008FEFD81629F48091D6012D
:104D20008093660002C0D092660085E080939A016D
:104D300080E065E040E00E94A31980E065E040E08B
:104D40000E94A31980E065E040E00E94A3197B0166
:104D50008C010E945818809170008E7F80937000A3
:104D600080916F008E7F80936F0034EA22E094E898
:104D70003093BC008091BC0087FFFCCF2093BB0028
:104D80009093BC008091BC0087FFFCCF8091B9005C
:104D9000883171F787EDE81686E0F80680E00807AD
:104DA00080E01807A4F188E58093BB0084E8809335
:104DB000BC008091BC0087FFFCCFBB2717FDBA95D4
:104DC000A12F902F8F2D8093BB0084E88093BC008F
:104DD0008091BC0087FFFCCFE092BB0084E8809309
:104DE000BC008091BC0087FFFCCF84E98093BC00AD
:104DF0008EEF93E06FEF0E94FF2C8FEF93E06FEF49
:104E00000E94FF2C8091D601809366003FC089E507
:104E10008093BB0084E88093BC008091BC0087FF36
:104E2000FCCF8EEF93E06D2D0E94FF2C8FEF93E06F
:104E30006D2D0E94FF2C8FEFD81629F48091D6019A
:104E40008093660006C0D0926600809166008093D1
:104E5000D6018EEF93E00E94F72C8093BB0084E88C
:104E60008093BC008091BC0087FFFCCF8FEF93E064
:104E70000E94F72C8093BB0084E88093BC00809153
:104E8000BC0087FFFCCF84E98093BC00DF91CF9109
:104E90001F910F91FF90EF90DF9008956F927F9296
:104EA0008F929F92AF92BF92CF92DF92EF92FF923A
:104EB0000F931F93CF93DF9304B602FE03C084B712
:104EC0008B7F84BF80917C00806480937C00A89558
:104ED00084B7877F84BF8091600088618093600081
:104EE0001092600085B78F7E85BF14B817B81AB8C6
:104EF0008FEF85B988B98BB9439884B18F6384B932
:104F000087B1876087B98AB18C6F8AB985B18D63A3
:104F100085B988B1876088B9299A8BB18C6F8BB9B4
:104F200010924C0210924D021092640210924B02A9
:104F300010924A0210923B0210923A02109297018C
:104F40001092AB0110925F02109260021092610207
:104F50001092620210925E0280E28093B800809309
:104F6000B60010928E01809166008093D6018DEF7D
:104F700093E00E94F72C80939D01789489EF93E051
:104F80000E94F72C813011F40E94AA248BEF93E049
:104F90000E94F72C8F3F39F0813029F08BEF93E09E
:104FA00061E00E94FF2C1092490280916E008160A6
:104FB00080936E00109248028BEF93E00E94F72CD2
:104FC0008F3F11F416BC02C082EC86BD83E085BD24
:104FD00044EA942E33E0E32E24E8F22E94EA692E7C
:104FE00084ECA82E04E9D02E12E0C12EB2EA8B2E5A
:104FF000A4E0BA2EF2EB7F2E40918C0180918701C4
:105000008634E1F3809187018B34C1F3809187016D
:105010008535A1F36092BC008091BC0087FFFCCF76
:10502000E092BB00F092BC008091BC0087FFFCCFF7
:105030008091B900803491F0413061F720E030E098
:10504000F901E157FE4F8081F901E952FE4F80835B
:105050002F5F3F4F2830310599F7DCCFA092BC007D
:105060008091BC0087FFFCCF9091BB00992339F061
:10507000A092BC008091BC0087FFFCCF06C0F092DC
:10508000BC008091BC0087FFFCCF8091BB00809367
:10509000870180918701883011F01092390299239D
:1050A00029F1EFE9F1E020E030E0492F50E0BA01CA
:1050B0006150704016C02617370739F4F092BC00D3
:1050C0008091BC0087FFFCCF06C0A092BC008091FD
:1050D000BC0087FFFCCF8091BB0080832F5F3F4FD8
:1050E0003196241735073CF3D092BC00809187019C
:1050F000893028F4873098F4833039F410C089342B
:1051000071F0813561F0863451F080E090E0FC016F
:10511000E952FE4F1082019688309105C1F78091C7
:10512000870140E090E0FC013197E935F10508F096
:1051300065CFEC5CFF4FEE0FFF1F0590F491E02D63
:10514000099410928C01C7E0D0E04BC110928C0101
:1051500080919F018093D7018091A0018093D80115
:105160008091A1018093D9018091A2018093DA01FD
:105170001092DB011092DC011092DD011092DE0131
:105180003BCF10928C014091A00180919F01873408
:10519000B9F1883478F4833439F1843430F48134CB
:1051A00001F1823409F028CF19C0853419F1863411
:1051B00020F51DC08436D9F0853640F4823671F072
:1051C000833690F4813609F017CF0BC08636A9F0EC
:1051D000863680F0873609F00FCF12C023E030E02A
:1051E00011C020E030E00EC024E030E00BC022E02F
:1051F00030E008C025E030E005C026E030E002C025
:1052000021E030E0483008F0F7CE8091870182300D
:10521000A1F485B18D6385B988B1876088B9299A71
:105220008BB18C6F8BB980E090E0FC01E952FE4FAE
:105230001082019688309105C1F7809187018330F3
:1052400009F0DACEF901E952FE4F8081552747FD7A
:10525000509590E0042E02C0959587950A94E2F748
:1052600080FF0BC0208181E090E002C0880F991F71
:105270004A95E2F78095282309C0208181E090E0DB
:1052800002C0880F991F4A95E2F7282B2083B4CEDD
:1052900010928C0120E030E0F901E156FE4F808150
:1052A000F901E952FE4F80832F5F3F4F28303105CF
:1052B00099F7A2CE10928C0180919F0180935002A9
:1052C0002091A00180E090E0FC01E952FE4F1082A5
:1052D000019688309105C1F7233729F48091500257
:1052E0000E94B70489CE253709F086CE80915002FE
:1052F0000E94EE0481CE10928C0120E030E040E06C
:1053000050E060E070E0FB01E156FE4F8081280F25
:10531000311D411D511D6330710521F0542F432F64
:10532000322F22276F5F7F4F6430710561F7CA010A
:10533000B9010E949C0660CE10928C010E94CA1E88
:105340005BCE10928C010E945C1B56CE10928C0199
:105350000E94AF1D51CE10928C010E94B61F4CCE00
:1053600010928C010E945C2047CE10928C010E940A
:10537000B42042CE10928C010E94E4203DCE1092C7
:105380008C010E94D82138CE10928C01C092B100BD
:10539000809170008360809370002BE088E190E042
:1053A0000FB6F894A895809360000FBE209360001C
:1053B00023CE10928C0120E030E0F901E156FE4F3F
:1053C0008081F901E952FE4F80832F5F3F4F2830E3
:1053D000310599F711CE10928C010E942E240CCE2B
:1053E0002197FE01E952FE4F80818823C9F3808115
:1053F0008D3211F00BE202C021970DE220E030E087
:1054000040E050E017C0FE01E952FE4F1081CA0192
:10541000B9012AE030E040E050E00E945B2C9B01A3
:10542000AC012053304040405040210F311D411D00
:10543000511D2197D7FFE7CF0D3239F45095409594
:10544000309521953F4F4F4F5F4F20935402BB271C
:1054500057FDBA95A52F942F832F80935302CA012D
:10546000BB2797FDB095AB2F80935202852FBB27AA
:1054700087FDB0959B2FAB2F809351029092BC007B
:105480008091BC0087FFFCCFC092BB00F092BC00B3
:105490008091BC0087FFFCCF8091B900883171F703
:1054A000E1E5F2E080818093BB00F092BC00809146
:1054B000BC0087FFFCCF319682E0E535F80791F715
:1054C000EAC110928C0120E030E040E050E060E062
:1054D00070E0FB01E156FE4F8081280F311D411D18
:1054E000511D6330710521F0542F432F322F222795
:1054F0006F5F7F4F6430710561F7CA01B9010E9487
:10550000910C7ACD10928C0120E030E040E050E028
:1055100060E070E0FB01E156FE4F8081280F311DF5
:10552000411D511D6330710521F0542F432F322F3F
:1055300022276F5F7F4F6430710561F7CA01B9019F
:105540004091A30126EC31E00E942816C092B100E0
:10555000809170008160809370004ECD10928C011C
:1055600080919F01809348028BEF93E00E94F72C7B
:105570008F3F19F580914802833009F446C084308A
:1055800028F4813061F0823060F415C0853069F014
:10559000853048F0863059F0873069F40AC082E8D7
:1055A00031C086E42FC076BC32C086BC31C084E6F0
:1055B0002DC016BC2CC016BC18C010924902809198
:1055C00048028330C1F0843028F4813061F08230A9
:1055D00080F420C0853099F0853078F0863089F0ED
:1055E0008730C1F412C080E886BDE5BC20E030E021
:1055F00013C085E4F9CF16BC0BC076BC04C086BCD2
:1056000002C084E686BDB5BCF1CF82EC86BD85E0E4
:1056100085BDECCF82ECE8CF822F805DF901E952A5
:10562000FE4F80832F5F3F4F28303105A9F7E4CC30
:1056300010928C010E94621ADFCC10928C010E94A1
:10564000B425DACC10928C0180916E008E7F80930D
:105650006E0085B18D6385B988B1876088B9299A54
:105660008BB18C6F8BB99092BC008091BC0087FF8E
:10567000FCCFE092BB00F092BC008091BC0087FFA1
:10568000FCCF8091B900803471F7A092BC0080916A
:10569000BC0087FFFCCF8091BB008433C1F1853310
:1056A00060F4813361F1823318F4803399F513C0CB
:1056B0008233A9F0833371F516C08733F9F088334C
:1056C00028F48533A1F0863329F515C08833D1F04D
:1056D000893301F51BC029988BB183781AC02998AA
:1056E0008BB18B7416C029988BB1837612C0299820
:1056F0008BB187720EC08BB187700BC029988BB1AC
:10570000837F07C029988BB1837003C029988BB120
:1057100083738BB9F092BC008091BC0087FFFCCFF3
:105720008091BB008333D1F0843340F4813391F016
:10573000823390F4803309F0AEC00AC0853391F013
:10574000853370F0863381F0873309F0A4C00EC032
:105750002C98A1C02B989FC02A989DC028989BC0C8
:10576000429899C0419897C0409895C02D9893C091
:1057700010928C0180919F01803321F0813309F0D8
:105780003BCC03C080E091E002C083E191E00E9445
:10579000490932CC10928C0180919F01813009F02F
:1057A0002BCC8BEF93E00E94F72C813021F08BEF14
:1057B00093E061E02FC08BEF93E06FEF2BC010926E
:1057C0008C0181E00E947C1817CC10928C01909281
:1057D000BC008091BC0087FFFCCFC092BB00F09260
:1057E000BC008091BC0087FFFCCF8091B90088315C
:1057F00071F78CEF93E00E94F72C8093BB00F0923E
:10580000BC008091BC0087FFFCCFD092BC008CEF25
:1058100093E060E00E94FF2CEFCB10928C019092FD
:10582000BC008091BC0087FFFCCFC092BB00F0920F
:10583000BC008091BC0087FFFCCF8091B90088310B
:1058400071F7C0E0D2E0CE010E94F72C8093BB003C
:10585000F092BC008091BC0087FFFCCF219683E0D2
:10586000C73FD80781F78EEF93E00E94F72C809313
:10587000BB00F092BC008091BC0087FFFCCF8FEF93
:1058800093E00E94F72C8093BB00F092BC008091C3
:10589000BC0087FFFCCFD092BC00AECB10928C0135
:1058A0000E94E21AA9CB10928C0104B600FEA4CB90
:1058B0000E94AA24A1CB629FD001739FF001829F16
:1058C000E00DF11D649FE00DF11D929FF00D839F8F
:1058D000F00D749FF00D659FF00D9927729FB00D2C
:1058E000E11DF91F639FB00DE11DF91FBD01CF013F
:1058F00011240895991B79E004C0991F961708F0A8
:10590000961B881F7A95C9F78095089587FB082E06
:10591000062687FD819567FD6195ECDF0EF4919574
:1059200007FC8195089597FB092E07260AD077FD7D
:1059300004D049D006D000201AF4709561957F4FAD
:105940000895F6F7909581959F4F0895A1E21A2E3C
:10595000AA1BBB1BFD010DC0AA1FBB1FEE1FFF1F13
:10596000A217B307E407F50720F0A21BB30BE40B63
:10597000F50B661F771F881F991F1A9469F76095AA
:105980007095809590959B01AC01BD01CF01089564
:1059900097FB092E05260ED057FD04D0D7DF0AD07D
:1059A000001C38F450954095309521953F4F4F4F4E
:1059B0005F4F0895F6F790958095709561957F4FAC
:1059C0008F4F9F4F0895AA1BBB1B51E107C0AA1F11
:1059D000BB1FA617B70710F0A61BB70B881F991F90
:1059E0005A95A9F780959095BC01CD010895F99934
:1059F000FECF92BD81BDF89A992780B50895262FD4
:105A0000F999FECF1FBA92BD81BD20BD0FB6F894A3
:0E5A1000FA9AF99A0FBE01960895F894FFCF06
:105A1E004F533A204932435F5632305F305F434135
:105A2E000D0A00535720696E666F726D6174696F4F
:105A3E006E3A204F7065726174696E672073797368
:105A4E0074656D204932435F5632305F305F43419B
:105A5E00202050726F6A656374732056315F39204F
:105A6E00616E6420426F6F746C6F61646572205654
:105A7E00345F32315F43412E202045787465726E5B
:105A8E00616C2070726F6772616D6D657220563237
:0A5A9E005F3330420D0A00012900B9
:00000001FF
