:100000000C9434000C9451000C9451000C9467092A
:100010000C9451000C9441090C9451000C94510023
:100020000C9451000C9451000C9451000C9451000C
:100030000C9451000C9451000C9451000C945100FC
:100040000C9451000C9451000C9451000C945100EC
:100050000C9451000C9451000C9451000C945100DC
:100060000C9451000C94510011241FBECFEFD4E02A
:10007000DEBFCDBF12E0A0E0B1E0E8E6FAE102C0E9
:1000800005900D92AC34B107D9F713E0ACE4B2E0BF
:1000900001C01D92AF3EB107E1F70E94BD0A0C946A
:1000A000320D0C940000E1ECF0E010828093C5006A
:1000B0006093C40082E08093C00088E1808386E082
:1000C0008093C200089520E030E003C000002F5F5D
:1000D0003F4F82179307D4F7089566BD85BDA89B4F
:1000E000FECFA89A15BC08950F931F93CF93DF936B
:1000F0008C01C0E0D0E005C085E062EB0E946D009D
:100100002196C017D107C4F3DF91CF911F910F91B2
:100110000895EEE6F0E090819160908366BD85BD24
:100120000895EFE6F0E080818160808382E0809333
:100130008100089570938500609384009FEF96BBC3
:1001400080938100B09BFECFB09A109281000895F9
:10015000EFE6F0E09081916090837093850060936A
:1001600084008093810008956093B2008093B10071
:10017000B89BFECFB89A1092B100089584E48093A2
:10018000BC008091BC0087FFFCCF8091BB00109227
:10019000BB0084EC8093BC008091BC0087FFFCCF47
:1001A00086E48093BB0084E88093BC008091BC000F
:1001B00087FFFCCF84E88093BC008091BC00816401
:1001C0008093BC0008958091C00087FFFCCF089504
:1001D0008091C00087FFFCCF8091C6000895809178
:1001E000C6000895982F20E030E00DC02F5F3F4FEC
:1001F0008FE1213438071CF0915020E030E0992342
:1002000011F480E008958091C00087FFEFCF81E076
:1002100008958091C00087FFFCCF8091C6008D308B
:1002200011F08A3051F481E00E94F200882311F429
:100230008DE008958091C6008DE0089585E00E94CC
:10024000F200813019F48091C600F8CF0895982FFC
:100250008091C00085FFFCCF9093C6000895AC014B
:1002600020E030E0FA01E20FF31FE081EE2359F0C5
:100270002F5F3F4F8091C00085FFFCCFE093C60009
:10028000283C310579F7089580E091E00E942F0124
:1002900008951F931EE285E00E94F200813049F428
:1002A0008091C6008091C00085FFFCCF1093C600EE
:1002B000F2CF0E9444011F9108952F923F924F92D6
:1002C0005F926F927F928F929F92AF92BF92CF92E6
:1002D000DF92EF92FF920F931F93CF93DF93EC0186
:1002E0005A016B01403080E0580780E0680780E8E1
:1002F000780751F52A3021F0203109F06CC014C084
:1003000028E3288394E3998386E38A8383E38B83BA
:100310002C839D8387E38E839F8381E3888782E399
:1003200089878DE28A870EC080E3888389838A83E8
:100330008B838C838D838E8388E38F838DE2888784
:1003400019861A861B8647C080E090E0FE01E80F00
:10035000F91F108201968C309105C1F78601750155
:10036000D7FE07C0EE24FF248701EA18FB080C091A
:100370001D094E0166247724222E3324442455245B
:10038000C801B701A20191010E94ED0CF401608344
:100390006A3010F4605D02C0695CF4016083089407
:1003A000611C711CC801B701A20191010E94ED0CF2
:1003B000C901DA017C018D010894811C911C1E1475
:1003C0001F0410061106E4F2D7FE05C06C0E7D1E58
:1003D0008DE2F3018083DF91CF911F910F91FF9008
:1003E000EF90DF90CF90BF90AF909F908F907F90D5
:1003F0006F905F904F903F902F900895AC0120E058
:1004000030E002C02F5F3F4FFA01E20FF31F8081FF
:100410008823C1F721503040FA01E20FF31F2F5F0C
:100420003F4F0AC090818091C00085FFFCCF909320
:10043000C6002150304031972115310599F70895B4
:100440000F931F93DF93CF93CDB7DEB72C970FB6E3
:10045000F894DEBF0FBECDBF282F8E010F5F1F4F58
:10046000C8010E945D01C8010E94FE012C960FB6D2
:10047000F894DEBF0FBECDBFCF91DF911F910F91DA
:10048000089590E080538A3008F491E0892F089510
:10049000803328F08A3328F08154863010F080E0D1
:1004A000089581E008951F93182F87FF10C083E0FF
:1004B00091E00E942F01412F552747FD50955095FF
:1004C00041955F4F662757FD6095762F0AC087E0FC
:1004D00091E00E942F01412F552747FD5095652F30
:1004E000752F8AE00E9420021F910895AF92BF925B
:1004F000CF92DF92EF92FF920F931F93CF93DF93F0
:100500007A018B0160E070E0FC01E60FF71F1082BA
:100510006F5F7F4F6C307105B9F7EC01A22EBB24E1
:10052000CC24DD24C801B701A60195010E94CB0CA3
:1005300068836A3010F4605D01C0695C6883C8013B
:10054000B701A60195010E94CB0CC901DA017C011B
:100550008D012196E114F1040105110519F7DF91D0
:10056000CF911F910F91FF90EF90DF90CF90BF90B0
:10057000AF9008950F931F93DF93CF93CDB7DEB75E
:100580002C970FB6F894DEBF0FBECDBF282F8E017B
:100590000F5F1F4FC8010E947602C8010E94FE0132
:1005A0002C960FB6F894DEBF0FBECDBFCF91DF9172
:1005B0001F910F910895AF92BF92CF92DF92EF9269
:1005C000FF920F931F93CF93DF935A010196689F79
:1005D0007001699FF00C789FF00C11240197689FBF
:1005E0008001699F100D789F100D112462E070E06A
:1005F0004CEF5FEF6801C094D09431C02F5F3F4F44
:10060000E60FF71FCF01861B970B08171907B4F7E2
:10061000260F371F269FD001279FB00D369FB00DA4
:100620001124EB01CC0FDD1F9D012C0D3D1D220F70
:10063000331F2A0D3B1D05C0F901E40FF51F118280
:100640001082A60FB71F2C0F3D1FCD01861B970BE5
:10065000E816F9068CF76F5F7F4F42505040669F57
:10066000C001679F900D769F900D11248E159F05F8
:1006700024F4FC0120E030E0C3CFDF91CF911F9143
:100680000F91FF90EF90DF90CF90BF90AF900895C3
:10069000AF92BF92CF92DF92EF92FF920F931F9390
:1006A000CF93DF936A010196689F7001699FF00CF8
:1006B000789FF00C11240197689F8001699F100DAD
:1006C000789F100D112462E070E0CCEFDFEF58014D
:1006D000A094B0943CC04F5F5F4FF901260F371FC5
:1006E000C901861B970B08171907ACF73197E01B58
:1006F000F10BEE0FFF1FEC0DFD1D80819181892B09
:1007000019F1460F571F469FD001479FB00D569FC6
:10071000B00D1124AB01440F551F9D012A0D3B1D47
:10072000220F331F2C0D3D1D05C0F901EC0FFD1FDD
:1007300011821082A60FB71F240F351FCD01861B13
:10074000970BE816F9068CF76F5F7F4F2297669F2D
:10075000C001679F900D769F900D11248E159F0507
:1007600024F49C0140E050E0B8CFDF91CF911F917D
:100770000F91FF90EF90DF90CF90BF90AF900895D2
:100780004F925F926F927F928F929F92AF92BF92A1
:10079000CF92DF92EF92FF920F931F93DF93CF934D
:1007A000CDB7DEB764970FB6F894DEBF0FBECDBFEE
:1007B0003C01CC24DD24EE24FF244E010894811C4E
:1007C000911C15E1412E512C4C0E5D1E5401C701A8
:1007D0000196F401819391930196E415F505D1F703
:1007E000C6016AE070E0A4010E94DB0200E010E0B4
:1007F00002C00F5F1F4FF501819191915F01892B1D
:10080000C1F3F801EE0FFF1FE80DF91D0EC02081A6
:1008100031812230310534F0C301B9010E94B80C96
:10082000892B99F00F5F1F4F32960B3011057CF327
:100830006E147F0444F00894C11CD11C8AE090E03F
:10084000E80EF91EC3CF20E030E0C90164960FB670
:10085000F894DEBF0FBECDBFCF91DF911F910F91F6
:10086000FF90EF90DF90CF90BF90AF909F908F90D0
:100870007F906F905F904F90089530916B00209122
:100880006D0080916D008478843821F080916B0038
:1008900086FF0AC080916B008F7B80936B008091F4
:1008A0006D008B7780936D0064E454E840E81E9BF4
:1008B00002C090E301C091E34A9B01C04F9B92E3C9
:1008C0006093BC008091BC0087FFFCCF8091BB008F
:1008D0009093BB005093BC008091BC0087FFFCCF7D
:1008E0004093BC00923319F730936B0020936D0056
:1008F00008951F9384E48093BC008091BC0087FF1F
:10090000FCCF8091BB001092BB0084EC8093BC00B4
:100910008091BC0087FFFCCF89E48093BB0084E812
:100920008093BC008091BC0087FFFCCF84E880935B
:10093000BC0084E48093BC008091BC0087FFFCCFA6
:100940008091BB00E0E0F0E020E030E040E050E0EB
:1009500014EC74E8E330F10549F47093BC00809125
:10096000BC0087FFFCCF6091BB001CC01093BC0093
:100970008091BC0087FFFCCF6091BB00F7FD16C0E3
:10098000E330F10524F0E330F10581F40BC0DA0126
:10099000C901860F911DA11DB11D2227382F492F96
:1009A0005A2F04C0260F311D411D511D3196E430D0
:1009B000F10581F680E88093BC00B901CA011F915E
:1009C0000895982F84E48093BC008091BC0087FF39
:1009D000FCCF8091BB001092BB0084EC8093BC00E4
:1009E0008091BC0087FFFCCF9093BB0084E880938C
:1009F000BC008091BC0087FFFCCF80E88093BC00E6
:100A00000895782F84E48093BC008091BC0087FF18
:100A1000FCCF8091BB007093BB0084EC8093BC0042
:100A20008091BC0087FFFCCF6093BB0084EC809377
:100A3000BC008091BC0087FFFCCFFA0120E030E0D1
:100A4000472F50E0BA0161507040A4EC94E818C000
:100A500080812617370749F48093BB009093BC0030
:100A60008091BC0087FFFCCF08C08093BB00A0939F
:100A7000BC008091BC0087FFFCCF2F5F3F4F3196B9
:100A8000241735072CF380E88093BC000895DC011F
:100A9000693429F06E3491F06434F9F41BC080E0BD
:100AA00090E0FD01E80FF91F108201968830910552
:100AB000C1F780E38C9388E064E014C080E090E0AC
:100AC000FD01E80FF91F1082019688309105C1F7EA
:100AD00080E38C9388E062E405C018966C931897C5
:100AE00089E061E4AD010E9401050895AC0188E050
:100AF00068E00E9401050895FC0182E3878388E095
:100B000067E0AF010E9401050895FC0181E387833E
:100B100088E067E0AF010E9401050895AC0188E01C
:100B200067E00E9401050895EF92FF920F931F93D3
:100B3000DF93CF9300D000D00F92CDB7DEB77B010B
:100B40008C01FE01319628E130E0D801C701022E68
:100B500004C0B595A795979587950A94D2F7819388
:100B6000285030408FEF283F380779F74D8385E0D4
:100B70006BE4AE014F5F5F4F0E9401050F900F9035
:100B80000F900F900F90CF91DF911F910F91FF90D9
:100B9000EF900895DF93CF9300D000D0CDB7DEB7AC
:100BA000AB01BC01FE01319628E130E0DB01CA0156
:100BB000022E04C0B595A795979587950A94D2F70C
:100BC0008193285030408FEF283F380779F784E031
:100BD0006AE4AE014F5F5F4F0E9401050F900F90D6
:100BE0000F900F90CF91DF910895DF93CF9300D0B6
:100BF00000D0CDB7DEB7AB01BC01FE01319628E1D4
:100C000030E0DB01CA01022E04C0B595A795979587
:100C100087950A94D2F78193285030408FEF283F70
:100C2000380779F784E066E0AE014F5F5F4F0E94BE
:100C300001050F900F900F900F90CF91DF910895C5
:100C4000DF93CF930F92CDB7DEB71E9903C081E03B
:100C5000898301C0198281E061E5AE014F5F5F4F7A
:100C60000E9401050F90CF91DF910895DF93CF93FC
:100C700000D0CDB7DEB7982F4A83698382E0692F11
:100C8000AE014F5F5F4F0E9401050F900F90CF9113
:100C9000DF910895DF93CF9300D0CDB7DEB789837E
:100CA0006A8382E065E0AE014F5F5F4F0E940105FD
:100CB0000F900F90CF91DF910895DF93CF9300D0E5
:100CC000CDB7DEB7982F698381E0692FAE014F5F02
:100CD0005F4F0E9401050F900F90CF91DF91089513
:100CE000982FAB0188E0692F0E9401050895AC019F
:100CF00088E067E40E9401050895982FAB0188E021
:100D0000692F0E9401050895AC0188E064E00E940B
:100D100001050895DF93CF9300D0CDB7DEB781E60C
:100D200089831A8282E062E0AE014F5F5F4F0E94CA
:100D300001050F900F90CF91DF910895DF93CF932E
:100D400000D0CDB7DEB789836A8382E063E0AE016D
:100D50004F5F5F4F0E9401050F900F90CF91DF9181
:100D60000895DF93CF9300D000D0CDB7DEB74C818C
:100D7000FB815A81E98120E030E02130310581F0AA
:100D80002230310524F42115310541F00EC0223006
:100D9000310541F02330310541F406C0E82F05C08C
:100DA000592F03C0F62F01C0472F2F5F3F4F24302C
:100DB000310519F74C83FB835A83E98384E061E0B2
:100DC000AE014F5F5F4F0E9401050F900F900F9093
:100DD0000F90CF91DF9108958093BB0084EC8093B6
:100DE000BC008091BC0087FFFCCF08958093BB00BE
:100DF00084E88093BC008091BC0087FFFCCF0895FD
:100E000084EC8093BC008091BC0087FFFCCF809174
:100E1000BB00089584E88093BC008091BC0087FFEC
:100E2000FCCF8091BB000895CF93DF93FC01EB01D1
:100E300084E48093BC008091BC0087FFFCCF80914C
:100E4000BB0020E030E054EC5093BC008091BC002B
:100E500087FFFCCF4091BB0037FD20C02330310518
:100E600024F023303105D1F40DC080819181A2811D
:100E7000B381840F911DA11DB11DBA2FA92F982FE9
:100E8000882708C080819181A281B381840F911D40
:100E9000A11DB11D80839183A283B3832F5F3F4F38
:100EA0002430310589F684E88093BC008091BC0031
:100EB00087FFFCCF8091BB00888380E88093BC00D3
:100EC000DF91CF910895DF93CF93CDB7DEB727970A
:100ED0000FB6F894DEBF0FBECDBF1C821D821E82EE
:100EE0001F8219828A8381E069E0AE014E5F5F4F05
:100EF0000E9401058A818134A9F0CE010496BE01C9
:100F00006F5F7F4F0E9414078BE091E00E942F01DA
:100F10004C815D816E817F818AE00E9420028981FF
:100F20000E94530227960FB6F894DEBF0FBECDBFC6
:100F3000CF91DF91089588E40E94E10484E48093D6
:100F4000BC008091BC0087FFFCCF8091BB0024ECEB
:100F50002093BC008091BC0087FFFCCF9091BB0028
:100F6000992339F08091C00085FFFCCF9093C60093
:100F7000EFCF84E88093BC008091BC0087FFFCCF5A
:100F80008091BB0080E88093BC000895DF93CF93ED
:100F900000D0CDB7DEB789831A8281E060E5AE016B
:100FA0004F5F5F4F0E94010584E48093BC008091F5
:100FB000BC0087FFFCCF8091BB0084EC8093BC0019
:100FC0008091BC0087FFFCCF9091BB0084EC8093A4
:100FD000BC008091BC0087FFFCCF2091BB0020515A
:100FE0008AE0989FC0011124280F40E050E030E0D3
:100FF000B90161507040F4ECE4E820C0461757078F
:1010000069F4E093BC008091BC0087FFFCCF909115
:10101000BB008091C00085FFFCCF0CC0F093BC00EA
:101020008091BC0087FFFCCF9091BB008091C000F5
:1010300085FFFCCF9093C6004F5F5F4F4217530769
:10104000ECF280E88093BC000F900F90CF91DF917D
:101050000895FF920F931F9388E50E94E10484E4B2
:101060008093BC008091BC0087FFFCCF8091BB00C7
:1010700084EC8093BC008091BC0087FFFCCF109172
:10108000BB0084EC8093BC008091BC0087FFFCCF48
:10109000F090BB0084E88093BC008091BC0087FF87
:1010A000FCCF0091BB0080E88093BC0080E191E020
:1010B0000E942F018DE191E00E942F01412F50E00D
:1010C00060E070E080E10E9420028091C00085FF16
:1010D000FCCF89E08093C6008DE291E00E942F0151
:1010E0005F2D40E0400F511D662757FD6095762F1C
:1010F0008AE00E94200284E391E00E942F01809107
:10110000C00087FFFCCF8091C600893709F04CC032
:101110008CE491E00E942F018AE50E94E10484E4BE
:101120008093BC008091BC0087FFFCCF8091BB0006
:1011300084EC8093BC008091BC0087FFFCCF409181
:10114000BB0084EC8093BC008091BC0087FFFCCF87
:101150000091BB0084E88093BC008091BC0087FFB5
:10116000FCCF1091BB0080E88093BC0050E060E0B1
:1011700070E080E10E9420028091C00085FFFCCFDA
:1011800089E08093C6008DE591E00E942F01502FE9
:1011900040E0410F511D662757FD6095762F8AE08C
:1011A0000E9420020E9444011F910F91FF90089518
:1011B00084E48093BC008091BC0087FFFCCF8091C9
:1011C000BB001092BB0084EC8093BC008091BC00FB
:1011D00087FFFCCF86E58093BB0084E88093BC004A
:1011E0008091BC0087FFFCCF84E88093BC00809195
:1011F000BC0081648093BC00089584E48093BC00AB
:101200008091BC0087FFFCCF8091BB001092BB0097
:1012100084EC8093BC008091BC0087FFFCCF8FE4FE
:101220008093BB0084E88093BC008091BC0087FF62
:10123000FCCF80E88093BC00089584E48093BC00D8
:101240008091BC0087FFFCCF8091BB001092BB0057
:1012500084EC8093BC008091BC0087FFFCCF8DE4C0
:101260008093BB0084E88093BC008091BC0087FF22
:10127000FCCF80E88093BC00089589E50E94E104DA
:1012800008951F920F920FB60F9211248F934A9BCD
:1012900018C080915702882311F44F9912C0809191
:1012A0005702882331F44F9904C082E0809357029B
:1012B00008C080915702823021F44F9B02C01092E7
:1012C00057028F910F900FBE0F901F9018951F928D
:1012D0000F920FB60F9211242F933F934F935F936A
:1012E0006F937F938F939F93AF93BF93CF93DF932E
:1012F000EF93FF931E9947C080915502909156023B
:1013000001969093560280935502CCE5D2E0FE01FF
:1013100040E050E016C04F5F5F4F2091490230918E
:101320004A028091550290915602BC01629FC00111
:10133000639F900D729F900D1124840F951F8193D0
:1013400091938091490290914A02481759071CF3E2
:1013500080915502909156026091490270914A0223
:101360004CE552E00E94DB022991399121153105AB
:10137000D9F3B901882777FD8095982F0E94F5054C
:1013800081E080935702FF91EF91DF91CF91BF9160
:10139000AF919F918F917F916F915F914F913F910D
:1013A0002F910F900FBE0F901F9018950F931F93C2
:1013B0008C01FC01808191810E94240DF8018081C3
:1013C00091810196918380831F910F9108950E94CE
:1013D000240D08951F93282F162F8EEF91E0622F72
:1013E0000E94240D8FEF91E0612F0E94240D8EEF5B
:1013F00091E00E941C0D482F50E060E070E080E119
:101400000E9420028091C00085FFFCCF80E2809383
:10141000C6008FEF91E00E941C0D482F50E060E065
:1014200070E080E10E9420021F9108950F931F93A6
:10143000CF93DF938C01EB018EEF91E00E941C0DA6
:10144000F80180838FEF91E00E941C0D8883F801E2
:10145000408150E060E070E080E10E9420028091D5
:10146000C00085FFFCCF80E28093C600488150E039
:1014700060E070E080E10E942002DF91CF911F9137
:101480000F910895CF93DF93EC01CE0121960E9436
:101490001C0D982F882339F08091C00085FFFCCF68
:1014A0009093C600F2CF0E944401DF91CF9108953E
:1014B000FC018081918101969183808301970E9434
:1014C0001C0D08950E941C0D0895EF92FF921F932A
:1014D000CF93DF937C01009711F09C010DC08BEF3F
:1014E00091E00E941C0D182F8AEF91E00E941C0DC4
:1014F000312F20E0280F311DE901D695C795D695EB
:10150000C795C901E3E096958795EA95E1F7C82765
:10151000D927C227D327C90175E0969587957A9573
:10152000E1F7C827D927DD27C695D795CC2736956B
:101530002795C22BD32BEF2851F48BEF91E06D2F21
:101540000E94240D8AEF91E06C2F0E94240DCE01A1
:10155000DF91CF911F91FF90EF90089580E090E090
:101560000E94650ABC01660F771F0E94B10683E0E6
:1015700062E67EE90E949A00F1CFFF920F931F93DB
:10158000CF93DF9304B603FE03C081E080934C0247
:10159000A89584B7877F84BF80916000886180931D
:1015A00060001092600082E08093BA0080917C001D
:1015B000806480937C0085B78F7E85BF8AB18B77EE
:1015C0008AB98BB184688BB926982E9A85B78F7E9D
:1015D00085BF84B18B7784B987B1887F87B98AB199
:1015E00087788AB985B1846885B988B1876088B9F8
:1015F0008BB188678BB9609166008DEF91E00E9496
:10160000240D499BFECF85E06CED0E946D008EEFAE
:1016100091E00E941C0D182F803150F0803F40F463
:101620008FEF91E00E941C0D181711F410936600C3
:101630001092C1001092C50080E18093C40082E046
:101640008093C00088E18093C10086E08093C2004F
:1016500081E090E00E94740080914C02882309F0A0
:101660004AC00E9420060E94D80884E48093BC00EF
:101670008091BC0087FFFCCF8091BB0084E8809301
:10168000BC008091BC0087FFFCCF8091BB00813003
:1016900079F580E88093BC0085E691E00E942F01F7
:1016A0008091C00087FFFCCF8091C600823361F03B
:1016B000833318F48133F9F405C0833349F084335C
:1016C000D1F413C080E301C081E30E94C60713C0B8
:1016D0000E949B070E9444018091C00087FFFCCFBD
:1016E0008091C6008837A1F706C00E94AE0A03C0E9
:1016F00080E88093BC0089ED91E00E942F018091E9
:10170000680081608093680080916B0080648093A2
:101710006B008091680084608093680080916D0008
:10172000846880936D00109256021092550281E0F9
:1017300080935702789400E010E080E2F82E8091C8
:101740005702813019F08230D1F743C0CCE5D2E0A6
:10175000FE0140E050E016C04F5F5F4F209149020C
:1017600030914A028091550290915602BC01629FCD
:10177000C001639F900D729F900D1124840F951FDF
:10178000819391938091490290914A024817590799
:101790001CF380915502909156026091490270911C
:1017A0004A024CE552E00E94DB0200E010E002C079
:1017B0000F5F1F4F2991399121153105C9F3B901E7
:1017C000882777FD8095982F0E94F5051092570283
:1017D000B6CF8091490290914A02081719070CF080
:1017E000AECFE801CC0FDD1FC45ADD4F288139810F
:1017F00021153105D1F0B901882777FD8095982F03
:101800000E94F50548815981662757FD6095762F1E
:101810008AE00E9420028091C00085FFFCCFF092F8
:10182000C60080E190E00E9474000F5F1F4F87CFD9
:101830001F938BEF91E00E941C0D182F16951695A3
:10184000982F96959695969519271827982F9295E3
:101850009F7019271795112717958695182B8CEFD0
:1018600091E0612F0E94240D812F1F9108954F92C6
:101870005F926F927F928F929F92AF92BF92CF9220
:10188000DF92EF92FF920F931F93DF93CF93CDB729
:10189000DEB74C017B014DB65EB6CB01880F991FB8
:1018A0002DB73EB7281B390B0FB6F8943EBF0FBEBD
:1018B0002DBF8DB79EB701963C01AA24BB24CC2432
:1018C000DD248301F30120E030E007C02F5F3F4FAC
:1018D000C9018C0D9D1D819391932E153F05B4F385
:1018E000C501B701A3010E94DB0220E030E018C06F
:1018F000D801ED91FC91E230F10574F0C401BF0113
:101900000E94B80C892B41F420E030E0E815F9057D
:10191000C1F421E030E015C02F5F3F4F0E5F1F4F35
:101920002E153F052CF3CE0CDF1CC6018E199F0926
:101930008816990624F00894A11CB11CC2CF20E09F
:1019400030E0C9010FB6F8945EBE0FBE4DBECF9118
:10195000DF911F910F91FF90EF90DF90CF90BF909C
:10196000AF909F908F907F906F905F904F90089571
:1019700097FB092E07260AD077FD04D049D006D060
:1019800000201AF4709561957F4F0895F6F79095B1
:1019900081959F4F0895A1E21A2EAA1BBB1BFD0142
:1019A0000DC0AA1FBB1FEE1FFF1FA217B307E4073E
:1019B000F50720F0A21BB30BE40BF50B661F771F96
:1019C000881F991F1A9469F7609570958095909576
:1019D0009B01AC01BD01CF01089597FB092E05269F
:1019E0000ED057FD04D0D7DF0AD0001C38F4509534
:1019F0004095309521953F4F4F4F5F4F0895F6F733
:101A000090958095709561957F4F8F4F9F4F08956A
:101A1000AA1BBB1B51E107C0AA1FBB1FA617B70714
:101A200010F0A61BB70B881F991F5A95A9F7809530
:101A30009095BC01CD010895F999FECF92BD81BD6D
:101A4000F89A992780B50895262FF999FECF1FBAE5
:101A500092BD81BD20BD0FB6F894FA9AF99A0FBED7
:081A600001960895F894FFCFF0
:101A68000D0A0020452D0020452B000D0A302E00C0
:101A78000D0A41544D45474120333238002020207B
:101A88002043616C20666163746F72200065727216
:101A98006F7220000D0A517569636B2063616C3F9A
:101AA8002079206F7220414F4B0D0A0054656D70EC
:101AB8002063616C20666163746F722000657272C6
:101AC8006F722020000D0A50726573730D0A312061
:101AD800666F72204F532076657273696F6E0D0AB8
:101AE8003220666F722073797374656D2064617437
:101AF800610D0A33204D6573736167652066726FE7
:101B08006D20746865204F5320287820746F2065F5
:101B18007363617065290D0A342044656661756CCC
:101B2800742070726F6A6563740D0A3020746F20B8
:101B38006573636170650D0A000D0A5072657373F1
:101B480020616E6420686F6C642073773320746F33
:101B5800207363726F6C6C207468726F756768208D
:101B68007072696D65206E756D626572732066723C
:101B78006F6D203020746F203230302E0D0A707552
:101B88006C73652073773220746F20696E63726599
:101B980061736520737461727420706F696E74204C
:0C1BA8006279203230300D0A00C80000C5
:00000001FF
