:100000000C9435000C945D000C945D000C945D0024
:100010000C945D000C945D000C945D000C945D00EC
:100020000C945D000C945D000C945D000C945D00DC
:100030000C945D000C945D000C945D000C945D00CC
:100040000C94E6010C945D000C9456020C94300262
:100050000C945D000C945D000C945D000C945D00AC
:100060000C945D000C945D000B0311241FBECFEFB8
:10007000D4E0DEBFCDBF22E0ACEDB1E001C01D9207
:10008000A538B207E1F711E0A0E0B1E0E4E7FDE058
:1000900002C005900D92AC3DB107D9F710E0C5E361
:1000A000D0E004C02197FE010E94B206C433D107FC
:1000B000C9F70E9438030C94B8060C940000AF9264
:1000C000BF92CF92DF92EF92FF920F931F93CF9345
:1000D000DF936C017B018B01040F151FEB015E01A7
:1000E000AE18BF08C017D10759F06991D601ED913C
:1000F000FC910190F081E02DC6010995892B79F7DB
:10010000C501DF91CF911F910F91FF90EF90DF908C
:10011000CF90BF90AF900895FC01538D448D252F53
:1001200030E0842F90E0821B930B541710F0CF9691
:10013000089501970895FC01918D828D981761F0C3
:10014000A28DAE0FBF2FB11D5D968C91928D9F5FDA
:100150009F73928F90E008958FEF9FEF0895FC01B9
:10016000918D828D981731F0828DE80FF11D858D6C
:1001700090E008958FEF9FEF0895FC01918D228DFF
:10018000892F90E0805C9F4F821B91098F73992784
:100190000895FC01A48DA80FB92FB11DA35ABF4F1C
:1001A0002C91848D90E001968F739927848FA68976
:1001B000B7892C93A089B1898C91837080648C93CA
:1001C000938D848D981306C00288F389E02D808179
:1001D0008F7D80830895EF92FF920F931F93CF93AB
:1001E000DF93EC0181E0888F9B8D8C8D98131AC072
:1001F000E889F989808185FF15C09FB7F894EE8959
:10020000FF896083E889F9898081837080648083B5
:100210009FBF81E090E0DF91CF911F910F91FF9000
:10022000EF900895F62E0B8D10E00F5F1F4F0F73A8
:100230001127E02E8C8D8E110CC00FB607FCFACF63
:10024000E889F989808185FFF5CFCE010E94C90038
:10025000F1CFEB8DEC0FFD2FF11DE35AFF4FF08234
:100260009FB7F8940B8FEA89FB8980818062CFCF9A
:10027000CF93DF93EC01888D8823B9F0AA89BB89DD
:10028000E889F9898C9185FD03C0808186FD0DC0C8
:100290000FB607FCF7CF8C9185FFF2CF808185FFE9
:1002A000EDCFCE010E94C900E9CFDF91CF91089533
:1002B00084E88093BC008091BC0087FFFCCF8091D4
:1002C000BB0008958093BB0084E88093BC008091BC
:1002D000BC0087FFFCCF08958093BB0084EC809323
:1002E000BC008091BC0087FFFCCF0895CF92DF92C5
:1002F000EF92FF920F931F93CF93DF93C82F062F98
:10030000142FD52F84E48093BC008091BC0087FD1E
:1003100002C0A895FACF8091BB008C2F0E946C017F
:10032000802F0E946C01E12EFD2E10E000E00C2ECB
:10033000000CDD0B6E0181E0C81AD1080C171D07F7
:1003400074F4F70181917F01C016D10629F40E944F
:1003500062010F5F1F4FF2CF0E946C01FACF80E85D
:100360008093BC00DF91CF911F910F91FF90EF9090
:10037000DF90CF90089588EE91E00E94BD00892B18
:1003800011F4A895F8CF88EE91E00E949B000895A3
:1003900030E020E042EB55E046BD55BDA89BFECFC6
:1003A000A89A15BCA8952F5F3F4F82179307A1F716
:1003B0000895FC0101900020E9F73197AF01481B37
:1003C000590BBC0188EE91E00C945F001F920F92D4
:1003D0000FB60F9211242F933F938F939F93AF9358
:1003E000BF938091E4019091E501A091E601B09165
:1003F000E7013091E30123E0230F2D3758F50196F3
:10040000A11DB11D2093E3018093E4019093E501C8
:10041000A093E601B093E7018091DF019091E001A4
:10042000A091E101B091E2010196A11DB11D80935F
:10043000DF019093E001A093E101B093E201BF914D
:10044000AF919F918F913F912F910F900FBE0F9081
:100450001F90189526E8230F0296A11DB11DD2CF3B
:100460001F920F920FB60F9211242F933F934F9329
:100470005F936F937F938F939F93AF93BF93EF930C
:10048000FF9388EE91E00E94C900FF91EF91BF9128
:10049000AF919F918F917F916F915F914F913F911C
:1004A0002F910F900FBE0F901F9018951F920F92D3
:1004B0000FB60F9211242F938F939F93EF93FF9377
:1004C000E091F801F091F9018081E091FE01F09155
:1004D000FF0182FD1BC09081809101028F5F8F73AD
:1004E00020910202821741F0E0910102F0E0E85110
:1004F000FE4F958F80930102FF91EF919F918F9115
:100500002F910F900FBE0F901F9018958081F4CF00
:1005100084EC8093BC008091BC0087FFFCCF80916D
:10052000BB000895AC0164E088E00C947601CF92A2
:10053000DF92EF92FF920F931F93CF93DF9300D040
:10054000CDB7DEB789831A82AE014F5F5F4F60E59A
:1005500081E00E94760184E48093BC008091BC001D
:1005600087FD02C0A895FACF8091BB000E94880247
:10057000182F0E948802105300ED080F8AE0189F80
:10058000000D1124F12CE12C002E000C110B680140
:1005900081E0C81AD108E016F1068CF4CE14DF040D
:1005A00059F40E945801682F88EE91E00E94EB00F8
:1005B0008FEFE81AF80AEFCF0E948802F4CF80E8A4
:1005C0008093BC000F900F90DF91CF911F910F91FE
:1005D000FF90EF90DF90CF9008950F931F93CF93EC
:1005E000DF938C01D0E0C0E088EE91E00E94BD0076
:1005F000892B79F42196A895C1348FE1D807A4F30B
:100600000150110979F780E0DF91CF911F910F918F
:10061000089581E0F9CFE8EEF1E01382128288EECE
:1006200093E0A0E0B0E084839583A683B78384E061
:1006300091E09183808385EC90E09587848784ECBA
:1006400090E09787868780EC90E0918B808B81EC9F
:1006500090E0938B828B82EC90E0958B848B86EC80
:1006600090E0978B868B118E128E138E148E0895C8
:10067000CF93DF93CDB7DEB7A3970FB6F894DEBF65
:100680000FBECDBF04B603FE03C082E08093DE013F
:1006900004B600FE03C081E08093DE0104B601FED3
:1006A00003C083E08093DE018091DE01823049F453
:1006B0008CEF91E00E947A06811103C084E0809360
:1006C000DE018091DE01823049F48CEF91E00E94DE
:1006D0007A06813019F485E08093DE016FEF8CEFAC
:1006E00091E00E94820614BEA8958FB78093DD0129
:1006F000F89480916000886180936000109260009F
:1007000014BE8091DD018FBF82E08093BA0080919A
:100710007C00806480937C0085B78F7E85BF8AB122
:100720008B778AB98BB184688BB926982E9A83E02F
:1007300084B985B78F7E85BF84B18B7784B987B143
:10074000887F87B98AB187788AB985B1846885B985
:1007500088B1876088B98BB188678BB96091660072
:100760008DEF91E00E948206499BFECF85E090E0EC
:100770000E94C8018EEF91E00E947A06182F80EF48
:10078000810F803E40F48FEF91E00E947A061813AB
:1007900002C010936600E091F801F091F90182E047
:1007A0008083E091F401F091F5011082E091F6016F
:1007B000F091F70180E1808310920002E091FC014A
:1007C000F091FD0186E08083E091FA01F091FB0158
:1007D000808180618083E091FA01F091FB0180814A
:1007E00088608083E091FA01F091FB01808180684C
:1007F0008083E091FA01F091FB0180818F7D8083FD
:1008000078944A9B04C01E9B02C04F991AA24A9931
:1008100006C01E9904C04F9B02C081E08AA34A997A
:1008200006C01E9B04C04F9902C082E08AA34A9B67
:1008300006C01E9904C04F9902C083E08AA3CAA0D3
:100840000C2C000CDD08EE08FF08F7FE3BC06DE243
:1008500088EE91E00E94EB0022273327A9012C1992
:100860003D094E095F0919A28E010F5D1F4F9AE0E5
:10087000C92ED12CE12CF12CCA01B901A701960196
:100880000E949006605DF80162938F012115310589
:100890004105510589F7CF01EF2B89F5AE014E5D7A
:1008A0005F4F61E581E00E94760181E090E00E9467
:1008B000C80184E48093BC008091BC0087FD22C005
:1008C000A895FACFA701960119A2CE0181967C01C5
:1008D0008AE0882E912CA12CB12CCA01B901A50166
:1008E00094010E949006605DF70162937F012115DB
:1008F00031054105510589F7309781F2CF010E94FA
:10090000D901CCCF8091BB0080E00E946C0186E5CC
:100910000E94620184E88093BC008091BC008164E5
:100920008093BC0084E48093BC008091BC0087FD70
:1009300002C0A895FACF8091BB000E945801813077
:1009400009F039C180E88093BC0082E191E00E9407
:10095000D9010E94BB01823309F4F9C00CF066C0D2
:10096000813309F4F0C08091DE01833009F08AC13F
:1009700086E891E00E94D90119821A821B821C82AA
:100980001D821E821F82188619860E94BB0190ED6F
:10099000980F9A3010F08D32C1F78983CE010196FD
:1009A0000E94920288E090E00E94ED028823D1F339
:1009B00088EE91E00E949B008D3019F08A3009F09A
:1009C000FEC081E090E00E94ED02882321F088EED5
:1009D00091E00E949B0081E68AA31BA2AE014E5DBE
:1009E0005F4F62E082E00E947601A895FFEF20E76A
:1009F00082E0F15020408040E1F700C00000A8955F
:100A00009FEFE0E7F2E09150E040F040E1F700C0F6
:100A10000000CE0101960E94920284E48093BC0003
:100A20008091BC0087FDF7C0A895FACF833309F405
:100A300090C0843309F097CF88E199E00FB6F8941D
:100A4000A895809360000FBE909360008CEF91E0BA
:100A50000E947A0681110BC08BEF91E00E947A060A
:100A6000811105C06FEF8CEF91E00E94820600E0DB
:100A7000F12CE12CAEE9DA2EB2E6CB2EBB24BA94EF
:100A800013E0A12EC701011112C0009781F48CEF71
:100A900091E00E947A06182F8BEF91E00E947A066F
:100AA000212F30E0322F2227820F932F911D7C01BE
:100AB000F694E7949C013695279536952795AC01D9
:100AC00063E0569547956A95E1F72427352728274F
:100AD000392775E0969587957A95E1F782279327D0
:100AE0009927869597958827E82AF92A0F5F0F3F5F
:100AF00089F46F2D8CEF91E00E9482066E2D8BEFB2
:100B000091E00E94820685B1082F027081FF4DC0DE
:100B1000299800E0C701880F991FE982FA828B8328
:100B20009C83AE014F5F5F4F61E084E00E947601DD
:100B3000D0928500C0928400B6BAA0928100B0998C
:100B400036C0A895FCCF80E30E9497020CCF81E3CA
:100B5000FBCF1092DC0104E4F02E00E8F092BC0020
:100B60008091BC0087FD02C0A895FACF8091BB00A0
:100B700080E00E946C0188E40E9462010093BC0046
:100B8000F092BC008091BC0087FD02C0A895FACF0E
:100B90008091BB000E948802882309F498C0682FC6
:100BA00088EE91E00E94EB00F5CF299AB3CFB09A7E
:100BB0001092810067CF80E88093BC00D4CE90ED86
:100BC000980F9A30B0F08830B1F08D3209F0EACE4B
:100BD000988599879F8198879E819F839D819E8319
:100BE0009C819D839B819C839A819B8399819A831D
:100BF000D4CE883069F78A8189838B818A838C81FE
:100C00008B838D818C838E818D838F818E8388856C
:100C10008F831886C3CE8091BB0080E00E946C0158
:100C200089E40E94620184E88093BC0084E480939C
:100C3000BC008091BC0087FD02C0A895FACF8091CE
:100C4000BB000E9488020E9488020E9488020E94C3
:100C5000580180E88093BC008E010F5F1F4FF12C7C
:100C6000E12CF80161918F01C7010E948206FFEF1C
:100C7000EF1AFF0A28E0E216F10499F786EA91E0FC
:100C80000E94D9018091DE018230A1F4CE0101964B
:100C90007C0110E000E06C01C8010E947A06F701B7
:100CA00081937F010F5F1F4F08301105A9F7C6011F
:100CB0000E9492020E94BB0188E199E00FB6F8946D
:100CC000A895809360000FBE90936000FFCF0E94B4
:100CD00058010093BC0083E891E00E94D901109173
:100CE000DC011F5F1093DC010E94BB0113300CF488
:100CF00035CF39CEF999FECF92BD81BDF89A9927AB
:100D000080B50895262FF999FECF1FBA92BD81BDF7
:100D100020BD0FB6F894FA9AF99A0FBE019608957D
:100D2000A1E21A2EAA1BBB1BFD010DC0AA1FBB1FEF
:100D3000EE1FFF1FA217B307E407F50720F0A21B61
:100D4000B30BE40BF50B661F771F881F991F1A94CE
:100D500069F760957095809590959B01AC01BD01F8
:100D6000CF010895EE0FFF1F0590F491E02D099437
:040D7000F894FFCF25
:100D740000000000EB005F008C003801BD009B0008
:100D8400AF000D0A50726573730D0A3120666F72DD
:100D9400204F532076657273696F6E0D0A32206698
:100DA4006F722073797374656D20646174610D0AC8
:100DB40033204D6573736167652066726F6D2074AF
:100DC4006865204F5320287820746F206573636111
:100DD4007065290D0A342044656661756C74207051
:100DE400726F6A6563740D0A3020746F20657363D3
:100DF4006170650D0A00496E7465676572204E75F1
:100E04006D6265723F205465726D696E6174652010
:100E1400696E204352000D0A486F6C642073773268
:100E240020646F776E20616E6420746F67676C65F1
:100E34002073773120746F206368616E6765206961
:0C0E44006E74656E736974790D0A00000D
:00000001FF
