:100000000C9434000C9449000C9449000C94490061
:100010000C9449000C9449000C9449000C9449003C
:100020000C9449000C9449000C9449000C9449002C
:100030000C9449000C9449000C9449000C9449001C
:100040000C9449000C9449000C9449000C9449000C
:100050000C9449000C9449000C9449000C944900FC
:100060000C9449000C94490011241FBECFEFD4E03A
:10007000DEBFCDBF11E0A0E0B1E0E8EBF2E002C0EE
:1000800005900D92A038B107D9F70E9467000C9433
:100090005A010C9400008093BB0084EC8093BC0058
:1000A0008091BC0087FFFCCF0895AC0148535F4F9F
:1000B000FC012191CF01222349F03091C00035FF8E
:1000C000FCCF2093C6008417950791F708951F93DE
:1000D000CF93DF93CDB7DEB7E6970FB6F894DEBFC8
:1000E0000FBECDBF84B7A89584B7877F84BF8091AA
:1000F00060008861809360001092600082E08093CD
:10010000BA0080917C00806480937C0085B78F7EEC
:1001100085BF8AB18B778AB98BB184688BB92698F1
:100120002E9A83E084B985B78F7E85BF84B18B77A3
:1001300084B987B1887F87B98AB187788AB985B150
:10014000846885B988B1876088B98BB188678BB9B5
:10015000609166008DEF91E00E944C01499BFECFBB
:1001600085E090E022EB35E026BD35BDA89BFECFB3
:10017000A89A15BCA8950197B9F78EEF91E00E9457
:100180004401182F80EF810F803E40F48FEF91E003
:100190000E944401181302C0109366001092C1001F
:1001A0001092C50080E18093C40082E08093C0007B
:1001B00088E18093C10086E08093C20013B110955E
:1001C00016FB112710F984E48093BC008091BC00D9
:1001D00087FFFCCF8091BB0081E00E944B0081E54E
:1001E0000E944B001093BB0084E88093BC00809178
:1001F000BC0087FFFCCF80E88093BC0088E19BE0D7
:100200000FB6F894A895809360000FBE909360009D
:100210004A9902C0A895FCCF80E091E00E94550069
:1002200089E1E9E4F1E0DE015E9601900D928A95A4
:10023000E1F78DE1E2E6F1E0DE01119601900D9229
:100240008A95E1F784E291E00E94550082E391E013
:100250000E945500CE014E960E945500CE01019697
:100260000E9455004A9B02C0A895FCCF4A9BFECF36
:1002700081E090E0E6960FB6F894DEBF0FBECDBFEA
:10028000DF91CF911F910895F999FECF92BD81BD65
:10029000F89A992780B50895262FF999FECF1FBAAD
:1002A00092BD81BD20BD0FB6F894FA9AF99A0FBE9F
:0802B00001960895F894FFCFB8
:1002B8000D0A446566696E696E6720616E64207513
:1002C80073696E67207465787420737472696E67D9
:1002D800730D0A0048656C6C6F20776F726C640D43
:1002E8000A0053656E64696E6720746578742074BB
:1002F8006F20612050430D0A0057726974696E6758
:1003080020432070726F6772616D7320616E640D97
:100318000A0055706C6F6164696E67207468656D5A
:1003280020746F2061206465766963650D0A00009A
:00000001FF
