:100000000C9434000C9451000C9451000C94EF00AB
:100010000C9451000C9451000C9451000C9451001C
:100020000C9451000C9451000C9451000C9451000C
:100030000C9451000C9451000C9451000C945100FC
:100040000C9451000C9451000C94FB000C94510042
:100050000C9451000C9451000C9451000C945100DC
:100060000C9451000C94510011241FBECFEFD4E02A
:10007000DEBFCDBF11E0A0E0B1E0EAE2F7E002C0F0
:1000800005900D92A434B107D9F721E0A4E4B1E0C2
:1000900001C01D92A734B207E1F70E9418010C9429
:1000A00093030C9400008093BB0084EC8093BC000D
:1000B0008091BC0087FFFCCF0895BF92CF92DF9262
:1000C000EF92FF920F931F93CF93DF93C82F062FCA
:1000D000142FD52F84E48093BC008091BC0087FF4F
:1000E000FCCF8091BB008C2F0E945300802F0E9478
:1000F0005300E12EFD2E10E000E00C2E000CDD0B75
:100100006E0181E0C81AD10884E8B82E0C171D07CB
:10011000A4F4F70181917F01C016D10659F48093B0
:10012000BB00B092BC008091BC0087FFFCCF0F5F8A
:100130001F4FECCF0E945300FACF80E88093BC00A1
:10014000DF91CF911F910F91FF90EF90DF90CF90B3
:10015000BF900895CF93DF9300D000D0CDB7DEB726
:1001600089839A836B837C83AE014F5F5F4F61E02D
:1001700084E00E945D000F900F900F900F90DF9130
:10018000CF9108959091C00095FFFCCF8093C60059
:1001900008950F931F93CF93DF93EC018C010853C5
:1001A0001F4F8991882329F00E94C200C017D107F0
:1001B000C1F7DF91CF911F910F91089530E020E0BA
:1001C00042EB55E046BD55BDA89BFECFA89A15BC95
:1001D000A8952F5F3F4F82179307A1F708951F92AD
:1001E0000F920FB60F9211241E9BFECF0F900FBEE1
:1001F0000F901F9018951F920F920FB60F92112417
:100200008F939F93EF93FF93E1ECF0E080818F77E2
:10021000808381E090E09093460180934501FF91B7
:10022000EF919F918F910F900FBE0F901F90189597
:10023000CF93DF931F92CDB7DEB784B7A89584B76D
:10024000877F84BF809160008861809360001092F6
:10025000600082E08093BA0080917C00806480938B
:100260007C0085B78F7E85BF8AB18B778AB98BB1C9
:1002700084688BB926982E9A83E084B985B78F7EDF
:1002800085BF84B18B7784B987B1887F87B98AB1FC
:1002900087788AB985B1846885B988B1876088B95B
:1002A0008BB188678BB9609166008DEF91E00E94F9
:1002B0008503499BFECF85E090E00E94DE008EEF33
:1002C00091E00E947D03182F80EF810F803E40F463
:1002D0008FEF91E00E947D03181302C01093660017
:1002E0001092C1001092C50080E18093C40082E0AA
:1002F0008093C00088E18093C10086E08093C200B3
:1003000019824A9B02C01E9989B14A9906C01E995A
:1003100004C04F9B02C081E089834A9906C01E9B9E
:1003200004C04F9902C082E089834A9B06C01E998F
:1003300004C04F9902C083E08983AE014F5F5F4FD5
:1003400061E581E00E945D0081E090E00E94DE00B6
:1003500084E48093BC008091BC0087FFFCCF809137
:10036000BB0080E00E94530086E58093BB0084E8D8
:100370008093BC008091BC0087FFFCCF84E8809311
:10038000BC008091BC0081648093BC0084E48093B5
:10039000BC008091BC0087FFFCCF8091BB0084E84B
:1003A0008093BC008091BC0087FFFCCF8091BB0094
:1003B000813009F08AC080E88093BC0088E199E030
:1003C0000FB6F894A895809360000FBE90936000DC
:1003D0008CEF91E00E947D0381110BC08BEF91E0C7
:1003E0000E947D03811105C06FEF8CEF91E00E94A8
:1003F0008503F12C10E000E0AEE9EA2EB2E6DB2E38
:10040000CC24CA9483E0B82EC801F11012C0009722
:1004100081F48CEF91E00E947D03182F8BEF91E027
:100420000E947D03212F30E0322F2227820F932F4D
:10043000911D8C01169507959C013695279536954B
:100440002795AC0163E0569547956A95E1F7242717
:1004500035272827392775E0969587957A95E1F70E
:10046000822793279927869597958827082B192BFC
:10047000F3942FEFF21212C0612F8CEF91E00E94E3
:100480008503602F8BEF91E00E94850385B1482F93
:100490004270F42E81FF13C02998F12CB801660F29
:1004A000771FC8010E94AA00E0928500D0928400C4
:1004B000C6BAB0928100B09904C0A895FCCF299A21
:1004C000EDCFB09A109281009FCF80E88093BC005E
:1004D00088E19BE00FB6F894A895809360000FBE6A
:1004E000909360001E9902C0A895FCCF80916B008C
:1004F000806480936B0080916800816080936800C5
:100500008FE39CE90197F1F700C00000789480E048
:1005100091E00E94C90090E080E02AEF30E0409135
:10052000C00047FD95C00196A89581344FE194071E
:1005300024F02150310990E080E02115310579F750
:10054000E6CF0196A89581302DE7920724F1260188
:100550003701440C551C661C771C75016401F69428
:10056000E794D794C794B601C2010E94AA00812CD7
:1005700030E8932EA12CB12C41E0C416D104E10443
:10058000F10421F0460157017301620181E0281A4C
:10059000310890E080E02114310409F089C08FE334
:1005A0000E94C2007FC06A3009F498C0C8010E944E
:1005B0008503C8010E947D03882329F00E94C200A0
:1005C000015011096FC08FE291E00E94C900F8CF7D
:1005D000123599F528EEE22E23E0F22E89EE93E013
:1005E0000E947D03182F8AEE93E00E947D03212F45
:1005F00030E0322F2227820F932F911D8E159F05F9
:10060000C4F4C7010E947D0391E0E91AF108882330
:1006100019F00E94C200F5CF8091C00087FD02C092
:10062000A895FACF8091C6008FE291E00E94C900A0
:10063000D5CF82E391E00E94C90088E199E00FB62E
:10064000F894A895809360000FBE90936000FFCF50
:100650001091C60010934401123519F0123709F0B9
:1006600056CF8FE291E00E94C900123709F0B0CF57
:100670008091C10080688093C10060E070E881E0F3
:1006800090E00E94AA0087E091E00E94C900C12C7E
:10069000D12C7601C394812CE0E89E2EA12CB12CA4
:1006A00008EE13E090E080E064EF262E33243394CC
:1006B00020914501309146012130310509F041CFAB
:1006C0006091C6008091C10080688093C100109243
:1006D0004601109245016D3009F065CF612F89EE1A
:1006E00093E00E948503602F8AEE93E00E948503C9
:1006F0008FE30E94C20060E059CFF999FECF92BD0E
:1007000081BDF89A992780B50895262FF999FECFD3
:100710001FBA92BD81BD20BD0FB6F894FA9AF99A1E
:0A0720000FBE01960895F894FFCF74
:10072A00523F202020200053656E64207374726942
:10073A006E6720616E64207465726D696E6174659E
:10074A0020697420696E2061202D63722D203F0D6F
:10075A000A004E6F206D6F726520737472696E673E
:04076A00730D0A0001
:00000001FF
