:100000000C9434000C9449000C9449000C94490061
:100010000C9449000C9449000C9449000C9449003C
:100020000C9449000C9449000C9449000C9449002C
:100030000C9449000C9449000C9449000C9449001C
:100040000C9449000C9449000C9449000C9449000C
:100050000C9449000C9449000C9449000C944900FC
:100060000C9449000C94490011241FBECFEFD4E03A
:10007000DEBFCDBF11E0A0E0B1E0ECE0F6E002C0F1
:1000800005900D92A437B107D9F70E944C010C944A
:1000900004030C94000084E88093BC008091BC00B1
:1000A00087FFFCCF8091BB00089584EC8093BC0057
:1000B0008091BC0087FFFCCF8091BB0008958093A6
:1000C000BB0084E88093BC008091BC0087FFFCCF1C
:1000D00008958093BB0084EC8093BC008091BC00A9
:1000E00087FFFCCF0895CF92DF92EF92FF920F939C
:1000F0001F93CF93DF93C82F062F142FD52F84E49F
:100100008093BC008091BC0087FFFCCF8091BB0036
:100110008C2F0E946900802F0E946900E12EFD2E25
:1001200010E000E00C2E000CDD0B6E0181E0C81A1F
:10013000D1080C171D0774F4F70181917F01C016D7
:10014000D10629F40E945F000F5F1F4FF2CF0E947B
:100150006900FACF80E88093BC00DF91CF911F91B6
:100160000F91FF90EF90DF90CF900895CF93DF93A2
:1001700000D000D0CDB7DEB789839A836B837C83B0
:10018000AE014F5F5F4F61E084E00E9473000F900B
:100190000F900F900F90DF91CF9108959091C00034
:1001A00095FFFCCF8093C6000895CF92DF92EF9227
:1001B000FF920F931F93CF93DF9300D0CDB7DEB79D
:1001C00089831A82AE014F5F5F4F60E581E00E9434
:1001D000730084E48093BC008091BC0087FFFCCF57
:1001E0008091BB000E945500182F0E9455001053AB
:1001F00000ED080F8AE0189F000D1124F12CE12C6E
:10020000002E000C110B680181E0C81AD108E0161D
:10021000F10674F4CE14DF0441F40E944B000E94F6
:10022000CE008FEFE81AF80AF2CF0E945500F7CF00
:1002300080E88093BC000F900F90DF91CF911F91C9
:100240000F91FF90EF90DF90CF9008950F931F9341
:10025000CF93DF93EC018C0108531F4F89918823C2
:1002600029F00E94CE00C017D107C1F7DF91CF91CE
:100270001F910F91089530E020E042EB55E046BD1C
:1002800055BDA89BFECFA89A15BCA8952F5F3F4FE0
:1002900082179307A1F70895CF93DF931F92CDB7ED
:1002A000DEB784B7A89584B7877F84BF809160004C
:1002B0008861809360001092600082E08093BA00B1
:1002C00080917C00806480937C0085B78F7E85BFA1
:1002D0008AB18B778AB98BB184688BB926982E9AAC
:1002E00083E084B985B78F7E85BF84B18B7784B96D
:1002F00087B1887F87B98AB187788AB985B18468E0
:1003000085B988B1876088B98BB188678BB96091EE
:1003100066008DEF91E00E94F602499BFECF85E0DA
:1003200090E00E943B018EEF91E00E94EE02182FB8
:1003300080EF810F803E40F48FEF91E00E94EE024B
:10034000181302C0109366001092C1001092C500ED
:1003500080E18093C40082E08093C00088E18093B4
:10036000C10086E08093C2001E993FC081E089836E
:10037000AE014F5F5F4F61E581E00E94730081E055
:1003800090E00E943B0184E48093BC008091BC001B
:1003900087FFFCCF8091BB0080E00E94690086E56A
:1003A0000E945F0084E88093BC008091BC0081645F
:1003B0008093BC0084E48093BC008091BC0087FFE4
:1003C000FCCF8091BB000E944B00813009F0F4C04B
:1003D00080E88093BC0080E091E00E94260180913B
:1003E000C00087FD04C0A895FACF1982C1CF8091C3
:1003F000C600823309F4B4C038F5813309F4ACC0C7
:1004000000E210E0C12CD12CE12C20E8F22E812C4E
:10041000912C54018394B601C4010E94B6002FEFC1
:100420008DEE92E0215080409040E1F700C0000046
:10043000880C991CAA1CBB1CF694E794D794C7940B
:100440000150110941F7DCCF04E410E8833309F4CB
:100450008EC08433A9F688E199E00FB6F894A89588
:10046000809360000FBE909360008CEF91E00E943B
:10047000EE0281110BC08BEF91E00E94EE02811120
:1004800005C06FEF8CEF91E00E94F602F12C10E0B6
:1004900000E0BEE9EB2E82E6D82ECC24CA9493E08D
:1004A000B92EC801F11012C0009781F48CEF91E0D1
:1004B0000E94EE02182F8BEF91E00E94EE02212F96
:1004C00030E0322F2227820F932F911D8C01169539
:1004D00007959C013695279536952795AC0173E0D5
:1004E000569547957A95E1F7242735272827392708
:1004F000E5E096958795EA95E1F782279327992776
:10050000869597958827082B192BF3942FEFF212D5
:1005100012C0612F8CEF91E00E94F602602F8BEFEA
:1005200091E00E94F60285B1982F9270F92E81FF1A
:100530003DC02998F12CB801660F771FC8010E94B1
:10054000B600E0928500D0928400C6BAB0928100D5
:10055000B0992EC0A895FCCF80E30E94D50050CF63
:1005600081E3FBCF8091C600883709F449CF00931F
:10057000BC008091BC0087FFFCCF8091BB0080E075
:100580000E94690088E40E945F001093BC00009301
:10059000BC008091BC0087FFFCCF8091BB000E9413
:1005A0005500882369F00E94CE00F9CF299AC3CF65
:1005B000B09A1092810075CF80E88093BC0020CF64
:1005C0000E944B001093BC0081E791E00E9426013D
:1005D0008091C00087FDC6CFA895FACFF999FECFCC
:1005E00092BD81BDF89A992780B50895262FF99973
:1005F000FECF1FBA92BD81BD20BD0FB6F894FA9A06
:0C060000F99A0FBE01960895F894FFCF00
:10060C000D0A50726573730D0A3120666F72204F9C
:10061C00532076657273696F6E0D0A3220666F72A5
:10062C002073797374656D20646174610D0A3320D5
:10063C004D6573736167652066726F6D20746865B4
:10064C00204F5320287820746F2065736361706588
:10065C00290D0A342044656661756C742070726FC4
:10066C006A6563740D0A3020746F20657363617062
:04067C00650D0A00FE
:00000001FF
