:100000000C9434000C943E000C943E000C943E0082
:100010000C943E000C943E000C943E000C943E0068
:100020000C943E000C943E000C943E000C943E0058
:100030000C943E000C943E000C943E000C943E0048
:100040000C943E000C943E000C943E000C943E0038
:100050000C943E000C943E000C943E000C943E0028
:100060000C943E000C943E0011241FBECFEFD4E050
:10007000DEBFCDBF0E94C0000C9433020C94000080
:100080008093BB0084EC8093BC008091BC0087FF10
:10009000FCCF0895BF92CF92DF92EF92FF920F9321
:1000A0001F93CF93DF93C82F062F142FD52F84E4EF
:1000B0008093BC008091BC0087FFFCCF8091BB0087
:1000C0008C2F0E944000802F0E944000E12EFD2EC8
:1000D00010E000E00C2E000CDD0B6E0181E0C81A70
:1000E000D10884E8B82E0C171D07A4F4F7018191FC
:1000F0007F01C016D10659F48093BB00B092BC00BA
:100100008091BC0087FFFCCF0F5F1F4FECCF0E9498
:100110004000FACF80E88093BC00DF91CF911F911F
:100120000F91FF90EF90DF90CF90BF900895CF9305
:10013000DF9300D000D0CDB7DEB789839A836B837D
:100140007C83AE014F5F5F4F61E084E00E944A0014
:100150000F900F900F900F90DF91CF91089530E0A6
:1001600020E042EB55E046BD55BDA89BFECFA89AC6
:1001700015BCA8952F5F3F4F82179307A1F70895ED
:10018000CF93DF931F92CDB7DEB784B7A89584B71E
:10019000877F84BF809160008861809360001092A7
:1001A000600082E08093BA0080917C00806480933C
:1001B0007C0085B78F7E85BF8AB18B778AB98BB17A
:1001C00084688BB926982E9A83E084B985B78F7E90
:1001D00085BF84B18B7784B987B1887F87B98AB1AD
:1001E00087788AB985B1846885B988B1876088B90C
:1001F0008BB188678BB9609166008DEF91E00E94AA
:100200002502499BFECF85E090E00E94AF008EEF73
:1002100091E00E941D02182F80EF810F803E40F474
:100220008FEF91E00E941D02181302C01093660028
:100230001092C1001092C50080E18093C40082E05A
:100240008093C00088E18093C10086E08093C20063
:100250001E99C4C081E08983AE014F5F5F4F61E5A5
:1002600081E00E944A0081E090E00E94AF0084E4B7
:100270008093BC008091BC0087FFFCCF8091BB00C5
:1002800080E00E94400086E58093BB0084E8809374
:10029000BC008091BC0087FFFCCF84E88093BC0049
:1002A0008091BC0081648093BC0084E48093BC0096
:1002B0008091BC0087FFFCCF8091BB0084E88093D5
:1002C000BC008091BC0087FFFCCF8091BB008130D7
:1002D00009F08CC080E88093BC0088E199E00FB6FB
:1002E000F894A895809360000FBE909360008CEF07
:1002F00091E00E941D0281110BC08BEF91E00E94E2
:100300001D02811105C06FEF8CEF91E00E94250264
:10031000F12C10E000E0BEE9EB2E82E6D82ECC24D2
:10032000CA9493E0B92EC801F11012C0009781F46D
:100330008CEF91E00E941D02182F8BEF91E00E943C
:100340001D02212F30E0322F2227820F932F911D83
:100350008C01169507959C0136952795369527951E
:10036000AC0173E0569547957A95E1F72427352738
:1003700028273927E5E096958795EA95E1F78227C2
:1003800093279927869597958827082B192BF394FF
:100390002FEFF21212C0612F8CEF91E00E94250224
:1003A000602F8BEF91E00E94250285B1982F92700B
:1003B000F92E81FF15C02998F12CB801660F771F1F
:1003C000C8010E949700E0928500D0928400C6BACE
:1003D000B0928100B09906C0A895FCCF19823CCF9D
:1003E000299AEBCFB09A109281009DCF80E880933C
:1003F000BC0000E210E0C12CD12CE12C20E8F22E50
:10040000812C912C54018394B601C4010E94970061
:100410002FEF8DEE92E0215080409040E1F700C038
:100420000000880C991CAA1CBB1CF694E794D79476
:10043000C7940150110941F7DCCFF999FECF92BD65
:1004400081BDF89A992780B50895262FF999FECF96
:100450001FBA92BD81BD20BD0FB6F894FA9AF99AE1
:0A0460000FBE01960895F894FFCF37
:00000001FF
