:100000000C9434000C943E000C943E000C943E0082
:100010000C943E000C943E000C943E000C943E0068
:100020000C943E000C943E000C943E000C943E0058
:100030000C943E000C943E000C943E000C943E0048
:100040000C943E000C943E000C943E000C943E0038
:100050000C943E000C943E000C943E000C943E0028
:100060000C943E000C943E0011241FBECFEFD4E050
:10007000DEBFCDBF0E9497000C945A010C94000083
:100080008093BB0084EC8093BC008091BC0087FF10
:10009000FCCF0895BF92CF92DF92EF92FF920F9321
:1000A0001F93CF93DF93C82F062F142FD52F84E4EF
:1000B0008093BC008091BC0087FFFCCF8091BB0087
:1000C0008C2F0E944000802F0E944000E12EFD2EC8
:1000D00010E000E00C2E000CDD0B6E0181E0C81A70
:1000E000D10884E8B82E0C171D07A4F4F7018191FC
:1000F0007F01C016D10659F48093BB00B092BC00BA
:100100008091BC0087FFFCCF0F5F1F4FECCF0E9498
:100110004000FACF80E88093BC00DF91CF911F911F
:100120000F91FF90EF90DF90CF90BF900895CF9305
:10013000DF9300D000D0CDB7DEB784B7A89584B7E1
:10014000877F84BF809160008861809360001092F7
:10015000600082E08093BA0080917C00806480938C
:100160007C0085B78F7E85BF8AB18B778AB98BB1CA
:1001700084688BB926982E9A83E084B985B78F7EE0
:1001800085BF84B18B7784B987B1887F87B98AB1FD
:1001900087788AB985B1846885B988B1876088B95C
:1001A0008BB188678BB9609166008DEF91E00E94FA
:1001B0004C01499BFECF85E090E022EB35E026BD67
:1001C00035BDA89BFECFA89A15BCA8950197B9F795
:1001D0008EEF91E00E944401182F80EF810F803E46
:1001E00040F48FEF91E00E944401181302C0109375
:1001F00066001092C1001092C50080E18093C40097
:1002000082E08093C00088E18093C10086E0809303
:10021000C2001E9937C081E08983AE014F5F5F4FF6
:1002200061E581E00E944A00E12CFF24F39401E0A3
:1002300010E009831A83C801809590958B839C8375
:10024000AE014F5F5F4F61E084E00E944A002FEFF4
:1002500087EE93E0215080409040E1F700C000001D
:10026000C801880F991F25E02F1524F0802B912BB2
:10027000F394A895E1108160E92EEE1CEE24EE1CAB
:100280008C01D7CF1982C9CFF999FECF92BD81BD1C
:10029000F89A992780B50895262FF999FECF1FBAAD
:1002A00092BD81BD20BD0FB6F894FA9AF99A0FBE9F
:0802B00001960895F894FFCFB8
:00000001FF
