:100000000C9434000C9451000C9451000C94510049
:100010000C9451000C9451000C9451000C9451001C
:100020000C9451000C9451000C9451000C9451000C
:100030000C9451000C9451000C9451000C945100FC
:100040000C9451000C9451000C9451000C945100EC
:100050000C9451000C9451000C9451000C945100DC
:100060000C9451000C94510011241FBECFEFD4E02A
:10007000DEBFCDBF11E0A0E0B1E0EEE1F7E002C0ED
:1000800005900D92A437B107D9F721E0A4E7B1E0BC
:1000900001C01D92AB37B207E1F70E9496010C94A4
:1000A0008D030C94000084E88093BC008091BC0018
:1000B00087FFFCCF8091BB0008958093BB0084E84C
:1000C0008093BC008091BC0087FFFCCF0895809393
:1000D000BB0084EC8093BC008091BC0087FFFCCF08
:1000E0000895CF92DF92EF92FF920F931F93CF93D9
:1000F000DF93C82F062F142FD52F84E48093BC00E4
:100100008091BC0087FFFCCF8091BB008C2F0E94A8
:100110006700802F0E946700E12EFD2E10E000E0B6
:100120000C2E000CDD0B6E0181E0C81AD1080C17F3
:100130001D0774F4F70181917F01C016D10629F4DF
:100140000E945D000F5F1F4FF2CF0E946700FACF41
:1001500080E88093BC00DF91CF911F910F91FF90B9
:10016000EF90DF90CF90089530E020E042EB55E033
:1001700046BD55BDA89BFECFA89A15BCA8952F5F7C
:100180003F4F82179307A1F70895EF92FF920F93C5
:100190001F93CF93DF938B01FB01D081D11112C04C
:1001A000009781F48CEF91E00E946303C82F8BEFDE
:1001B00091E00E9463032C2F30E0322F2227820F20
:1001C000932F911D7C01F694E7949C013695279519
:1001D00036952795AC0163E0569547956A95E1F70A
:1001E000242735272827392775E0969587957A950E
:1001F000E1F7822793279927869597958827E82AFC
:10020000F92ADF5FF801D083DF3F79F46F2D8CEF9F
:1002100091E00E946B036E2D8BEF91E00E946B03C7
:10022000299B0BC02998F8011082C701DF91CF915B
:100230001F910F91FF90EF900895299AF4CF84ECCD
:100240008093BC008091BC0087FFFCCF8091BB00F5
:1002500008959091C00095FFFCCF8093C60008954B
:10026000CF92DF92EF92FF920F931F93CF93DF9382
:1002700000D0CDB7DEB789831A82AE014F5F5F4FE2
:1002800060E581E00E94710084E48093BC0080916D
:10029000BC0087FFFCCF8091BB000E941F01182F7C
:1002A0000E941F01105300ED080F8AE0189F000DF7
:1002B0001124F12CE12C002E000C110B680181E0BF
:1002C000C81AD108E016F10674F4CE14DF0441F424
:1002D0000E9453000E9429018FEFE81AF80AF2CF1A
:1002E0000E941F01F7CF80E88093BC000F900F9011
:1002F000DF91CF911F910F91FF90EF90DF90CF9002
:1003000008950F931F93CF93DF93EC018C01085353
:100310001F4F8991882329F00E942901C017D10716
:10032000C1F7DF91CF911F910F910895CF93DF9384
:1003300000D000D01F92CDB7DEB784B7A89584B7A0
:10034000877F84BF809160008861809360001092F5
:10035000600082E08093BA0080917C00806480938A
:100360007C0085B78F7E85BF8AB18B778AB98BB1C8
:1003700084688BB926982E9A83E084B985B78F7EDE
:1003800085BF84B18B7784B987B1887F87B98AB1FB
:1003900087788AB985B1846885B988B1876088B95A
:1003A0008BB188678BB9609166008DEF91E00E94F8
:1003B0006B03499BFECF85E090E00E94B4008EEF76
:1003C00091E00E946303182F80EF810F803E40F47C
:1003D0008FEF91E00E946303181302C01093660030
:1003E0001092C1001092C50080E18093C40082E0A9
:1003F0008093C00088E18093C10086E08093C200B2
:100400001E993FC081E08983AE014F5F5F4F61E578
:1004100081E00E94710081E090E00E94B40084E4D9
:100420008093BC008091BC0087FFFCCF8091BB0013
:1004300080E00E94670086E50E945D0084E880936A
:10044000BC008091BC0081648093BC0084E48093F4
:10045000BC008091BC0087FFFCCF8091BB000E9454
:100460005300813009F0ACC080E88093BC0080E08C
:1004700091E00E9481018091C00087FD04C0A89591
:10048000FACF1982C1CF8091C600823309F46DC0C2
:10049000D8F4813309F465C088E199E00FB6F89487
:1004A000A895809360000FBE9093600081E68983D9
:1004B0001A82AE014F5F5F4F62E082E00E947100DE
:1004C0004A9982C0A895FCCF04E410E8833309F46C
:1004D00053C0843309F788E199E00FB6F894A895E2
:1004E000809360000FBE909360001D828CEF91E0BE
:1004F0000E94630381110BC08BEF91E00E946303A4
:10050000811105C06FEF8CEF91E00E946B0310E04A
:1005100000E05EE9F52E62E6E62EDD24DA9473E073
:10052000C72EBE016B5F7F4FC8010E94C5008C01C2
:100530009C01220F331F89839A832B833C83AE0156
:100540004F5F5F4F61E084E00E947100F092850090
:10055000E0928400D6BAC0928100B0992DC0A895CF
:10056000FCCF80E30E94300197CF81E3FBCF8091E5
:10057000C600883709F490CF0093BC008091BC007E
:1005800087FFFCCF8091BB0080E00E94670088E479
:100590000E945D001093BC000093BC008091BC00E1
:1005A00087FFFCCF8091BB000E941F01882309F4C4
:1005B0007CC00E942901F8CFB09A10928100B1CF7F
:1005C00080E88093BC0068CF1D82BE016B5F7F4FC7
:1005D00090E080E00E94C500E82E692E712CF12C7D
:1005E0005524539427E0C22ED12CAA24A394B12CD5
:1005F00087E38F150CF452C08E2D962DB6010E9404
:10060000790391E6892E880EBE016B5F7F4F8E2D98
:10061000962D0E94C500E82E692E982F9770992E6E
:10062000E82DE156FF0B8F010C581E4FF801711099
:1006300010C08081082E000C990B092C02C09595E2
:1006400087950A94E2F780FF0FC08D8181508D83DA
:10065000CFCF2081022E000C330B02C03595279599
:100660009A95E2F720FFF1CF89829A82AE014F5F1F
:100670005F4F63E082E00E947100950101C0220F8C
:100680009A94EAF7F801808182278083F39488E0C6
:1006900090E00E94B4004A9BFECFAACF752482E36B
:1006A00090E00E94B400F12CA7CF0E945300109359
:1006B000BC0081E791E00E9481018091C00087FD2C
:1006C00056CFA895FACFF999FECF92BD81BDF89A81
:1006D000992780B50895262FF999FECF1FBA92BDAC
:1006E00081BD20BD0FB6F894FA9AF99A0FBE019613
:1006F0000895AA1BBB1B51E107C0AA1FBB1FA61769
:10070000B70710F0A61BB70B881F991F5A95A9F7BA
:0E07100080959095BC01CD010895F894FFCF1F
:10071E000D0A50726573730D0A3120666F72204F89
:10072E00532076657273696F6E0D0A3220666F7292
:10073E002073797374656D20646174610D0A3320C2
:10074E004D6573736167652066726F6D20746865A1
:10075E00204F5320287820746F2065736361706575
:10076E00290D0A342044656661756C742070726FB1
:10077E006A6563740D0A3020746F2065736361704F
:04078E00650D0A00EB
:00000001FF
