:100000000C9434000C9451000C9451000C94510049
:100010000C9451000C9451000C9451000C9451001C
:100020000C9451000C9451000C9451000C9451000C
:100030000C9451000C9451000C9451000C945100FC
:100040000C9451000C9451000C948C070C945100AA
:100050000C9451000C9451000C9451000C945100DC
:100060000C9451000C94510011241FBECFEFD4E02A
:10007000DEBFCDBF11E0A0E0B1E0E2E4F5E102C0F7
:1000800005900D92A43DB107D9F711E0A4EDB1E0C0
:1000900001C01D92AB3DB107E1F70E9422080C940C
:1000A0009F0A0C940000E1ECF0E010828093C50000
:1000B0006093C40082E08093C00088E1808386E082
:1000C0008093C200089520E030E003C000002F5F5D
:1000D0003F4F82179307D4F7089566BD85BDA89B4F
:1000E000FECFA89A15BC08950F931F93CF93DF936B
:1000F0008C01C0E0D0E005C085E062EB0E946D009D
:100100002196C017D107C4F3DF91CF911F910F91B2
:100110000895EEE6F0E090819160908366BD85BD24
:100120000895EFE6F0E080818160808382E0809333
:100130008100089570938500609384009FEF96BBC3
:1001400080938100B09BFECFB09A109281000895F9
:10015000EFE6F0E09081916090837093850060936A
:1001600084008093810008956093B2008093B10071
:10017000B89BFECFB89A1092B10008958091C0004C
:1001800087FFFCCF08958091C00087FFFCCF80914E
:10019000C60008958091C6000895982F20E030E0B1
:1001A0000DC02F5F3F4F8FE1213438071CF0915075
:1001B00020E030E0992311F480E008958091C000A0
:1001C00087FFEFCF81E008958091C00087FFFCCFCB
:1001D0008091C6008D3011F08A3051F481E00E9488
:1001E000CD00882311F48DE008958091C6008DE044
:1001F000089585E00E94CD00813019F48091C600F9
:10020000F8CF0895982F8091C00085FFFCCF909380
:10021000C6000895AC0120E030E0FA01E20FF31FC0
:10022000E081EE2359F02F5F3F4F8091C00085FFA2
:10023000FCCFE093C600283C310579F7089580E0B3
:1002400091E00E940A0108951F931EE285E00E943A
:10025000CD00813049F48091C6008091C00085FFB7
:10026000FCCF1093C600F2CF0E941F011F9108958A
:100270002F923F924F925F926F927F928F929F92B6
:10028000AF92BF92CF92DF92EF92FF920F931F93A4
:10029000CF93DF93EC015A016B01403080E05807A7
:1002A00080E0680780E8780751F52A3021F0203196
:1002B00009F06CC014C028E3288394E3998386E393
:1002C0008A8383E38B832C839D8387E38E839F8341
:1002D00081E3888782E389878DE28A870EC080E385
:1002E000888389838A838B838C838D838E8388E341
:1002F0008F838DE2888719861A861B8647C080E027
:1003000090E0FE01E80FF91F108201968C309105F4
:10031000C1F786017501D7FE07C0EE24FF248701CF
:10032000EA18FB080C091D094E0166247724222EC9
:10033000332444245524C801B701A20191010E942D
:100340005A0AF40160836A3010F4605D02C0695C8F
:10035000F40160830894611C711CC801B701A201FB
:1003600091010E945A0AC901DA017C018D010894A9
:10037000811C911C1E141F0410061106E4F2D7FE06
:1003800005C06C0E7D1E8DE2F3018083DF91CF915D
:100390001F910F91FF90EF90DF90CF90BF90AF90A3
:1003A0009F908F907F906F905F904F903F902F9095
:1003B0000895AC0120E030E002C02F5F3F4FFA010A
:1003C000E20FF31F80818823C1F721503040FA01EA
:1003D000E20FF31F2F5F3F4F0AC090818091C00052
:1003E00085FFFCCF9093C6002150304031972115F6
:1003F000310599F708950F931F93DF93CF93CDB7EE
:10040000DEB72C970FB6F894DEBF0FBECDBF282FF6
:100410008E010F5F1F4FC8010E943801C8010E9462
:10042000D9012C960FB6F894DEBF0FBECDBFCF9189
:10043000DF911F910F91089590E080538A3008F466
:1004400091E0892F0895803328F08A3328F0815471
:10045000863010F080E0089581E008951F93182FF2
:1004600087FF10C083E091E00E940A01412F5527C9
:1004700047FD5095509541955F4F662757FD609514
:10048000762F0AC087E091E00E940A01412F55278C
:1004900047FD5095652F752F8AE00E94FB011F9143
:1004A0000895AF92BF92CF92DF92EF92FF920F9397
:1004B0001F93CF93DF937A018B0160E070E0FC0122
:1004C000E60FF71F10826F5F7F4F6C307105B9F731
:1004D000EC01A22EBB24CC24DD24C801B701A60167
:1004E00095010E94380A68836A3010F4605D01C08B
:1004F000695C6883C801B701A60195010E94380AAA
:10050000C901DA017C018D012196E114F104010594
:10051000110519F7DF91CF911F910F91FF90EF9087
:10052000DF90CF90BF90AF9008950F931F93DF930C
:10053000CF93CDB7DEB72C970FB6F894DEBF0FBEC2
:10054000CDBF282F8E010F5F1F4FC8010E9451029F
:10055000C8010E94D9012C960FB6F894DEBF0FBED9
:10056000CDBFCF91DF911F910F91089584E48093C7
:10057000BC008091BC0087FFFCCF8091BB00109233
:10058000BB0084EC8093BC008091BC0087FFFCCF53
:1005900086E48093BB0084E88093BC008091BC001B
:1005A00087FFFCCF84E88093BC008091BC0081640D
:1005B0008093BC000895982F84E48093BC008091C0
:1005C000BC0087FFFCCF8091BB001092BB0084EC85
:1005D0008093BC008091BC0087FFFCCF9093BB0050
:1005E00084E88093BC008091BC0087FFFCCF80E84A
:1005F0008093BC000895782F84E48093BC008091A0
:10060000BC0087FFFCCF8091BB007093BB0084ECE3
:100610008093BC008091BC0087FFFCCF6093BB003F
:1006200084EC8093BC008091BC0087FFFCCFFA0172
:1006300020E030E0472F50E0BA0161507040A4EC58
:1006400094E818C080812617370749F48093BB00CF
:100650009093BC008091BC0087FFFCCF08C08093C2
:10066000BB00A093BC008091BC0087FFFCCF2F5F34
:100670003F4F3196241735072CF380E88093BC0058
:100680000895DF93CF930F92CDB7DEB71E9903C0C5
:1006900081E0898301C0198281E061E5AE014F5F8D
:1006A0005F4F0E94FB020F90CF91DF910895DF937F
:1006B000CF9300D0CDB7DEB7982F4A83698382E00D
:1006C000692FAE014F5F5F4F0E94FB020F900F90AA
:1006D000CF91DF910895DF93CF9300D0CDB7DEB7F0
:1006E00089836A8382E065E0AE014F5F5F4F0E94BD
:1006F000FB020F900F90CF91DF910895DF93CF937E
:1007000000D0CDB7DEB7982F698381E0692FAE01A5
:100710004F5F5F4F0E94FB020F900F90CF91DF91D0
:100720000895982FAB0188E0692F0E94FB0208957D
:10073000AC0188E067E40E94FB020895982FAB01AA
:1007400088E0692F0E94FB020895AC0188E064E014
:100750000E94FB020895DF93CF9300D0CDB7DEB7A0
:1007600081E689831A8282E062E0AE014F5F5F4FCB
:100770000E94FB020F900F90CF91DF910895DF93BD
:10078000CF9300D0CDB7DEB789836A8382E063E080
:10079000AE014F5F5F4F0E94FB020F900F90CF9111
:1007A000DF910895DF93CF9300D000D0CDB7DEB7AF
:1007B0004C81FB815A81E98120E030E02130310514
:1007C00081F02230310524F42115310541F00EC0AD
:1007D0002230310541F02330310541F406C0E82FC5
:1007E00005C0592F03C0F62F01C0472F2F5F3F4F81
:1007F0002430310519F74C83FB835A83E98384E065
:1008000061E0AE014F5F5F4F0E94FB020F900F90BF
:100810000F900F90CF91DF9108958093BB0084ECEF
:100820008093BC008091BC0087FFFCCF089580932B
:10083000BB0084E88093BC008091BC0087FFFCCFA4
:10084000089584EC8093BC008091BC0087FFFCCFAE
:100850008091BB00089584E88093BC008091BC0027
:1008600087FFFCCF8091BB000895CF93DF93FC01FD
:10087000EB0184E48093BC008091BC0087FFFCCF37
:100880008091BB0020E030E054EC5093BC0080919C
:10089000BC0087FFFCCF4091BB0037FD20C0233058
:1008A000310524F023303105D1F40DC080819181D0
:1008B000A281B381840F911DA11DB11DBA2FA92F53
:1008C000982F882708C080819181A281B381840FED
:1008D000911DA11DB11D80839183A283B3832F5FDE
:1008E0003F4F2430310589F684E88093BC00809125
:1008F000BC0087FFFCCF8091BB00888380E8809399
:10090000BC00DF91CF91089588E40E94DB0284E46B
:100910008093BC008091BC0087FFFCCF8091BB001E
:1009200024EC2093BC008091BC0087FFFCCF909109
:10093000BB00992339F08091C00085FFFCCF9093D4
:10094000C600EFCF84E88093BC008091BC0087FF95
:10095000FCCF8091BB0080E88093BC000895AF92EB
:10096000BF92CF92DF92EF92FF920F931F93CF939C
:10097000DF935A010196689F7001699FF00C789F80
:10098000F00C11240197689F8001699F100D789FDA
:10099000100D112462E070E04CEF5FEF6801C0942D
:1009A000D09431C02F5F3F4FE60FF71FCF01861B5A
:1009B000970B08171907B4F7260F371F269FD0018A
:1009C000279FB00D369FB00D1124EB01CC0FDD1F1A
:1009D0009D012C0D3D1D220F331F2A0D3B1D05C00F
:1009E000F901E40FF51F11821082A60FB71F2C0F1B
:1009F0003D1FCD01861B970BE816F9068CF76F5F3C
:100A00007F4F42505040669FC001679F900D769F78
:100A1000900D11248E159F0524F4FC0120E030E098
:100A2000C3CFDF91CF911F910F91FF90EF90DF9097
:100A3000CF90BF90AF900895AF92BF92CF92DF92C8
:100A4000EF92FF920F931F93CF93DF936A0101966A
:100A5000689F7001699FF00C789FF00C112401973A
:100A6000689F8001699F100D789F100D112462E02E
:100A700070E0CCEFDFEF5801A094B0943CC04F5F22
:100A80005F4FF901260F371FC901861B970B081707
:100A90001907ACF73197E01BF10BEE0FFF1FEC0DC0
:100AA000FD1D80819181892B19F1460F571F469FAB
:100AB000D001479FB00D569FB00D1124AB01440FDC
:100AC000551F9D012A0D3B1D220F331F2C0D3D1D6F
:100AD00005C0F901EC0FFD1F11821082A60FB71F90
:100AE000240F351FCD01861B970BE816F9068CF7EE
:100AF0006F5F7F4F2297669FC001679F900D769F23
:100B0000900D11248E159F0524F49C0140E050E0C7
:100B1000B8CFDF91CF911F910F91FF90EF90DF90B1
:100B2000CF90BF90AF9008954F925F926F927F9257
:100B30008F929F92AF92BF92CF92DF92EF92FF92ED
:100B40000F931F93DF93CF93CDB7DEB764970FB6A4
:100B5000F894DEBF0FBECDBF3C01CC24DD24EE24D3
:100B6000FF244E010894811C911C45E1442E512C18
:100B70004C0E5D1E5401C7010196F40181939193BF
:100B80000196E415F505D1F7C6016AE070E0A4010D
:100B90000E94AF0400E010E002C00F5F1F4FF5019C
:100BA000819191915F01892BC1F3F801EE0FFF1F35
:100BB000E80DF91D0EC0208131812230310534F05D
:100BC000C301B9010E94250A892B99F00F5F1F4FBD
:100BD00032960B3011057CF36E147F0444F00894B8
:100BE000C11CD11C8AE090E0E80EF91EC3CF20E0C2
:100BF00030E0C90164960FB6F894DEBF0FBECDBFDA
:100C0000CF91DF911F910F91FF90EF90DF90CF90E8
:100C1000BF90AF909F908F907F906F905F904F901C
:100C20000895DF93CF9300D0CDB7DEB789831A82C2
:100C300081E060E5AE014F5F5F4F0E94FB0284E4FC
:100C40008093BC008091BC0087FFFCCF8091BB00EB
:100C500084EC8093BC008091BC0087FFFCCF909116
:100C6000BB0084EC8093BC008091BC0087FFFCCF6C
:100C70002091BB0020518AE0989FC0011124280FC9
:100C800040E050E030E0B90161507040F4ECE4E83D
:100C900020C04617570769F4E093BC008091BC0060
:100CA00087FFFCCF9091BB008091C00085FFFCCFF7
:100CB0000CC0F093BC008091BC0087FFFCCF9091EA
:100CC000BB008091C00085FFFCCF9093C6004F5FB2
:100CD0005F4F42175307ECF280E88093BC000F90FF
:100CE0000F90CF91DF910895FF920F931F9388E5A6
:100CF0000E94DB0284E48093BC008091BC0087FFEB
:100D0000FCCF8091BB0084EC8093BC008091BC0040
:100D100087FFFCCF1091BB0084EC8093BC008091D6
:100D2000BC0087FFFCCFF090BB0084E88093BC0040
:100D30008091BC0087FFFCCF0091BB0080E88093CE
:100D4000BC008BE091E00E940A0188E191E00E94E2
:100D50000A01412F50E060E070E080E10E94FB0159
:100D60008091C00085FFFCCF89E08093C60088E2B7
:100D700091E00E940A015F2D40E0400F511D66275F
:100D800057FD6095762F8AE00E94FB018FE291E08B
:100D90000E940A018091C00087FFFCCF8091C600AD
:100DA000893709F04CC087E491E00E940A018AE586
:100DB0000E94DB0284E48093BC008091BC0087FF2A
:100DC000FCCF8091BB0084EC8093BC008091BC0080
:100DD00087FFFCCF4091BB0084EC8093BC008091E6
:100DE000BC0087FFFCCF0091BB0084E88093BC006F
:100DF0008091BC0087FFFCCF1091BB0080E88093FE
:100E0000BC0050E060E070E080E10E94FB01809156
:100E1000C00085FFFCCF89E08093C60088E591E0A3
:100E20000E940A01502F40E0410F511D662757FDD7
:100E30006095762F8AE00E94FB010E941F011F919E
:100E40000F91FF90089584E48093BC008091BC00D2
:100E500087FFFCCF8091BB001092BB0084EC809395
:100E6000BC008091BC0087FFFCCF86E58093BB006F
:100E700084E88093BC008091BC0087FFFCCF84E8AD
:100E80008093BC008091BC0081648093BC00089575
:100E900084E48093BC008091BC0087FFFCCF8091EC
:100EA000BB001092BB0084EC8093BC008091BC001E
:100EB00087FFFCCF8FE48093BB0084E88093BC0065
:100EC0008091BC0087FFFCCF80E88093BC00089530
:100ED00084E48093BC008091BC0087FFFCCF8091AC
:100EE000BB001092BB0084EC8093BC008091BC00DE
:100EF00087FFFCCF8DE48093BB0084E88093BC0027
:100F00008091BC0087FFFCCF80E88093BC000895EF
:100F100089E50E94DB0208951F920F920FB60F928F
:100F200011242F933F934F935F936F937F938F93EE
:100F30009F93AF93BF93EF93FF938091C60081E09F
:100F400061E545ED51E00E94FB02FF91EF91BF91F9
:100F5000AF919F918F917F916F915F914F913F9151
:100F60002F910F900FBE0F901F9018950F931F9306
:100F70008C01FC01808191810E94910AF80180819D
:100F800091810196918380831F910F9108950E9412
:100F9000910A0895EF92FF921F93CF93DF937C0104
:100FA000009711F09C010DC08CEF91E00E94890A1E
:100FB000182F8BEF91E00E94890A312F20E0280F33
:100FC000311DE901D695C795D695C795C901E3E0CE
:100FD00096958795EA95E1F7C827D927C227D327A1
:100FE000C90175E0969587957A95E1F7C827D927C5
:100FF000DD27C695D795CC2736952795C22BD32BC1
:10100000EF2851F48CEF91E06D2F0E94910A8BEF45
:1010100091E06C2F0E94910ACE01DF91CF911F9138
:10102000FF90EF90089580E090E00E94CA07BC0115
:10103000660F771F0E94D20383E062E67EE90E947A
:101040009A00F1CFEF92FF920F931F93CF93DF930C
:1010500004B603FE03C081E08093D401A89584B751
:10106000877F84BF809160008861809360001092C8
:10107000600082E08093BA0080917C00806480935D
:101080007C0085B78F7E85BF8AB18B778AB98BB19B
:1010900084688BB926982E9A85B78F7E85BF84B1D8
:1010A0008B7784B987B1887F87B98AB187788AB905
:1010B00085B1846885B988B1876088B98BB1886744
:1010C0008BB9609166008DEF91E00E94910A499B77
:1010D000FECF85E06CED0E946D008EEF91E00E94E6
:1010E000890A182F803150F0803F40F48FEF91E053
:1010F0000E94890A181711F4109366001092C1001B
:101100001092C50080E18093C40082E08093C0000B
:1011100088E18093C10086E08093C20081E090E086
:101120000E9474008091D401882309F04AC00E9473
:1011300041030E94230784E48093BC008091BC009B
:1011400087FFFCCF8091BB0084E88093BC00809136
:10115000BC0087FFFCCF8091BB00813079F580E82F
:101160008093BC0080E691E00E940A018091C0005B
:1011700087FFFCCF8091C600823361F0833318F47F
:101180008133F9F405C0833349F08433D1F413C0BB
:1011900080E301C081E30E94110613C00E94840411
:1011A0000E941F018091C00087FFFCCF8091C60084
:1011B0008837A1F706C00E94130803C080E8809317
:1011C000BC008091C10080688093C100789481E068
:1011D0008093D501C1E0D0E011E000E0BE01609550
:1011E0007095CE010E94D20386E090E00E947400C8
:1011F000CE01880F991F163020F4C82BD92B1F5F02
:1012000001C0EC010111C1607E010F2D001F0027FC
:10121000001FE4CF1F938CEF91E00E94890A182FE2
:1012200016951695982F96959695969519271827A1
:10123000982F92959F7019271795112717958695C6
:10124000182B8CEF91E0612F0E94910A812F1F9142
:1012500008951F93282F162F8EEF91E0622F0E9482
:10126000910A8FEF91E0612F0E94910A8EEF91E039
:101270000E94890A482F50E060E070E080E10E94FF
:10128000FB018091C00085FFFCCF80E28093C60007
:101290008FEF91E00E94890A482F50E060E070E0F3
:1012A00080E10E94FB011F9108950F931F93CF933C
:1012B000DF938C01EB018EEF91E00E94890AF80127
:1012C00080838FEF91E00E94890A8883F801408132
:1012D00050E060E070E080E10E94FB018091C0007E
:1012E00085FFFCCF80E28093C600488150E060E03B
:1012F00070E080E10E94FB01DF91CF911F910F917F
:101300000895CF93DF93EC01CE0121960E94890AC4
:10131000982F882339F08091C00085FFFCCF9093EF
:10132000C600F2CF0E941F01DF91CF910895FC010A
:101330008081918101969183808301970E94890A1F
:1013400008950E94890A08954F925F926F927F924A
:101350008F929F92AF92BF92CF92DF92EF92FF92C5
:101360000F931F93DF93CF93CDB7DEB74C017B0173
:101370004DB65EB6CB01880F991F2DB73EB7281B1F
:10138000390B0FB6F8943EBF0FBE2DBF8DB79EB779
:1013900001963C01AA24BB24CC24DD248301F30163
:1013A00020E030E007C02F5F3F4FC9018C0D9D1D2D
:1013B000819391932E153F05B4F3C501B701A301A5
:1013C0000E94AF0420E030E018C0D801ED91FC91FC
:1013D000E230F10574F0C401BF010E94250A892B97
:1013E00041F420E030E0E815F905C1F421E030E0F7
:1013F00015C02F5F3F4F0E5F1F4F2E153F052CF37B
:10140000CE0CDF1CC6018E199F098816990624F0A0
:101410000894A11CB11CC2CF20E030E0C9010FB676
:10142000F8945EBE0FBE4DBECF91DF911F910F911C
:10143000FF90EF90DF90CF90BF90AF909F908F90F4
:101440007F906F905F904F90089597FB092E07262D
:101450000AD077FD04D049D006D000201AF4709548
:1014600061957F4F0895F6F7909581959F4F089568
:10147000A1E21A2EAA1BBB1BFD010DC0AA1FBB1F98
:10148000EE1FFF1FA217B307E407F50720F0A21B0A
:10149000B30BE40BF50B661F771F881F991F1A9477
:1014A00069F760957095809590959B01AC01BD01A1
:1014B000CF01089597FB092E05260ED057FD04D0C5
:1014C000D7DF0AD0001C38F450954095309521950F
:1014D0003F4F4F4F5F4F0895F6F790958095709569
:1014E00061957F4F8F4F9F4F0895AA1BBB1B51E102
:1014F00007C0AA1FBB1FA617B70710F0A61BB70B84
:10150000881F991F5A95A9F780959095BC01CD0128
:101510000895F999FECF92BD81BDF89A992780B5BB
:101520000895262FF999FECF1FBA92BD81BD20BD27
:101530000FB6F894FA9AF99A0FBE01960895F894A6
:02154000FFCFDB
:101542000D0A0020452D0020452B000D0A41544D67
:1015520045474120333238002020202043616C204F
:10156200666163746F7220006572726F7220000D83
:101572000A517569636B2063616C3F2079206F7239
:1015820020414F4B0D0A0054656D702063616C2041
:10159200666163746F7220006572726F7220200040
:1015A2000D0A50726573730D0A3120666F72204FF7
:1015B200532076657273696F6E0D0A3220666F7200
:1015C2002073797374656D20646174610D0A332030
:1015D2004D6573736167652066726F6D207468650F
:1015E200204F5320287820746F20657363617065E3
:1015F200290D0A342044656661756C742070726F1F
:101602006A6563740D0A3020746F206573636170BC
:04161200650D0A0058
:00000001FF
