:100000000C9435000C945D000C945D000C945D0024
:100010000C945D000C945D000C9431020C945D0016
:100020000C945D000C945D000C945D000C945D00DC
:100030000C945D000C945D000C945D000C945D00CC
:100040000C945D000C945D000C94FF010C94D9019C
:100050000C945D000C945D000C945D000C945D00AC
:100060000C945D000C945D00A90211241FBECFEF1B
:10007000D4E0DEBFCDBF12E0A0E0B1E0EAE6FBE0F5
:1000800002C005900D92A034B107D9F722E0A0E498
:10009000B2E001C01D92A03EB207E1F710E0C5E357
:1000A000D0E004C02197FE010E94AD05C433D10702
:1000B000C9F70E94D6020C94B3050C940000AF92CD
:1000C000BF92CF92DF92EF92FF920F931F93CF9345
:1000D000DF936C017B018B01040F151FEB015E01A7
:1000E000AE18BF08C017D10759F06991D601ED913C
:1000F000FC910190F081E02DC6010995892B79F7DB
:10010000C501DF91CF911F910F91FF90EF90DF908C
:10011000CF90BF90AF900895FC01538D448D252F53
:1001200030E0842F90E0821B930B541710F0CF9691
:10013000089501970895FC01918D828D981761F0C3
:10014000A28DAE0FBF2FB11D5D968C91928D9F5FDA
:100150009F73928F90E008958FEF9FEF0895FC01B9
:10016000918D828D981731F0828DE80FF11D858D6C
:1001700090E008958FEF9FEF0895FC01918D228DFF
:10018000892F90E0805C9F4F821B91098F73992784
:100190000895FC01A48DA80FB92FB11DA35ABF4F1C
:1001A0002C91848D90E001968F739927848FA68976
:1001B000B7892C93A089B1898C91837080648C93CA
:1001C000938D848D981306C00288F389E02D808179
:1001D0008F7D80830895EF92FF920F931F93CF93AB
:1001E000DF93EC0181E0888F9B8D8C8D98131AC072
:1001F000E889F989808185FF15C09FB7F894EE8959
:10020000FF896083E889F9898081837080648083B5
:100210009FBF81E090E0DF91CF911F910F91FF9000
:10022000EF900895F62E0B8D10E00F5F1F4F0F73A8
:100230001127E02E8C8D8E110CC00FB607FCFACF63
:10024000E889F989808185FFF5CFCE010E94C90038
:10025000F1CFEB8DEC0FFD2FF11DE35AFF4FF08234
:100260009FB7F8940B8FEA89FB8980818062CFCF9A
:10027000CF93DF93EC01888D8823B9F0AA89BB89DD
:10028000E889F9898C9185FD03C0808186FD0DC0C8
:100290000FB607FCF7CF8C9185FFF2CF808185FFE9
:1002A000EDCFCE010E94C900E9CFDF91CF91089533
:1002B00084E88093BC008091BC0087FFFCCF8091D4
:1002C000BB0008958093BB0084E88093BC008091BC
:1002D000BC0087FFFCCF08958093BB0084EC809323
:1002E000BC008091BC0087FFFCCF0895CF92DF92C5
:1002F000EF92FF920F931F93CF93DF93C82F062F98
:10030000142FD52F84E48093BC008091BC0087FD1E
:1003100002C0A895FACF8091BB008C2F0E946C017F
:10032000802F0E946C01E12EFD2E10E000E00C2ECB
:10033000000CDD0B6E0181E0C81AD1080C171D07F7
:1003400074F4F70181917F01C016D10629F40E944F
:1003500062010F5F1F4FF2CF0E946C01FACF80E85D
:100360008093BC00DF91CF911F910F91FF90EF9090
:10037000DF90CF90089530E020E042EB55E046BD9D
:1003800055BDA89BFECFA89A15BCA8952F5F3F4FDF
:1003900082179307A1F70895FC0101900020E9F767
:1003A0003197AF01481B590BBC0183E492E00C94D8
:1003B0005F001F920F920FB60F9211242F933F935D
:1003C0004F935F936F937F938F939F93AF93BF935D
:1003D000EF93FF9383E492E00E94C900FF91EF91B5
:1003E000BF91AF919F918F917F916F915F914F914D
:1003F0003F912F910F900FBE0F901F9018951F9255
:100400000F920FB60F9211242F938F939F93EF9318
:10041000FF93E0915302F09154028081E0915902E0
:10042000F0915A0282FD1BC0908180915C028F5F27
:100430008F7320915D02821741F0E0915C02F0E041
:10044000ED5BFD4F958F80935C02FF91EF919F9143
:100450008F912F910F900FBE0F901F901895808154
:10046000F4CF1F920F920FB60F92112461E08AEF22
:1004700091E00E949F05FFCF84EC8093BC008091A7
:10048000BC0087FFFCCF8091BB000895CF92DF9224
:10049000EF92FF920F931F93CF93DF9300D0CDB7CE
:1004A000DEB789831A82AE014F5F5F4F60E581E05E
:1004B0000E94760184E48093BC008091BC0087FD9B
:1004C00002C0A895FACF8091BB000E943C02182F71
:1004D0000E943C02105300ED080F8AE0189F000DA7
:1004E0001124F12CE12C002E000C110B680181E08D
:1004F000C81AD108E016F1068CF4CE14DF0459F4C2
:100500000E945801682F83E492E00E94EB008FEF75
:10051000E81AF80AEFCF0E943C02F4CF80E88093FB
:10052000BC000F900F90DF91CF911F910F91FF9022
:10053000EF90DF90CF90089583E492E00E94BD0099
:10054000892B11F4A895F8CF83E492E00E949B00D8
:100550000895E3E4F2E01382128288EE93E0A0E0D3
:10056000B0E084839583A683B78384E091E0918390
:10057000808385EC90E09587848784EC90E0978772
:10058000868780EC90E0918B808B81EC90E0938B60
:10059000828B82EC90E0958B848B86EC90E0978B3D
:1005A000868B118E128E138E148E0895CF93DF9347
:1005B00000D000D0CDB7DEB704B603FE03C082E0A2
:1005C0008093420204B600FE03C081E080934202A1
:1005D00004B601FE03C083E0809342028091420290
:1005E000823049F48AEF91E00E949705811103C09F
:1005F00084E08093420280914202823049F48AEF83
:1006000091E00E949705813019F485E080934202C1
:100610006FEF8AEF91E00E949F0514BEA8958FB7F7
:1006200080934102F894809160008861809360001B
:100630001092600014BE809141028FBF82E08093CF
:10064000BA0080917C00806480937C0085B78F7EA7
:1006500085BF8AB18B778AB98BB184688BB92698AC
:100660002E9A83E084B985B78F7E85BF84B18B775E
:1006700084B987B1887F87B98AB187788AB985B10B
:10068000846885B988B1876088B98BB188678BB970
:10069000609166008DEF91E00E949F05499BFECF1F
:1006A00085E090E00E94BB018EEF91E00E949705EB
:1006B000182F80EF810F803E40F48FEF91E00E9471
:1006C0009705181302C010936600E0915302F09151
:1006D000540282E08083E0914F02F0915002108238
:1006E000E0915102F091520280E1808310925B020E
:1006F000E0915702F091580286E08083E091550224
:10070000F0915602808180618083E0915502F091E2
:100710005602808188608083E0915502F0915602F4
:10072000808180688083E0915502F091560280813B
:100730008F7D8083789419824A9B02C01E9989B16B
:100740004A9906C01E9904C04F9B02C081E089836C
:100750004A9906C01E9B04C04F9902C082E089835B
:100760004A9B06C01E9904C04F9902C083E089834A
:10077000AE014F5F5F4F61E581E00E94760181E04D
:1007800090E00E94BB0184E48093BC008091BC0097
:1007900087FD02C0A895FACF8091BB0080E00E943F
:1007A0006C0186E50E94620184E88093BC00809120
:1007B000BC0081648093BC0084E48093BC00809181
:1007C000BC0087FD02C0A895FACF8091BB000E94B3
:1007D0005801813009F0FBC080E88093BC0082E1C1
:1007E00091E00E94CC010E949C02823309F4BBC0BC
:1007F00044F5813309F4B3C0A8958FB780934102C3
:10080000F894809160008861809360008BE480930D
:10081000600014BE809141028FBF809142028230FD
:1008200009F41EC10CF0D7C0813009F4F9C010E002
:1008300083E492E00E94BD00892B09F016C1A895BF
:10084000F7CF833309F491C08433B1F688E199E09E
:100850000FB6F894A895809360000FBE9093600047
:100860008CEF91E00E94970581110BC08BEF91E016
:100870000E949705811105C06FEF8CEF91E00E94F7
:100880009F05F12C10E000E0AEE9EA2EB2E6DB2E87
:10089000CC24CA9483E0B82EC801F11012C000978E
:1008A00081F48CEF91E00E949705182F8BEF91E077
:1008B0000E949705212F30E0322F2227820F932F9D
:1008C000911D8C01169507959C01369527953695B7
:1008D0002795AC0163E0569547956A95E1F7242783
:1008E00035272827392775E0969587957A95E1F77A
:1008F000822793279927869597958827082B192B68
:10090000F3942FEFF21212C0612F8CEF91E00E944E
:100910009F05602F8BEF91E00E949F0585B1982F76
:100920009270F92E81FF4DC02998F12CC801880FD3
:10093000991F09831A838B839C83AE014F5F5F4F9E
:1009400061E084E00E947601E0928500D09284000C
:10095000C6BAB0928100B09936C0A895FCCF80E3AA
:100960000E94460249CF81E3FBCF1092400294E4FB
:10097000F92E00E8F092BC008091BC0087FD02C017
:10098000A895FACF8091BB0080E00E946C0188E4BA
:100990000E9462010093BC00F092BC008091BC00F8
:1009A00087FD02C0A895FACF8091BB000E943C024F
:1009B000882309F49AC0682F83E492E00E94EB0038
:1009C000F5CF299AB3CFB09A1092810065CF80E815
:1009D0008093BC0011CF833009F4A6C0853009F0A4
:1009E00026CF8AEE91E00E94CC019FE728E381E0C8
:1009F000915020408040E1F700C00000F894A89595
:100A00008FB780934102F894809160008861809351
:100A100060001092600014BE809141028FBFFFCF32
:100A200086E891E00E94CC0110E000E082E3E82E2D
:100A3000F12C83E492E00E94BD00892B09F068C08C
:100A40000F5F1F4FA89501342FE112072CF081E0B2
:100A5000E81AF10810E000E0E114F10451F7E0CFEA
:100A600081EE91E00E94CC01E2CE83E492E00E940C
:100A70009B00883644F4813674F58053883008F042
:100A8000D7CE182FD5CE883709F0D2CE81E689830C
:100A90001A82AE014F5F5F4F62E082E00E947601F2
:100AA000A8958FB780934102F89480916000886187
:100AB000809360001092600014BE809141028FBF4D
:100AC00088E199E00FB6F894A895809360000FBE76
:100AD00090936000FFCF89831A83AE014F5F5F4F11
:100AE00063E082E00E947601A3CE0E945801009349
:100AF000BC008CE392E00E94CC01109140021F5F89
:100B0000109340020E949C0213300CF433CF74CE39
:100B100083E492E00E949B008F7D823509F080CFB4
:100B20008CE392E00E94CC018DE891E09BCFF99993
:100B3000FECF92BD81BDF89A992780B50895262FE2
:100B4000F999FECF1FBA92BD81BD20BD0FB6F894B2
:100B5000FA9AF99A0FBE01960895EE0FFF1F0590BD
:0A0B6000F491E02D0994F894FFCF02
:100B6A0000000000EB005F008C003801BD009B0014
:100B7A00AF000D0A50726573730D0A3120666F72E9
:100B8A00204F532076657273696F6E0D0A322066A4
:100B9A006F722073797374656D20646174610D0AD4
:100BAA0033204D6573736167652066726F6D2074BB
:100BBA006865204F5320287820746F20657363611D
:100BCA007065290D0A342044656661756C7420705D
:100BDA00726F6A6563740D0A3020746F20657363DF
:100BEA006170650D0A00523F20202020000D0A4640
:100BFA006F72206561636820646967697420707226
:100C0A00657373203020746F2037207468656E20F6
:100C1A006120746F206720666F72207365676D6547
:100C2A006E74732E205072657373207820746F204F
:100C3A00726573657420646973706C61792E0D0A2C
:100C4A00000D0A416761696E21000D0A5744546F0D
:100C5A007574207769746820696E7465727275702C
:100C6A0074206F636375727265640D0A412077643C
:100C7A007228292073746174656D656E74206973B6
:100C8A002070726F6261626C79206E65656465645A
:100C9A0020736F6D652077686572652E0D0A0000F6
:00000001FF
