:100000000C9435000C945D000C945D000C945D0024
:100010000C945D000C945D000C945D000C945D00EC
:100020000C945D000C945D000C945D000C945D00DC
:100030000C945D000C945D000C945D000C945D00CC
:100040000C942E040C945D000C949E040C94780483
:100050000C945D000C945D000C945D000C945D00AC
:100060000C945D000C945D00D00411241FBECFEFF2
:10007000D4E0DEBFCDBF22E0ACE1B2E001C01D9212
:10008000A63CB207E1F712E0A0E0B1E0E6ECFBE14C
:1000900002C005900D92AC31B107D9F710E0C5E36D
:1000A000D0E004C02197FE010E94DB0DC433D107CC
:1000B000C9F70E94FD040C94E10D0C940000AF926E
:1000C000BF92CF92DF92EF92FF920F931F93CF9345
:1000D000DF936C017B018B01040F151FEB015E01A7
:1000E000AE18BF08C017D10759F06991D601ED913C
:1000F000FC910190F081E02DC6010995892B79F7DB
:10010000C501DF91CF911F910F91FF90EF90DF908C
:10011000CF90BF90AF900895FC01538D448D252F53
:1001200030E0842F90E0821B930B541710F0CF9691
:10013000089501970895FC01918D828D981761F0C3
:10014000A28DAE0FBF2FB11D5D968C91928D9F5FDA
:100150009F73928F90E008958FEF9FEF0895FC01B9
:10016000918D828D981731F0828DE80FF11D858D6C
:1001700090E008958FEF9FEF0895FC01918D228DFF
:10018000892F90E0805C9F4F821B91098F73992784
:100190000895FC01A48DA80FB92FB11DA35ABF4F1C
:1001A0002C91848D90E001968F739927848FA68976
:1001B000B7892C93A089B1898C91837080648C93CA
:1001C000938D848D981306C00288F389E02D808179
:1001D0008F7D80830895EF92FF920F931F93CF93AB
:1001E000DF93EC0181E0888F9B8D8C8D98131AC072
:1001F000E889F989808185FF15C09FB7F894EE8959
:10020000FF896083E889F9898081837080648083B5
:100210009FBF81E090E0DF91CF911F910F91FF9000
:10022000EF900895F62E0B8D10E00F5F1F4F0F73A8
:100230001127E02E8C8D8E110CC00FB607FCFACF63
:10024000E889F989808185FFF5CFCE010E94C90038
:10025000F1CFEB8DEC0FFD2FF11DE35AFF4FF08234
:100260009FB7F8940B8FEA89FB8980818062CFCF9A
:10027000682F89E292E00C94EB00CF93DF93EC01BE
:10028000888D8823B9F0AA89BB89E889F9898C917E
:1002900085FD03C0808186FD0DC00FB607FCF7CF3A
:1002A0008C9185FFF2CF808185FFEDCFCE010E943A
:1002B000C900E9CFDF91CF9108958093BB0084E816
:1002C0008093BC008091BC0087FFFCCF0895809391
:1002D000BB0084EC8093BC008091BC0087FFFCCF06
:1002E0000895CF92DF92EF92FF920F931F93CF93D7
:1002F000DF93C82F062F142FD52F84E48093BC00E2
:100300008091BC0087FFFCCF8091BB008C2F0E94A6
:100310006701802F0E946701E12EFD2E10E000E0B2
:100320000C2E000CDD0B6E0181E0C81AD1080C17F1
:100330001D0774F4F70181917F01C016D10629F4DD
:100340000E945D010F5F1F4FF2CF0E946701FACF3D
:1003500080E88093BC00DF91CF911F910F91FF90B7
:10036000EF90DF90CF900895CF92DF92EF92FF92BF
:100370000F931F93CF93DF93FA01DC01CB014BE284
:10038000B7FF02C0BF774DE2E90148838C019D01B0
:1003900047E135952795179507954A95D1F70F575A
:1003A00011090138DFEF1D07C9F00F5F1F4F1183DF
:1003B000008337E0880F991FAA1FBB1F3A95D1F71A
:1003C0008078BF73B064BC01CD01DF91CF911F91E4
:1003D0000F91FF90EF90DF90CF90089550E040E0B4
:1003E0000097A105B10519F411830083ECCFB6FD88
:1003F00007C0880F991FAA1FBB1F4F5F5F4FF7CF22
:100400002AE83FEF241B350B31832083DCCF0F9389
:100410001F93E22F43382FEF5207E4F136E0969511
:100420008795779567953A95D1F76F5F7F4F8F4F97
:100430009F4F96958795779567958F778A01025894
:100440001F4F012E000C220B330BA7E1000F111FD1
:10045000221F331FAA95D1F7602B712B822B932B70
:10046000ED3209F490681F910F91089529E83FEF4C
:10047000241B350B04C096958795779567952A952B
:10048000D2F76F5F7F4F8F4F9F4F969587957795E8
:100490006795E6CF4E362FEF520744F72AE83FEF35
:1004A000241B350B04C096958795779567952A95FB
:1004B000D2F7D6CF2F923F924F925F926F927F9258
:1004C0008F929F92AF92BF92CF92DF92EF92FF9264
:1004D0000F931F93CF93DF9300D01F92CDB7DEB75A
:1004E0006B017C0129013A01DC01CB01B05CB7FD55
:1004F00005C0DA01C901B05CB7FF15C062E0862E05
:10050000912CA12CB12CC701B601A50194010E9428
:10051000BC0D69017A01C301B201A50194010E94D9
:10052000BC0D29013A01F7FC05C077FC89C02BE21C
:10053000298304C077FCFBCF8DE289838EE090E0B5
:100540009B838A83812C912C540101E010E0C70128
:10055000B601660F771F881F991FA30192010E94A1
:10056000BC0DFB01232B242B252B79F0A8010A803D
:1005700002C0440F551F0A94E2F7052E000C660BCB
:10058000770B842A952AA62AB72A6F017C018A81D3
:100590009B8101979B838A830196C9F65401992414
:1005A00088248FE090E09B838A8310E000E022247F
:1005B0002394312CC701B601660F771F881F991F3E
:1005C000A30192010E94BC0D232B242B252B49F063
:1005D00091010A8002C0220F331F0A94E2F7022B16
:1005E000132B6B017C018A819B8101979B838A83FA
:1005F000019601F7C501B401600F711F811D911DA6
:1006000029812D3239F490958095709561957F4FB1
:100610008F4F9F4F0F900F900F90DF91CF911F91B1
:100620000F91FF90EF90DF90CF90BF90AF909F9091
:100630008F907F906F905F904F903F902F90089594
:100640009DE299837BCFAC0164E088E00C9471015A
:100650000F931F93CF93DF938C01D0E0C0E089E22A
:1006600092E00E94BD00892B79F42196A895C134AF
:100670008FE1D807A4F30150110979F780E0DF91E9
:10068000CF911F910F91089581E0F9CF30E020E0E4
:1006900042EB55E046BD55BDA89BFECFA89A15BCC0
:1006A000A8952F5F3F4F82179307A1F70895FC018C
:1006B00001900020E9F73197AF01481B590BBC01AD
:1006C00089E292E00C945F00009711F00C945703BC
:1006D00090E080E008958F929F92AF92BF920F9327
:1006E0001F93CF93DF93CDB7DEB7A1970FB6F894E2
:1006F000DEBF0FBECDBF19A2423008F44AE08E0122
:100700000F5D1F4F842E912CB12CA12CA5019401BB
:100710000E949A0DE62FB901CA01EA30D4F4E05DD7
:10072000D801EE938D01232B242B252B79F7CD01B6
:100730000E946403A1960FB6F894DEBF0FBECDBF32
:10074000DF91CF911F910F91BF90AF909F908F90AD
:100750000895E95CE5CFDC01CB01009720E8A20712
:100760002FE7B20779F482E191E00E94640388E107
:1007700099E00FB6F894A895809360000FBE90930F
:100780006000FFCF009720E8A2072FEFB20779F4AF
:1007900086E291E00E94640388E199E00FB6F89444
:1007A000A895809360000FBE90936000FFCF0097E4
:1007B000A105B10579F48AE391E00E94640388E120
:1007C00099E00FB6F894A895809360000FBE9093BF
:1007D0006000FFCF0097A105B04879F48EE491E066
:1007E0000E94640388E199E00FB6F894A89580937D
:1007F00060000FBE90936000FFCF0895CF92DF920C
:10080000EF92FF92CF93DF936C01990FEE08FF08F0
:10081000F7FE19C06DE289E292E00E94EB00EC0164
:1008200066277727CB016C197D098E099F094AE05D
:100830000E946B038C0F9D1FDF91CF91FF90EF9073
:10084000DF90CF9008954AE0C701B601DF91CF91C4
:10085000FF90EF90DF90CF900C946B031F920F925C
:100860000FB60F9211242F933F938F939F93AF93C3
:10087000BF938091250290912602A0912702B0910A
:1008800028023091240223E0230F2D3758F50196DA
:10089000A11DB11D2093240280932502909326026E
:1008A000A0932702B0932802809120029091210208
:1008B000A0912202B09123020196A11DB11D809347
:1008C000200290932102A0932202B0932302BF91B1
:1008D000AF919F918F913F912F910F900FBE0F90ED
:1008E0001F90189526E8230F0296A11DB11DD2CFA7
:1008F0001F920F920FB60F9211242F933F934F9395
:100900005F936F937F938F939F93AF93BF93EF9377
:10091000FF9389E292E00E94C900FF91EF91BF919D
:10092000AF919F918F917F916F915F914F913F9187
:100930002F910F900FBE0F901F9018951F920F923E
:100940000FB60F9211242F938F939F93EF93FF93E2
:10095000E0913902F0913A028081E0913F02F091FA
:10096000400282FD1BC09081809142028F5F8F7395
:1009700020914302821741F0E0914202F0E0E75DEE
:10098000FD4F958F80934202FF91EF919F918F9140
:100990002F910F900FBE0F901F9018958081F4CF6C
:1009A000E9E2F2E01382128288EE93E0A0E0B0E088
:1009B00084839583A683B78384E091E091838083C9
:1009C00085EC90E09587848784EC90E09787868714
:1009D00080EC90E0918B808B81EC90E0938B828B0C
:1009E00082EC90E0958B848B86EC90E0978B868BE5
:1009F000118E128E138E148E0895CF93DF93CDB780
:100A0000DEB7A5970FB6F894DEBF0FBECDBF04B614
:100A100003FE03C082E080931F0204B600FE03C001
:100A200081E080931F0204B601FE03C083E080933F
:100A30001F0280911F02823049F48CEF91E00E94E6
:100A40004B0C811103C084E080931F0280911F0230
:100A5000823049F48CEF91E00E944B0C813019F404
:100A600085E080931F026FEF8CEF91E00E94530CA2
:100A700014BEA89584B7877F84BF80916000886189
:100A8000809360001092600082E08093BA008091B1
:100A90007C00806480937C0085B78F7E85BF8AB19F
:100AA0008B778AB98BB184688BB926982E9A83E0AC
:100AB00084B985B78F7E85BF84B18B7784B987B1C0
:100AC000887F87B98AB187788AB985B1846885B902
:100AD00088B1876088B98BB188678BB960916600EF
:100AE0008DEF91E00E94530C499BFECF85E090E092
:100AF0000E9446038EEF91E00E944B0C182F80EF6E
:100B0000810F803E40F48FEF91E00E944B0C181350
:100B100002C010936600E0913902F0913A0282E03F
:100B20008083E0913502F09136021082E091370225
:100B3000F091380280E1808310924102E0913D0201
:100B4000F0913E0286E08083E0913B02F0913C020E
:100B5000808180618083E0913B02F0913C02808142
:100B600088608083E0913B02F0913C028081806844
:100B70008083E0913B02F0913C0280818F7D8083F5
:100B800078941E99C4C081E089839E012F5F3F4FF6
:100B90006901A90161E581E00E94710181E090E0B5
:100BA0000E94460384E48093BC008091BC0087FFD0
:100BB000FCCF8091BB0080E00E94670186E50E9427
:100BC0005D0184E88093BC008091BC0081648093C7
:100BD000BC0084E48093BC008091BC0087FFFCCF04
:100BE0008091BB0084E88093BC008091BC0087FFAB
:100BF000FCCF8091BB00813009F091C080E88093E8
:100C0000BC0088E199E00FB6F894A8958093600045
:100C10000FBE909360008CEF91E00E944B0C81110D
:100C20000BC08BEF91E00E944B0C811105C06FEF60
:100C30008CEF91E00E94530CF12C10E000E0AEE943
:100C4000EA2EB2E6BB2EAA24AA9483E0982EC8010D
:100C5000F11011C0009779F48CEF91E00E944B0CD9
:100C6000082F8BEF91E00E944B0C10E0102F002713
:100C7000800F912F911D9C01369527958C0116951B
:100C8000079516950795AC0163E0569547956A95CB
:100C9000E1F7042715270827192775E0969587950A
:100CA0007A95E1F708271927112706951795002748
:100CB000022B132BF3943FEFF31212C0612F8CEF32
:100CC00091E00E94530C602F8BEF91E00E94530C37
:100CD00085B1482F4270F42E81FF1BC02998F12C5A
:100CE000C801880F991F09831A838B839C83A601EF
:100CF00061E084E00E947101E0928500B09284007E
:100D0000A6BA90928100B09906C0A895FCCF19822E
:100D10003CCF299AE5CFB09A1092810098CF80E815
:100D20008093BC0080911F028230D9F484E092E06D
:100D30000E94640310921F021F8A188E198E1A8E49
:100D40001B8E5601CE014596F60111928E179F0714
:100D5000E1F789E292E00E94BD00892B59F4A89541
:100D6000F8CF82E691E00E9464038DE991E00E9451
:100D70006403E2CF89E292E00E949B0090ED980F1D
:100D80009A3010F08D3229F78983C6010E9423031F
:100D900000E010E0760153E1E50EF11C88E090E000
:100DA0000E9428038823D1F389E292E00E949B00ED
:100DB0008D3019F08A3009F04CC081E090E00E943B
:100DC0002803882321F089E292E00E949B0081E6BB
:100DD0008C8F1D8E7E018CE1E80EF11CA70162E074
:100DE00082E00E9471019FEFE1EEF4E09150E0405B
:100DF000F040E1F700C00000C6010E942303112368
:100E000009F458C081E0811B8F8FD601FD01EC19D8
:100E1000FD091D911111FACFBF016C0D7D1DD60189
:100E2000960120953095AD014C195D09C901860FD9
:100E3000971F481759070CF03FC08D91FB01929105
:100E4000BF01AD0141505109FA019083FB0180833C
:100E5000EACF982F9F7D20ED280F2A3040F0883070
:100E600031F023ED280F223010F0953491F42981D0
:100E70002E3209F411E0953499F0883091F4F6019E
:100E800081818193EE16FF06D9F71C8AC6010E9464
:100E90002303112309F482CF011180CF1F5F7ECF7E
:100EA00001E0FE01749692919183CE16DF06D9F788
:100EB0008983ECCF1F8EA9CF90E080E0F601E80F88
:100EC000F91F20812F7D253469F41082FC013196B1
:100ED000EC0DFD1DDE01579621912D93EA16FB06C0
:100EE000D9F7059601968431910544F3CE014796D2
:100EF0000E94C50A8DA3D601F0E0E0E08D918E320C
:100F000021F03196E431F105C9F7EC0DFD1D80812A
:100F10008E3241F4CF018C199D0943971CF48181D5
:100F20008193F8CF09810D3279F5C6014396F50119
:100F3000218121935F018E179F07C9F7C6010E9487
:100F4000E30A6BA37CA36C019B01AC01712C612CA7
:100F5000812C912C5401839482E0282E312C412C39
:100F6000512C211531054105510581F0FFEF6F1A14
:100F70007F0A880C991CAA1CBB1CCA01B901A201DA
:100F800091010E94BC0DEDCF0BE2D8CFA5019401D9
:100F90006BA17CA1C6010E945A02812C912C5401A4
:100FA000611571058105910509F471C0CF8C2DA1E2
:100FB000C20E202FA3010E9407029701AE01495ED5
:100FC0005F4F0E94B4013F89288D1C14BCF5432F4C
:100FD000522FB12CA12C0C2C000CDD08AC14BD043C
:100FE0000CF021C19A0149012F5F3F4F663646E65A
:100FF0007407840794072CF09595879577956795E6
:10100000F2CF26E636E6A9010E945A0250E885167C
:1010100091045CF4EFE78E16910439F0A4014D5F62
:101020005F4FFEE78F16910429F460E070E0CB017A
:1010300041E850E02FEFA21AB20AD0CFA32EB22E71
:10104000CC20D9F0912C812CDD24C1940CF4D094C7
:101050008C149D0484F4950159012F5F3F4F611555
:101060007105810540E594070CF4C6C095958795F8
:1010700077956795F1CFB88EAF8A4F89588D2C8DB3
:101080000E9407024B015C010E8F0E94AB039E0180
:10109000225E3F4FA701C501B4010E94B4016F8FCA
:1010A00078A389A39AA38C8D9D8D0E94FE0386E070
:1010B00092E00E946403EE24E394F12C412C512C25
:1010C000612C70E8772ED301C2010E2C04C0B695B6
:1010D000A795979587950A94D2F72F8D38A149A1A6
:1010E0005AA182239323A423B523892B8A2B8B2BEC
:1010F00009F4A6C081E390E00E9438013FEFE31AB3
:10110000F30A49E1E416F10409F090C08AE092E0A4
:101110000E94640375016401B12CA12C412C512C57
:10112000612C50E8752EC501877F019721F480E27C
:1011300090E00E943801D301C2010A2C04C0B69588
:10114000A795979587950A94D2F78C219D21AE217A
:10115000BF21892B8A2B8B2B09F475C081E390E08A
:101160000E9438015FEFA51AB50A80E2A816B10403
:10117000D1F686E092E00E9464034C8D5D8D2E8D49
:101180006F8D78A189A19AA10E9407024B015C0191
:101190000E94AB0320E030E0A901C501B4010E9428
:1011A000270B87FF53C0B7FAB094B7F8B0949DE20D
:1011B0009F8F20E030E040E85FE3C501B4010E946A
:1011C000900D00E07501640187FD43C020E030E030
:1011D00040E251E4C701B6010E94900D87FD53C063
:1011E00020E030E040E251E4C701B6010E94E80C83
:1011F0006B017C010F5FEACF20E030E040E050E57A
:101200000E945A0224E030E051E6A5165FEFB506D1
:101210001CF0E1E0AE1AB10821503109A9F7FFEF47
:101220008F1A9F0A15CF588F4F8B27CF22E0E216D7
:10123000F10409F048CF80E290E00E94380143CFEA
:1012400080E390E059CF80E390E08ACFEBE2EF8F2C
:10125000B0CF20E030E040E251E4C701B6010E9487
:101260008D0B362E472E582E692E20E030E040E2BE
:1012700051E40E94270B87FF06C00150C32CD42CD9
:10128000E52CF62CE6CFFF8DFD3221F4F7FAF09431
:10129000F7F8F094A7019601C701B6010E94950DD9
:1012A000882389F18FE092E00E945703002349F0E0
:1012B00085E490E00E943801802F000F990B0E9476
:1012C000FE038DE090E00E94380120E030E040E82D
:1012D0005FE3C501B4010E94900D7501640187FDB3
:1012E0009FC020E030E040E251E4C701B6010E9417
:1012F000E80C6B017C011F5F20E030E040E85FE319
:101300000E94900DECCF26013701E89477F82FEF7B
:101310003FEF4FE75FE7C301B2010E94950D8111D6
:101320000DC02FEF3FEF4FE75FE7C301B2010E940F
:10133000270B18161CF483E192E0B6CF2FEF3FEF96
:101340004FE75FE4C701B6010E94900D18161CF428
:1013500087E192E0A9CF2FEF3FEF4FE75FECC701A6
:10136000B6010E94270B87FDF3CF20E030E0A901F2
:10137000C701B6010E94270B87FF09C06DE289E211
:1013800092E00E94EB00F7FAF094F7F8F0942CEB5F
:1013900037E346E055E3C701B6010E947C0C6B01C0
:1013A0007C010E94610D2B013C010E942C0B9B01D2
:1013B000AC01C701B6010E947B0C6B017C014AE0C5
:1013C000C301B2010E946B036EE289E292E00E94C7
:1013D000EB0047E0642E6A94662009F467CF20E0B2
:1013E00030E040E251E4C701B6010E948D0B1B01C1
:1013F0002C010E94610D6B01F12CE12C4AE0C70128
:10140000B6010E946B03C701B6010E942C0B9B0121
:10141000AC01C201B1010E947B0C6B017C01DBCFEE
:101420002DEC3CEC4CEC5DE3C501B4010E94270BB4
:1014300087FF0AC02DEC3CEC4CEC5DE3C701B60124
:101440000E94270B87FD25C0812C912C5401839489
:10145000C701B6010E945A0D0E942E0B9B01AC01E0
:10146000C701B6010E94270B8823F9F020E030E085
:1014700040E251E4C701B6010E948D0B6B017C0173
:10148000AAE0B0E0A50194010E94610C4B015C014F
:10149000DFCF20E030E040E251E4C701B6010E9416
:1014A0008D0B6B017C011150C5CF2F8D2D3221F496
:1014B000F7FAF094F7F8F094C701B6010E945A0DBC
:1014C000A50194010E945A029F8B888F798F6A8FA1
:1014D0001B8FAE01495E5F4F6BE485E00E94710196
:1014E00080916B0080931E0280916D0080931D029D
:1014F00080E380931C0280916D008478843821F011
:1015000080916B0086FF0AC080916B008F7B809377
:101510006B0080916D008B7780936D0080E3F82ED7
:1015200091E3E92E22E3D22E04E410E81E992AC0AA
:10153000E0921C024A9BD0921C020093BC00809156
:10154000BC0087FFFCCF8091BB0080911C020E94F1
:101550005D011093BC0080911C02823339F78091A9
:101560001E0280936B0080911D0280936D0088E1C4
:1015700099E00FB6F894A895809360000FBE909301
:101580006000FFCFF0921C02D5CFFC01882799277D
:10159000E89421912032E9F3293010F02E30C8F37D
:1015A0002B3241F02D3239F4689404C00E941F0B95
:1015B000820F911D219120532A30C0F31EF4909583
:1015C00081959F4F08951F93FC0199278827BC019F
:1015D000E89411911032E9F3193010F01E30C8F37D
:1015E0001B3251F01D3249F4689406C00E940A0B68
:1015F000610F711D811D911D119110531A30B0F3AF
:101600003EF490958095709561957F4F8F4F9F4FD9
:101610001F910895592F482F372F262F660F771FB8
:10162000881F991F660F771F881F991F620F731FEE
:10163000841F951F660F771F881F991F08957AE0F2
:10164000979F902D879F802D910D112408950E94C2
:10165000690B08F481E00895E89409C097FB3EF413
:1016600090958095709561957F4F8F4F9F4F9923EF
:10167000A9F0F92F96E9BB279395F695879577956D
:101680006795B795F111F8CFFAF4BB0F11F460FF2D
:101690001BC06F5F7F4F8F4F9F4F16C0882311F085
:1016A00096E911C0772321F09EE8872F762F05C099
:1016B000662371F096E8862F70E060E02AF09A9534
:1016C000660F771F881FDAF7880F9695879597F929
:1016D0000895990F0008550FAA0BE0E8FEEF1616C3
:1016E0001706E807F907C0F012161306E407F50716
:1016F00098F0621B730B840B950B39F40A2661F08A
:10170000232B242B252B21F408950A2609F4A1402C
:10171000A6958FEF811D811D08950E94A00B0C944A
:10172000110C0E94030C38F00E940A0C20F0952343
:1017300011F00C94FA0B0C94000C11240C94450C31
:101740000E94220C70F3959FC1F3950F50E0551F36
:10175000629FF001729FBB27F00DB11D639FAA2706
:10176000F00DB11DAA1F649F6627B00DA11D661F55
:10177000829F2227B00DA11D621F739FB00DA11D76
:10178000621F839FA00D611D221F749F3327A00D30
:10179000611D231F849F600D211D822F762F6A2FCC
:1017A00011249F5750409AF0F1F088234AF0EE0F31
:1017B000FF1FBB1F661F771F881F91505040A9F75E
:1017C0009E3F510580F00C94FA0B0C94450C5F3F42
:1017D000E4F3983ED4F3869577956795B795F7959A
:1017E000E7959F5FC1F7FE2B880F911D9695879512
:1017F00097F9089597F99F6780E870E060E0089591
:101800009FEF80EC089500240A9416161706180618
:101810000906089500240A941216130614060506F4
:101820000895092E0394000C11F4882352F0BB0F85
:1018300040F4BF2B11F460FF04C06F5F7F4F8F4FE8
:101840009F4F089557FD9058440F551F59F05F3F23
:1018500071F04795880F97FB991F61F09F3F79F0D2
:1018600087950895121613061406551FF2CF469554
:10187000F1DF08C0161617061806991FF1CF8695D6
:101880007105610508940895E894BB2766277727BA
:10189000CB0197F90895F999FECF92BD81BDF89AD1
:1018A000992780B50895262FF999FECF1FBA92BDCA
:1018B00081BD20BD0FB6F894FA9AF99A0FBE019631
:1018C00008950E946C0CA59F900DB49F900DA49F4D
:1018D000800D911D11240895A29FB001B39FC001F6
:1018E000A39F700D811D1124911DB29F700D811D4C
:1018F0001124911D08955058BB27AA270E94930CCC
:101900000C94110C0E94030C38F00E940A0C20F079
:1019100039F49F3F19F426F40C94000C0EF4E09572
:10192000E7FB0C94FA0BE92F0E94220C58F3BA172C
:10193000620773078407950720F079F4A6F50C94E5
:10194000440C0EF4E0950B2EBA2FA02D0B01B9011B
:1019500090010C01CA01A0011124FF27591B99F025
:10196000593F50F4503E68F11A16F040A22F232F31
:10197000342F4427585FF3CF469537952795A79581
:10198000F0405395C9F77EF41F16BA0B620B730B28
:10199000840BBAF09150A1F0FF0FBB1F661F771F99
:1019A000881FC2F70EC0BA0F621F731F841F48F44E
:1019B000879577956795B795F7959E3F08F0B0CFD7
:1019C0009395880F08F09927EE0F979587950895BE
:1019D0000E94FC0C0C94110C0E940A0C58F00E94FE
:1019E000030C40F029F45F3F29F00C94FA0B5111DD
:1019F0000C94450C0C94000C0E94220C68F3992363
:101A0000B1F3552391F3951B550BBB27AA276217FA
:101A10007307840738F09F5F5F4F220F331F441F07
:101A2000AA1FA9F335D00E2E3AF0E0E832D091503B
:101A30005040E695001CCAF72BD0FE2F29D0660F28
:101A4000771F881FBB1F261737074807AB07B0E86B
:101A500009F0BB0B802DBF01FF2793585F4F3AF071
:101A60009E3F510578F00C94FA0B0C94450C5F3FA7
:101A7000E4F3983ED4F3869577956795B795F795F7
:101A80009F5FC9F7880F911D9695879597F90895DF
:101A9000E1E0660F771F881FBB1F6217730784077B
:101AA000BA0720F0621B730B840BBA0BEE1F88F78A
:101AB000E09508950E94610D6894B1110C94450C55
:101AC00008950E942A0C88F09F5798F0B92F992703
:101AD000B751B0F0E1F0660F771F881F991F1AF019
:101AE000BA95C9F714C0B13091F00E94440CB1E02E
:101AF00008950C94440C672F782F8827B85F39F02D
:101B0000B93FCCF3869577956795B395D9F73EF4B1
:101B100090958095709561957F4F8F4F9F4F089559
:101B20000E94690B08F48FEF08950E94690B880BDF
:101B3000990B0895A1E21A2EAA1BBB1BFD010DC033
:101B4000AA1FBB1FEE1FFF1FA217B307E407F5076D
:101B500020F0A21BB30BE40BF50B661F771F881F49
:101B6000991F1A9469F760957095809590959B01DF
:101B7000AC01BD01CF010895052E97FB1EF4009422
:101B80000E94D30D57FD07D00E949A0D07FC03D089
:101B90004EF40C94D30D50954095309521953F4FC0
:101BA0004F4F5F4F089590958095709561957F4F49
:101BB0008F4F9F4F0895EE0FFF1F0590F491E02D7A
:061BC0000994F894FFCF28
:101BC60000000000EB005F008C003D01BD009B00A3
:101BD600AF002B7665204E756D20746F6F206C619B
:101BE6007267650D0A002D7665204E756D20746F3F
:101BF6006F206C617267650D0A002B7665204E7545
:101C06006D20746F6F20736D616C6C0D0A002D76FC
:101C160065204E756D20746F6F20736D616C6C0D51
:101C26000A000D0A456E74657220736369656E74E9
:101C360069666963206E756D62657220262074651B
:101C4600726D696E61746520776974682052657477
:101C560075726E206B65792E0D0A0D0A0045787037
:101C66006F6E656E7420616E64206C6F6E67206E99
:101C7600756D626572207573656420666F7220618A
:101C8600726974686D6574696309526573756C74FD
:101C9600696E6720666C6F6174696E6720706F6924
:101CA6006E7420726570726573656E746174696FA7
:101CB6006E09094E756D62657220726573746F7276
:101CC60065640D0A3F002020090020200920006ECF
:0C1CD600616E00696E66006F76660000AB
:00000001FF
