:100000000C9434000C9451000C9451000C94510049
:100010000C9451000C9451000C9451000C9451001C
:100020000C9451000C9451000C9451000C9451000C
:100030000C9451000C9451000C9451000C945100FC
:100040000C9451000C9451000C9451000C945100EC
:100050000C9451000C9451000C9451000C945100DC
:100060000C9451000C94510011241FBECFEFD4E02A
:10007000DEBFCDBF11E0A0E0B1E0E8E8F4E102C0EE
:1000800005900D92A43CB107D9F711E0A4ECB1E0C2
:1000900001C01D92A73CB107E1F70E942E080C9405
:1000A000420A0C94000020E030E003C000002F5F03
:1000B0003F4F82179307D4F7089566BD85BDA89B6F
:1000C000FECFA89A15BC08950F931F93CF93DF938B
:1000D0008C01C0E0D0E005C085E062EB0E945D00CD
:1000E0002196C017D107C4F3DF91CF911F910F91D3
:1000F0000895EEE6F0E090819160908366BD85BD45
:100100000895EFE6F0E080818160808382E0809353
:100110008100089570938500609384009FEF96BBE3
:1001200080938100B09BFECFB09A10928100089519
:100130000F931F93182F062F85E062EF7CEF0E942C
:100140008A00E1ECF0E010821093C5000093C40037
:1001500082E08093C00088E1808386E08093C200C3
:100160001F910F910895EFE6F0E0908191609083E8
:10017000709385006093840080938100089560935C
:10018000B2008093B100B89BFECFB89A1092B10034
:1001900008958091C00087FFFCCF08958091C00032
:1001A00087FFFCCF8091C60008958091C600089516
:1001B000982F20E030E00DC02F5F3F4F8FE12134BA
:1001C00038071CF0915020E030E0992311F480E0D2
:1001D00008958091C00087FFEFCF81E0089580915E
:1001E000C00087FFFCCF8091C6008D3011F08A30AF
:1001F00051F481E00E94D800882311F48DE0089525
:100200008091C6008DE0089585E00E94D80081307D
:1002100019F48091C600F8CF0895982F8091C000FE
:1002200085FFFCCF9093C6000895AC0120E030E03C
:10023000FA01E20FF31FE081EE2359F02F5F3F4FE9
:100240008091C00085FFFCCFE093C600283C3105BB
:1002500079F7089580E091E00E94150108951F93B9
:100260001EE285E00E94D800813049F48091C600EA
:100270008091C00085FFFCCF1093C600F2CF0E9492
:100280002A011F9108952F923F924F925F926F9291
:100290007F928F929F92AF92BF92CF92DF92EF9216
:1002A000FF920F931F93CF93DF93EC015A016B01E1
:1002B000403080E0580780E0680780E8780751F513
:1002C0002A3021F0203109F06CC014C028E32883C3
:1002D00094E3998386E38A8383E38B832C839D83D2
:1002E00087E38E839F8381E3888782E389878DE21A
:1002F0008A870EC080E3888389838A838B838C837B
:100300008D838E8388E38F838DE2888719861A8692
:100310001B8647C080E090E0FE01E80FF91F1082C5
:1003200001968C309105C1F786017501D7FE07C093
:10033000EE24FF248701EA18FB080C091D094E0171
:1003400066247724222E332444245524C801B7017F
:10035000A20191010E94FD09F40160836A3010F44A
:10036000605D02C0695CF40160830894611C711CCB
:10037000C801B701A20191010E94FD09C901DA017A
:100380007C018D010894811C911C1E141F04100611
:100390001106E4F2D7FE05C06C0E7D1E8DE2F3015E
:1003A0008083DF91CF911F910F91FF90EF90DF90AD
:1003B000CF90BF90AF909F908F907F906F905F9005
:1003C0004F903F902F900895AC0120E030E002C0A4
:1003D0002F5F3F4FFA01E20FF31F80818823C1F79F
:1003E00021503040FA01E20FF31F2F5F3F4F0AC048
:1003F00090818091C00085FFFCCF9093C600215072
:10040000304031972115310599F708950F931F93C7
:10041000DF93CF93CDB7DEB72C970FB6F894DEBF3E
:100420000FBECDBF282F8E010F5F1F4FC8010E9446
:100430004301C8010E94E4012C960FB6F894DEBF78
:100440000FBECDBFCF91DF911F910F91089590E026
:1004500080538A3008F491E0892F0895803328F082
:100460008A3328F08154863010F080E0089581E0CE
:1004700008951F93182F87FF10C083E091E00E941A
:100480001501412F552747FD5095509541955F4FD8
:10049000662757FD6095762F0AC087E091E00E949D
:1004A0001501412F552747FD5095652F752F8AE07F
:1004B0000E9406021F910895AF92BF92CF92DF92E1
:1004C000EF92FF920F931F93CF93DF937A018B01EB
:1004D00060E070E0FC01E60FF71F10826F5F7F4F56
:1004E0006C307105B9F7EC01A22EBB24CC24DD24BD
:1004F000C801B701A60195010E94DB0968836A3033
:1005000010F4605D01C0695C6883C801B701A60191
:1005100095010E94DB09C901DA017C018D01219658
:10052000E114F1040105110519F7DF91CF911F9135
:100530000F91FF90EF90DF90CF90BF90AF90089514
:100540000F931F93DF93CF93CDB7DEB72C970FB6E2
:10055000F894DEBF0FBECDBF282F8E010F5F1F4F57
:10056000C8010E945C02C8010E94E4012C960FB6EB
:10057000F894DEBF0FBECDBFCF91DF911F910F91D9
:10058000089584E48093BC008091BC0087FFFCCF79
:100590008091BB001092BB0084EC8093BC008091E2
:1005A000BC0087FFFCCF86E48093BB0084E8809387
:1005B000BC008091BC0087FFFCCF84E88093BC0026
:1005C0008091BC0081648093BC000895982F84E4DE
:1005D0008093BC008091BC0087FFFCCF8091BB0062
:1005E0001092BB0084EC8093BC008091BC0087FF1C
:1005F000FCCF9093BB0084E88093BC008091BC004A
:1006000087FFFCCF80E88093BC000895782F84E4B6
:100610008093BC008091BC0087FFFCCF8091BB0021
:100620007093BB0084EC8093BC008091BC0087FF7A
:10063000FCCF6093BB0084EC8093BC008091BC0035
:1006400087FFFCCFFA0120E030E0472F50E0BA01ED
:1006500061507040A4EC94E818C0808126173707D9
:1006600049F48093BB009093BC008091BC0087FF4D
:10067000FCCF08C08093BB00A093BC008091BC005D
:1006800087FFFCCF2F5F3F4F3196241735072CF3A0
:1006900080E88093BC0008950F931F93DF93CF935E
:1006A00000D0CDB7DEB71A828BE091E00E94150131
:1006B0008E010F5F1F4F8091C00087FFFCCF80919C
:1006C000C600883741F08053898381E06CE4A8013B
:1006D0000E940603F0CF198281E06CE4A8010E9419
:1006E00006038AE391E00E9415018091C00087FF14
:1006F000FCCF8091C6000F900F90CF91DF911F919A
:100700000F910895DF93CF9300D0CDB7DEB7982F28
:100710004A83698382E0692FAE014F5F5F4F0E9479
:1007200006030F900F90CF91DF910895DF93CF9341
:1007300000D0CDB7DEB789836A8382E065E0AE0181
:100740004F5F5F4F0E9406030F900F90CF91DF9194
:100750000895DF93CF9300D0CDB7DEB7982F69838C
:1007600081E0692FAE014F5F5F4F0E9406030F903B
:100770000F90CF91DF910895982FAB0188E0692FFA
:100780000E9406030895AC0188E067E40E94060316
:100790000895982FAB0188E0692F0E940603089501
:1007A000AC0188E064E00E9406030895DF93CF93D4
:1007B00000D0CDB7DEB781E689831A8282E062E09D
:1007C000AE014F5F5F4F0E9406030F900F90CF91D5
:1007D000DF910895DF93CF9300D0CDB7DEB7898343
:1007E0006A8382E063E0AE014F5F5F4F0E940603C1
:1007F0000F900F90CF91DF910895DF93CF9300D0AA
:1008000000D0CDB7DEB74C81FB815A81E98120E071
:1008100030E02130310581F02230310524F42115FA
:10082000310541F00EC02230310541F02330310551
:1008300041F406C0E82F05C0592F03C0F62F01C0B0
:10084000472F2F5F3F4F2430310519F74C83FB832F
:100850005A83E98384E061E0AE014F5F5F4F0E94FD
:1008600006030F900F900F900F90CF91DF91089596
:100870000F931F93DF93CF930F92CDB7DEB71982FB
:1008800080E090E005C001962AEE80369207E1F004
:100890001A9BF9CF19C0822F90E001968370907057
:1008A000282F8823A9F0898381E061E5A8010E94AF
:1008B00006038CEC9CEC63E373E30E94FD0382E38C
:1008C00090E00E94640003C08E010F5F1F4F2981DA
:1008D0001A9BE1CF0F90CF91DF911F910F91089557
:1008E0008093BB0084EC8093BC008091BC0087FFA8
:1008F000FCCF08958093BB0084E88093BC00809176
:10090000BC0087FFFCCF089584EC8093BC008091ED
:10091000BC0087FFFCCF8091BB00089584E88093E2
:10092000BC008091BC0087FFFCCF8091BB00089584
:10093000CF93DF93FC01EB0184E48093BC008091B2
:10094000BC0087FFFCCF8091BB0020E030E054EC7E
:100950005093BC008091BC0087FFFCCF4091BB004E
:1009600037FD20C02330310524F023303105D1F488
:100970000DC080819181A281B381840F911DA11D41
:10098000B11DBA2FA92F982F882708C08081918187
:10099000A281B381840F911DA11DB11D808391831C
:1009A000A283B3832F5F3F4F2430310589F684E85B
:1009B0008093BC008091BC0087FFFCCF8091BB007E
:1009C000888380E88093BC00DF91CF91089584E410
:1009D0008093BC008091BC0087FFFCCF8091BB005E
:1009E0001092BB0084EC8093BC008091BC0087FF18
:1009F000FCCF88E48093BB0084E88093BC008091A6
:100A0000BC0087FFFCCF80E88093BC0084E4809327
:100A1000BC008091BC0087FFFCCF8091BB0024EC20
:100A20002093BC008091BC0087FFFCCF9091BB005D
:100A3000992339F08091C00085FFFCCF9093C600C8
:100A4000EFCF84E88093BC008091BC0087FFFCCF8F
:100A50008091BB0080E88093BC000895AF92BF9264
:100A6000CF92DF92EF92FF920F931F93CF93DF937A
:100A70005A010196689F7001699FF00C789FF00CF5
:100A800011240197689F8001699F100D789F100DB8
:100A9000112462E070E04CEF5FEF6801C094D094E5
:100AA00031C02F5F3F4FE60FF71FCF01861B970B1B
:100AB00008171907B4F7260F371F269FD001279F65
:100AC000B00D369FB00D1124EB01CC0FDD1F9D0141
:100AD0002C0D3D1D220F331F2A0D3B1D05C0F901B2
:100AE000E40FF51F11821082A60FB71F2C0F3D1FB8
:100AF000CD01861B970BE816F9068CF76F5F7F4FC9
:100B000042505040669FC001679F900D769F900DA8
:100B100011248E159F0524F4FC0120E030E0C3CFA2
:100B2000DF91CF911F910F91FF90EF90DF90CF90C9
:100B3000BF90AF900895AF92BF92CF92DF92EF92A5
:100B4000FF920F931F93CF93DF936A010196689FE3
:100B50007001699FF00C789FF00C11240197689F39
:100B60008001699F100D789F100D112462E070E0E4
:100B7000CCEFDFEF5801A094B0943CC04F5F5F4FC3
:100B8000F901260F371FC901861B970B0817190794
:100B9000ACF73197E01BF10BEE0FFF1FEC0DFD1DC5
:100BA00080819181892B19F1460F571F469FD001F3
:100BB000479FB00D569FB00D1124AB01440F551F38
:100BC0009D012A0D3B1D220F331F2C0D3D1D05C01D
:100BD000F901EC0FFD1F11821082A60FB71F240F21
:100BE000351FCD01861B970BE816F9068CF76F5F52
:100BF0007F4F2297669FC001679F900D769F900D53
:100C000011248E159F0524F49C0140E050E0B8CFDC
:100C1000DF91CF911F910F91FF90EF90DF90CF90D8
:100C2000BF90AF9008954F925F926F927F928F9294
:100C30009F92AF92BF92CF92DF92EF92FF920F936B
:100C40001F93DF93CF93CDB7DEB764970FB6F894B9
:100C5000DEBF0FBECDBF3C01CC24DD24EE24FF243B
:100C60004E010894811C911C45E1442E512C4C0EE0
:100C70005D1E5401C7010196F40181939193019681
:100C8000E415F505D1F7C6016AE070E0A4010E9401
:100C90002E0500E010E002C00F5F1F4FF5018191AB
:100CA00091915F01892BC1F3F801EE0FFF1FE80D51
:100CB000F91D0EC0208131812230310534F0C3018D
:100CC000B9010E94C809892B99F00F5F1F4F329616
:100CD0000B3011057CF36E147F0444F00894C11CA2
:100CE000D11C8AE090E0E80EF91EC3CF20E030E08E
:100CF000C90164960FB6F894DEBF0FBECDBFCF9189
:100D0000DF911F910F91FF90EF90DF90CF90BF90F8
:100D1000AF909F908F907F906F905F904F900895CD
:100D2000DF93CF9300D0CDB7DEB789831A8281E0FD
:100D300060E5AE014F5F5F4F0E94060384E480933D
:100D4000BC008091BC0087FFFCCF8091BB0084EC8D
:100D50008093BC008091BC0087FFFCCF9091BB00CA
:100D600084EC8093BC008091BC0087FFFCCF209175
:100D7000BB0020518AE0989FC0011124280F40E059
:100D800050E030E0B90161507040F4ECE4E820C07C
:100D90004617570769F4E093BC008091BC0087FFB9
:100DA000FCCF9091BB008091C00085FFFCCF0CC0B0
:100DB000F093BC008091BC0087FFFCCF9091BB00FA
:100DC0008091C00085FFFCCF9093C6004F5F5F4FBE
:100DD00042175307ECF280E88093BC000F900F900D
:100DE000CF91DF910895FF920F931F9388E50E94A2
:100DF000E60284E48093BC008091BC0087FFFCCFB6
:100E00008091BB0084EC8093BC008091BC0087FF84
:100E1000FCCF1091BB0084EC8093BC008091BC009F
:100E200087FFFCCFF090BB0084E88093BC008091EA
:100E3000BC0087FFFCCF0091BB0080E88093BC0022
:100E40008EE391E00E9415018BE491E00E94150170
:100E5000412F50E060E070E080E10E940602809146
:100E6000C00085FFFCCF89E08093C6008BE591E050
:100E70000E9415015F2D40E0400F511D662757FD70
:100E80006095762F8AE00E94060282E691E00E9439
:100E900015018091C00087FFFCCF8091C600893783
:100EA00009F04CC08AE791E00E9415018AE50E9492
:100EB000E60284E48093BC008091BC0087FFFCCFF5
:100EC0008091BB0084EC8093BC008091BC0087FFC4
:100ED000FCCF4091BB0084EC8093BC008091BC00AF
:100EE00087FFFCCF0091BB0084E88093BC00809119
:100EF000BC0087FFFCCF1091BB0080E88093BC0052
:100F000050E060E070E080E10E9406028091C00045
:100F100085FFFCCF89E08093C6008BE891E00E94BA
:100F20001501502F40E0410F511D662757FD609578
:100F3000762F8AE00E9406020E942A011F910F91DB
:100F4000FF90089584E48093BC008091BC0087FFEB
:100F5000FCCF8091BB001092BB0084EC8093BC005E
:100F60008091BC0087FFFCCF86E58093BB0084E8BE
:100F70008093BC008091BC0087FFFCCF84E8809305
:100F8000BC008091BC0081648093BC00089584E41F
:100F90008093BC008091BC0087FFFCCF8091BB0098
:100FA0001092BB0084EC8093BC008091BC0087FF52
:100FB000FCCF8FE48093BB0084E88093BC008091D9
:100FC000BC0087FFFCCF80E88093BC00089584E4D8
:100FD0008093BC008091BC0087FFFCCF8091BB0058
:100FE0001092BB0084EC8093BC008091BC0087FF12
:100FF000FCCF8DE48093BB0084E88093BC0080919B
:10100000BC0087FFFCCF80E88093BC00089589E591
:101010000E94E6020895CF93DF93EC01CE01219662
:101020000E942C0A982F882339F08091C00085FFF8
:10103000FCCF9093C600F2CF0E942A01DF91CF919E
:101040000895FC01808191810196918380830197AD
:101050000E942C0A08950E942C0A08950F931F9352
:10106000CF93DF9304B603FE03C081E08093C401F5
:10107000A89584B7877F84BF809160008861809342
:1010800060001092600082E08093BA0080917C0042
:10109000806480937C0085B78F7E85BF8AB18B7713
:1010A0008AB98BB184688BB922982A9A85B78F7ECA
:1010B00085BF84B18F7384B987B1887F87B98AB1BE
:1010C00087788AB985B1806C85B988B1876088B91D
:1010D0008BB188678BB985E090E00E94640080E066
:1010E00060E10E9498008CEF93E00E942C0A8093AC
:1010F000C60180FF08C081E08093C60184EF93E0C1
:1011000060E00E94340A84EF93E00E942C0A80344D
:1011100099F4C0E0D0E080E091E00E9415012196B2
:10112000CA30D105C1F783E991E00E94150184EF2F
:1011300093E061E40E94340A84EF93E00E942C0A59
:10114000682F86FF07C0606884EF93E00E94340A2E
:101150000C9430360E943804C1E0D0E001E010E089
:10116000CE01BE010E94FD0386E090E00E94640073
:10117000CC0FDD1F0F5F1F4F0131110589F729E0EB
:1011800088E190E00FB6F894A895809360000FBEB8
:1011900020936000FFCFEF92FF921F93CF93DF93D6
:1011A0007C01009711F09C010DC083EF93E00E9439
:1011B0002C0A182F82EF93E00E942C0A312F20E096
:1011C000280F311DE901D695C795D695C795C90158
:1011D000F3E096958795FA95E1F7C827D927C227B6
:1011E000D327C901E5E096958795EA95E1F7C827E9
:1011F000D927DD27C695D795CC2736952795C22BBD
:10120000D32BEF2851F483EF93E06D2F0E94340A23
:1012100082EF93E06C2F0E94340ACE01DF91CF91D0
:101220001F91FF90EF9008951F9383EF93E00E942A
:101230002C0A182F16951695982F96959695969593
:1012400019271827982F92959F70192717951127FE
:1012500017958695182B83EF93E0612F0E94340A2F
:10126000812F1F9108950F931F938C01FC018081A2
:1012700091810E94340AF8018081918101969183C5
:1012800080831F910F9108950E94340A08954F9210
:101290005F926F927F928F929F92AF92BF92CF9206
:1012A000DF92EF92FF920F931F93DF93CF93CDB70F
:1012B000DEB74C017B014DB65EB6CB01880F991F9E
:1012C0002DB73EB7281B390B0FB6F8943EBF0FBEA3
:1012D0002DBF8DB79EB701963C01AA24BB24CC2418
:1012E000DD248301F30120E030E007C02F5F3F4F92
:1012F000C9018C0D9D1D819391932E153F05B4F36B
:10130000C501B701A3010E942E0520E030E018C0FE
:10131000D801ED91FC91E230F10574F0C401BF01F8
:101320000E94C809892B41F420E030E0E815F90556
:10133000C1F421E030E015C02F5F3F4F0E5F1F4F1B
:101340002E153F052CF3CE0CDF1CC6018E199F090C
:101350008816990624F00894A11CB11CC2CF20E085
:1013600030E0C9010FB6F8945EBE0FBE4DBECF91FE
:10137000DF911F910F91FF90EF90DF90CF90BF9082
:10138000AF909F908F907F906F905F904F90089557
:1013900097FB092E07260AD077FD04D049D006D046
:1013A00000201AF4709561957F4F0895F6F7909597
:1013B00081959F4F0895A1E21A2EAA1BBB1BFD0128
:1013C0000DC0AA1FBB1FEE1FFF1FA217B307E40724
:1013D000F50720F0A21BB30BE40BF50B661F771F7C
:1013E000881F991F1A9469F760957095809590955C
:1013F0009B01AC01BD01CF01089597FB092E052685
:101400000ED057FD04D0D7DF0AD0001C38F4509519
:101410004095309521953F4F4F4F5F4F0895F6F718
:1014200090958095709561957F4F8F4F9F4F089550
:10143000AA1BBB1B51E107C0AA1FBB1FA617B707FA
:1014400010F0A61BB70B881F991F5A95A9F7809516
:101450009095BC01CD010895F999FECF92BD81BD53
:10146000F89A992780B50895262FF999FECF1FBACB
:1014700092BD81BD20BD0FB6F894FA9AF99A0FBEBD
:0814800001960895F894FFCFD6
:101488000D0A0020452D0020452B000D0A53656EDE
:1014980064203020746F203720746F2061646A756F
:1014A800737420696E74657276616C207820776831
:1014B800656E20646F6E650D0A00414B3F000D0A92
:1014C80041544D45474120333238002020202043E5
:1014D800616C20666163746F7220006572726F724E
:1014E80020000D0A517569636B2063616C3F207998
:1014F800206F7220414F4B0D0A0054656D702063B8
:10150800616C20666163746F7220006572726F721D
:1015180020200050726F6A65637420636F6D6D657B
:101528006E746172793A2050726573732027582758
:1015380020746F20657363617065206F7220414F5E
:041548004B0D0A003D
:00000001FF
