:100000000C9434000C9451000C9451000C94510049
:100010000C9451000C9451000C9451000C9451001C
:100020000C9451000C94B40F0C9451000C9451009A
:100030000C9451000C942E100C9451000C9451000F
:100040000C94BA040C9451000C940B0D0C945100B8
:100050000C9451000C9451000C9451000C945100DC
:100060000C9451000C94510011241FBECFEFD4E02A
:10007000DEBFCDBF12E0A0E0B1E0E6E1F3E302C0F5
:1000800005900D92AC32B107D9F712E0ACE2B2E0C4
:1000900001C01D92A63BB107E1F70E94DC140C944D
:1000A00089190C9400000000000000000000089571
:1000B00090919902809137029817D1F3E0919902BB
:1000C000F0E0EE0FFF1FE25CFD4FE081E0939B024A
:1000D000809199028F5F80939902809199028F712C
:1000E000809399028E2FE7FD8F5F85958093300274
:1000F0008091A70280311CF481E08093A802E093F4
:10010000A70290919902809137029817D1F3E0915C
:100110009902F0E0EE0FFF1FE25CFD4F80819181BC
:10012000209199022F5F20939902209199022F71BB
:100130002093990262E070E00E9423199B01709362
:100140008D0260938C0260919102709192026F5FB8
:100150007F4F70939202609391028091330290914D
:1001600034022817390751F12115310549F1409121
:1001700038025091390242235323E091AA02F091B0
:10018000AB022091AC023091AD022E0F3F1F24171D
:1001900035072CF481E0809384021092A00242176C
:1001A000530729F41092840281E08093A0024E1735
:1001B0005F0731F4109284021092A00210929A020A
:1001C00063FF03C085B1836002C085B18C7F85B9B0
:1001D000089520918C0230918D0230933402209347
:1001E00033028091380290913902822393239093B5
:1001F000AB028093AA02A901481B590B5093A40299
:100200004093A3024091A3025091A40240938F0215
:100210002770209385028091AC02841B8093350265
:10022000089590919902809137029817D1F3E09147
:100230009902F0E0EE0FFF1FE25CFD4F808191819B
:100240009093870280938602809199028F5F8093BA
:100250009902809199028F7180939902089584EC9C
:100260008093BC008091BC0087FFFCCF8091BB00D5
:10027000089584E88093BC008091BC0087FFFCCF88
:100280008091BB0008951092850010928400109216
:1002900081001092B1008091B60080FDFCCF1092D9
:1002A000B0008091B60081FDFCCF1092B200809129
:1002B000B60084FDFCCF089581E08093B100809169
:1002C000B60080FDFCCF81E0809381000895362F39
:1002D000823019F486E024E007C0853019F48FE0FD
:1002E0002AE002C082E021E010929602109295026C
:1002F0001092B0021092B1021092B2021092B302A8
:10030000E82FF0E080919502909196028E179F075A
:10031000CCF310929602109295026091B002709107
:10032000B1028091B2029091B302332349F497FF56
:1003300007C090958095709561957F4F8F4F9F4F27
:1003400030E040E050E00E943619CA01B90108953A
:100350008F929F92AF92BF92CF92DF92EF92FF92D5
:100360000F931F93CF93DF937B01EA0149015C0157
:10037000CC24B7FCC094DC2C19C0F7018081809399
:10038000660082E060E00E946701F401608371838F
:10039000828393836A157B058C059D0554F0F701D4
:1003A00080818150808388818F5F888388818431B8
:1003B00020F38881843128F480916600F8018083DD
:1003C00004C0F801808180936600DF91CF911F9176
:1003D0000F91FF90EF90DF90CF90BF90AF909F90E4
:1003E0008F9008951F93142F883419F08C3421F4C2
:1003F00006C0E0E0F8E405C0E0E0F0E002C0E0E0C4
:10040000F0E4B091A6025B2F5095A09190024A2F84
:10041000409520E030E085B1852385B9CF01022EDB
:1004200002C0880F991F0A94E2F797FF03C085B1B5
:100430008A2B02C085B1842385B985B18B2B85B900
:1004400000000000000000002F5F3F4F2031310509
:1004500011F720E030E085B1852385B9CB01022E6C
:1004600002C0880F991F0A94E2F787FF03C085B185
:100470008A2B02C085B1842385B985B18B2B85B9C0
:1004800000000000000000002F5F3F4F28303105C2
:1004900011F720E030E0612F70E085B1852385B948
:1004A000CB01022E02C0880F991F0A94E2F787FF42
:1004B00003C085B18A2B02C085B1842385B985B17B
:1004C0008B2B85B900000000000000002F5F3F4F1C
:1004D0002830310511F785B1582355B91F9108957A
:1004E0000E9411016091A3027091A4028CE44091DA
:1004F00086020E94F2016091A3027091A4024091D1
:10050000870288E40E94F201089566BD85BDA89B1C
:10051000FECFA89A15BC08950F931F93CF93DF9336
:100520008C01C0E0D0E005C085E062EB0E9485024E
:100530002196C017D107C4F3DF91CF911F910F917E
:100540000895CF92DF92EF92FF920F931F93CF9374
:10055000DF93582FE42E8C3479F08D3428F48834CE
:1005600049F0893429F40CC08F3461F0873531F0BB
:1005700080E009C088E207C080E205C08CE403C0C7
:1005800080EC01C080EA4091A602A42FA095B09112
:1005900090020B2F009520E030E0E82FF0E085B1CD
:1005A0008A2385B9CF01022E02C0880F991F0A94B1
:1005B000E2F787FF03C085B18B2B02C085B1802392
:1005C00085B985B1842B85B90000000000000000CA
:1005D0002F5F3F4F2830310511F720E030E085B123
:1005E0008A2385B9CB01022E02C0880F991F0A9475
:1005F000E2F797FF03C085B18B2B02C085B1802342
:1006000085B985B1842B85B9000000000000000089
:100610002F5F3F4F2031310511F7F0908E0210E02F
:1006200027E030E06E2D70E0C7E0D0E0E1E0F0E0E0
:1006300085B18A2385B9593471F4CE01821B930B9D
:100640006B0102C0CC0CDD1C8A95E2F7C7FE03C02B
:1006500085B18B2B02C085B1802385B985B1842BF0
:1006600085B9000000000000000083B18F2141F037
:10067000CF01022E02C0880F991F0A94E2F7182BAF
:10068000215030408FEF2F3F380791F685B1A823D6
:10069000A5B9573511F0593421F485E06CED0E946D
:1006A0008502812FDF91CF911F910F91FF90EF90E5
:1006B000DF90CF900895BC0187E540E00E94A10241
:1006C0001092A90208951F9311E050C0809130024A
:1006D0008150809330021093A9020E947002809191
:1006E000A3029091A40201969093A4028093A30286
:1006F000809133029091340201969093340280935A
:10070000330280913502815080933502809131020D
:10071000909132020196909332028093310220919F
:10072000A3023091A4028091AC029091AD022817EF
:100730003907E1F46091AA027091AB0287E540E0CD
:100740000E94A1021092A9021092A4021092A30288
:100750008091AC02809335028091850280938F0254
:1007600080918502882311F010939A0280913002C3
:10077000882309F0ABCF1F9108958F929F92AF927B
:10078000BF92CF92DF92EF92FF920F931F93CF937E
:10079000DF93EC016B01A0E0B0E0DC019927882732
:1007A0009B0140E050E0280F391F4A1F5B1FF0906B
:1007B000A6027F2D709500919002E02EE094E0E07B
:1007C000F0E085B1872385B9CE010E2E02C0880FD7
:1007D000991F0A94E2F797FF03C085B1802B02C0EE
:1007E00085B18E2185B985B18F2985B900000000BA
:1007F000000000003196E031F10519F760918E029A
:1008000010E0E0E0F0E0AFE0B0E0C1E0D0E087E091
:10081000A82EB12C85B1872385B9C6010E2E02C042
:10082000880F991F0A94E2F797FF03C085B1802BC8
:1008300002C085B18E2185B985B18F2985B90000A7
:10084000000000000000203080E0380780E048070A
:1008500080E5580709F45EC0213080E0380780E069
:10086000480780E55807E0F4203081E0380780E051
:10087000480780E3580709F44DC0203082E038076C
:1008800080E0480780E3580709F444C0203080E046
:10089000380780E0480780E3580709F04DC03AC0A8
:1008A000203080E0380780E0480788E55807B1F13C
:1008B000213080E0380780E0480788E5580748F491
:1008C000203080E0380788E0480780E55807A1F528
:1008D00021C0203080E0380788E0480788E55807C5
:1008E000C9F0203080E0380783E548078CEA5807D4
:1008F00019F5E830F10504F583B18623E9F0C50167
:100900008E1B9F0B4E0102C0880C991C8A95E2F742
:10091000C40111C0E830F1057CF003C0EA30F105F4
:100920005CF083B1862341F0CE010A2E02C0880F0D
:10093000991F0A94E2F7182B31961197E031F105CF
:1009400009F068CF85B1782375B985E067EB0E941F
:100950008502812FDF91CF911F910F91FF90EF9032
:10096000DF90CF90BF90AF909F908F90089566BD1D
:1009700085BD08951F920F920FB60F9211248F9389
:1009800081E080932E0215BC8F910F900FBE0F90C7
:100990001F90189570938500609384009FEF96BB1D
:1009A00080938100B09BFECFB09A10928100089591
:1009B00090916E00916090936E0066BD85BD8091B0
:1009C0002E028823E1F310922E0280916E008E7F1A
:1009D00080936E0008958091C00087FFFCCF8091C6
:1009E000C60008958091C6000895AC0120E030E073
:1009F0000FC02F5F3F4F8FE0213A380724F041505E
:100A0000504020E030E04115510511F480E0089598
:100A10008091C00087FFEDCF81E0089582E090E0F3
:100A20000E94F504813019F48091C600F7CF089533
:100A3000982F8091C00085FFFCCF9093C600089549
:100A4000AC0120E030E0FA01E20FF31FE081EE2379
:100A500059F02F5F3F4F8091C00085FFFCCFE0939E
:100A6000C600283C310579F7089580E091E00E94A6
:100A70002005089583E091E00E94200508951F93CA
:100A80001EE285E090E00E94F504813049F48091F7
:100A9000C6008091C00085FFFCCF1093C600F1CF47
:100AA0000E943A051F9108950F931F93182F062F48
:100AB00085E064E60E948502E1ECF0E0108210938C
:100AC000C5000093C40082E08093C00088E1808369
:100AD00086E08093C2001F910F910895EF92FF92DC
:100AE0000F931F93CF93DF93F82EEB018A01E22E31
:100AF00080E0482F4F5FF801E80FF11DCE016F2D08
:100B000070E00E940F1980838A3010F4805D01C06C
:100B1000895C8083CE016F2D70E00E940F19EB017C
:100B20006115710511F0842FE4CF443078F48AE523
:100B3000E81661F4842F90E306C0F801E80FF11D78
:100B400090838F5F4F5F8430C0F301C0842FF80122
:100B5000E80FF11D1082342F315020E00CC0D80175
:100B6000A20FB11D9C91F801E30FF11D80818C93C0
:100B700090832F5F3150231790F3DF91CF911F9116
:100B80000F91FF90EF9008950F931F93DF93CF93F2
:100B900000D000D000D0CDB7DEB78E010F5F1F4F61
:100BA000A8012AE50E946E05C8010E94200586E082
:100BB00091E00E94200526960FB6F894DEBF0FBE86
:100BC000CDBFCF91DF911F910F9108951F93A82F53
:100BD000262F10E0FA01E10FF11D822F6A2F0E94EB
:100BE000031990839A3010F4905D01C0995C908352
:100BF000312F3F5F822F6A2F0E940319282F8823ED
:100C000011F0132FE7CFFA01E30FF11D108220E05E
:100C10000BC0DA01A20FB11D9C91FA01E80FF11D82
:100C200080818C9390832F5F812F821B281788F3FC
:100C30001F9108950F931F93DF93CF9300D000D09F
:100C4000CDB7DEB78E010F5F1F4FA8010E94E605EA
:100C5000C8010E94200586E091E00E9420050F90C7
:100C60000F900F900F90CF91DF911F910F910895EA
:100C7000982F8A53873038F0903328F080E09734EB
:100C800018F081E0089581E008951F93CF93DF93DA
:100C9000EC011881812F0E943806882301F5898193
:100CA0000E9438068823D9F4812F805388838131AC
:100CB00010F01753188398812981822F80538983DC
:100CC000813110F0275329838981292F30E044E0B6
:100CD000220F331F4A95E1F7280F311D02C020E093
:100CE00030E0C901DF91CF911F9108951F93DF93E9
:100CF000CF9300D000D000D0CDB7DEB7BC0197FDB8
:100D000002C01BE204C0709561957F4F1DE28AE02E
:100D1000AE014F5F5F4F2EE40E946E051D3231F42D
:100D20008091C00085FFFCCF8DE205C08091C0009E
:100D300085FFFCCF80E28093C600CE0101960E9421
:100D4000200580E091E00E94200526960FB6F894D9
:100D5000DEBF0FBECDBFCF91DF911F91089520E080
:100D600030E008C02F5F3F4F8AE32939380711F47C
:100D700080E008958091C00087FFF4CF8091C60085
:100D80000895AF92BF92CF92DF92EF92FF920F93AE
:100D90001F93DF93CF930F92CDB7DEB77C0173E043
:100DA000A72EB12C00E010E06CE0C62ED12CF7018C
:100DB0009081992369F40894A11CB11CAA0CBB1C56
:100DC000AA0CBB1C02C015950795AA94E2F728C08F
:100DD000892F99830E94380699818823F9F4892FF5
:100DE0008053F7018083813110F097539083F7018E
:100DF00081917F0190E00C2C02C0880F991F0A940A
:100E0000E2F7080F191F8CEF9FEFC80ED91EA1142F
:100E1000B10431F00894A108B108C9CF00E010E096
:100E2000C8010F90CF91DF911F910F91FF90EF902C
:100E3000DF90CF90BF90AF900895FC0180818B32FE
:100E400041F08D3219F020E030E048C040E050E041
:100E500013C020E030E02BC0CA01A3E0880F991F27
:100E6000AA95E1F7440F551F840F951F422F50E0BC
:100E700040535040480F591F21813196822F805393
:100E80008A3050F322273327241B350B2CC0C9018D
:100E900063E0880F991F6A95E1F7220F331F820FD5
:100EA000931F242F30E020533040280F391F4181F9
:100EB0003196842F80538A3050F315C0C901B3E0B6
:100EC000880F991FBA95E1F7220F331F820F931FE6
:100ED000242F30E020533040280F391F4191842FB8
:100EE00080538A3058F3C90108958F929F92AF9230
:100EF000BF92CF92DF92EF92FF920F931F93CF9307
:100F0000DF936C015B014A0179018091C00087FF8A
:100F1000FCCF8091C600823219F4C0E0D0E064C0FA
:100F20008091C00087FFFCCF8091C600C0E0D0E078
:100F3000882311F0C1E0D0E020E030E006C02F5F50
:100F40003F4F8AE329393807B9F38091C00087FF02
:100F5000F6CF8091C600882379F32196823261F71B
:100F600043C02F5F3F4FEAE329393E0711F420E0E9
:100F700030E08091C00087FFF4CF2091C60022238B
:100F8000B1F32196223209F48BC0F5018081918161
:100F90008C179D0754F52A3011F02D3081F4F7019C
:100FA00020813181F801E20FF31F3197808188237E
:100FB00029F421503040F7013183208320E0F701EC
:100FC00080819181F801E80FF91F20830196F701D4
:100FD000918380838F3F910544F02D3031F022239F
:100FE00021F0F401408301C041E0F40180818823B5
:100FF00009F4BDCF813009F053C00E940E05F50100
:10100000C083D183F70180819181F801E80FF91F36
:1010100010820196F7019183808385B1836085B941
:10102000C0E0D0E00EC0F801EC0FFD1F89E4408164
:101030000E94A1022196F70180819181C817D907EA
:1010400061F0F601608171816C0F7D1F80919E02BD
:1010500090919F026817790734F3F601408151811E
:101060009E01240F351F80919E0290919F022817A8
:10107000390751F483E0F401808360919E027091FE
:101080009F026150704050C0415050404C0F5D1F56
:10109000F60151834083F7011182108280E054C031
:1010A00085B1836085B9F70180819181F801E80FEE
:1010B000F91F10820196F70191838083F501D18396
:1010C000C083F70180819181F60120813181820FF7
:1010D000931F9183808320919E0230919F028217FB
:1010E000930774F183E0F4018083C0E0D0E009C08D
:1010F000F801EC0FFD1F89E4B90140810E94A102B3
:101100002196F60120813181F70180819181281B90
:10111000390B2C0F3D1F60919E0270919F02615010
:1011200070402617370724F389E440E00E94A102AB
:1011300080919E0290919F02F6019183808303C06B
:1011400082E0F401808381E0DF91CF911F910F91C4
:10115000FF90EF90DF90CF90BF90AF909F908F90D7
:101160000895DF93CF93CDB7DEB727970FB6F894E6
:10117000DEBF0FBECDBFAB018983A1E0B0E0BE01F1
:101180006F5F7F4F20E030E008C02F5F3F4F8AE362
:101190002939380711F420E006C08091C00087FF8C
:1011A000F4CF2091C600FA0180819181019691834C
:1011B0008083203271F02D3061F02A3051F02223EB
:1011C00041F0293031F0FB01EA0FFB1F208311961B
:1011D000D9CFCE010196A80FB91F1C920E941D07FE
:1011E00027960FB6F894DEBF0FBECDBFCF91DF912B
:1011F0000895EF92FF920F931F93CF93DF937C019B
:10120000C091A102D091A20222C00E943A0580E1C1
:10121000BE010E94C40588E091E00E9420058E0175
:101220000F5F1F4F8FE4BE0140E00E94A102982F84
:10123000882361F08091C00085FFFCCF9093C600A9
:1012400085E06CED0E948502E801E9CFE801CE154A
:10125000DF05DCF20E943A05DF91CF911F910F91DB
:10126000FF90EF9008958F929F92AF92BF92CF928E
:10127000DF92EF92FF920F931F93CF93DF93182F7C
:10128000092F6B010E943A05212F302FC901EC0173
:1012900080E1BE010E94C4050894C108D108CC0CAD
:1012A000DD1C9924AA24BB24B9E08B2E46C08FE410
:1012B000BE0140E00E94A102182F8FE4B70140E078
:1012C0000E94A10200E07801E80EF11C9920C9F00B
:1012D000892D90E083709070892B99F484E09816A2
:1012E00021F48DE091E00E9420058091C00087FFED
:1012F000FCCF8091C6000E943A0580E1BE010E94A9
:10130000C4058091C00085FFFCCF8092C60080E1BB
:10131000B7010E94C4058091C00085FFFCCF809278
:10132000C600C7010E94760682E090E0A80EB91EB2
:101330002296CA14DB046CF093947E010894E11C9D
:10134000F11C80919E0290919F02E816F9060CF420
:10135000AECF0E940E05DF91CF911F910F91FF90AC
:10136000EF90DF90CF90BF90AF909F908F900895B7
:101370006F927F928F929F92AF92BF92CF92DF92A5
:10138000EF92FF920F931F93CF93DF93182F092FA4
:101390006B010E943A05212F302FC9018C0180E199
:1013A000B8010E94C4050894C108D108CC0CDD1C0A
:1013B0009924AA24BB2489E0682E3EC08FE4B8019A
:1013C00040E00E94A102782E8FE4BE0140E00E941E
:1013D000A102882E9920C9F0892D90E08770907025
:1013E000892B99F488E0981621F48DE091E00E9411
:1013F00020058091C00087FFFCCF8091C6000E942D
:101400003A0580E1B8010E94C4058091C00085FFC3
:10141000FCCF6092C600F72CEE24C701880D911D09
:101420000E94760682E090E0A80EB91E0E5F1F4F64
:10143000CA14DB045CF09394E801219680919E022B
:1014400090919F02C817D9070CF4B8CF0E940E05DF
:10145000DF91CF911F910F91FF90EF90DF90CF9090
:10146000BF90AF909F908F907F906F9008956F92F4
:101470007F928F929F92AF92BF92CF92DF92EF9224
:10148000FF920F931F93CF93DF93182F092F6B01B8
:101490000E943A05212F302FC9018C0180E1B8014B
:1014A0000E94C4050894C108D108CC0CDD1C992405
:1014B000AA24BB2429E0622E3FC08FE4B80140E09B
:1014C0000E94A102782E8FE4BE0140E00E94A1029A
:1014D000882E9920C9F0892D90E087709070892B13
:1014E00099F488E0981621F48DE091E00E9420059F
:1014F0008091C00087FFFCCF8091C6000E943A0512
:1015000080E1B8010E94C4058091C00085FFFCCF36
:101510006092C600F72CEE24B701680D711D80E1C2
:101520000E94C40582E090E0A80EB91E0E5F1F4F16
:10153000CA14DB045CF09394E801219680919E022A
:1015400090919F02C817D9070CF4B7CF0E940E05DF
:10155000DF91CF911F910F91FF90EF90DF90CF908F
:10156000BF90AF909F908F907F906F90089520E0F4
:1015700030E008C02F5F3F4F8AE32939380711F464
:1015800080E008958091C00087FFF4CF8091C6006D
:101590000895AF92BF92CF92DF92EF92FF921F9386
:1015A000CF93DF937C01C3E0D0E0CC24DD245CE06A
:1015B000A52EB12CF7011081112361F42196CC0FD7
:1015C000DD1FCC0FDD1F960102C036952795CA9509
:1015D000E2F725C0812F0E943806882319F020E009
:1015E00030E01DC0812F8053F7018083813110F0DE
:1015F00017531083F70181917F0190E00A2C02C0FC
:10160000880F991F0A94E2F7C80ED91E8CEF9FEF3E
:10161000A80EB91E209711F02197CCCF9601C901D1
:10162000DF91CF911F91FF90EF90DF90CF90BF900F
:10163000AF900895DF93CF93CDB7DEB727970FB65E
:10164000F894DEBF0FBECDBFAB01A0E0B0E0BE019D
:101650006F5F7F4F20E030E008C02F5F3F4F8AE38D
:101660002939380711F420E006C08091C00087FFB7
:10167000F4CF2091C600FA01808191810196918377
:101680008083203271F02D3061F02A3051F0222316
:1016900041F0293031F0FB01EA0FFB1F2083119646
:1016A000D9CFCE010196A80FB91F1C920E94C90A7A
:1016B00027960FB6F894DEBF0FBECDBFCF91DF9156
:1016C00008952F923F924F925F926F927F928F92E6
:1016D0009F92AF92BF92CF92DF92EF92FF920F93C1
:1016E0001F93DF93CF9300D0CDB7DEB7FC011B0172
:1016F0006A01390158011A821982D8012D913C9151
:101700000190F081E02D2115310589F5D3016D910E
:101710007C918091C00087FFFCCF8091C60081E062
:1017200090E09A83898310C02F5F3F4FBAE3293935
:101730003B0731F08091C00087FFF6CF8091C60053
:101740004F5F5F4F5A83498349815A81D1018D91FF
:101750009C91481759071CF420E030E0EBCF4B0177
:10176000880C991C8E0E9F1E442455247CC0DB01DE
:101770008D919C919A8389832F01421A530A882460
:10178000992471C02F5F3F4FBAE329393B0721F4F9
:1017900020E008C020E030E08091C00087FFF2CF59
:1017A0002091C60089819A8101969A838983222398
:1017B00009F464C02A3308F059C0203340F42B32B6
:1017C00031F02D3221F0243209F050C019C0822F9F
:1017D000B8010E94B108F50120813181F701E20FC3
:1017E000F31F492F552747FD5A9540832F5F3F4FE1
:1017F000F701E20FF31F80832F5F3F4FD50118C021
:1018000084E2B8010E941A0BD5012D913C911197E9
:10181000F701E20FF31F492F552747FD5A954083E3
:101820002F5F3F4FF701E20FF31F80832F5F3F4F82
:1018300011963C932E93F3018081918101969183BF
:1018400080838D919C918F3F910584F0D6018C917E
:10185000823011F4E3E0EC93D6018C91882331F4CB
:10186000E4E0EC9303C08E010F5F1F4FD6018C9113
:10187000882309F48FCF823009F48CCF0E940E05A3
:10188000F6018081823061F0833020F4882309F4EE
:1018900060C05DC0833029F1843009F058C07CC03D
:1018A00085B1836085B900E010E010C0F701E00F5A
:1018B000F11F89E440810E94A1020F5F1F4FD501F3
:1018C0008D919C910817190709F48FC0B801640D18
:1018D000751D80919E0290919F026817790734F3DD
:1018E00084C085B1836085B900E010E00FC0F701C6
:1018F000E00FF11F89E440810E94A1020F5F1F4F9A
:10190000F501808191810817190751F0B801640D24
:10191000751D80919E0290919F02681779073CF394
:10192000040D151D80919E0290919F0208171907C2
:1019300021F485B18C7F85B958C0D5011D921C92C8
:10194000F601108289819A81D1018D939C9380E068
:101950004DC085B1836085B900E010E00FC0F7018C
:10196000E00FF11F89E440810E94A1020F5F1F4F29
:10197000F501808191810817190751F0B801680DB0
:10198000791D80919E0290919F02681779073CF320
:10199000D5011D921C9229C085B1836085B900E0F4
:1019A00010E00FC0F701E00FF11F89E440810E94B1
:1019B000A1020F5F1F4FF501808191810817190760
:1019C00051F0B801680D791D80919E0290919F029F
:1019D000681779073CF3080D191D80919E029091BC
:1019E0009F020817190709F0A8CF81E00F900F9008
:1019F000CF91DF911F910F91FF90EF90DF90CF90EB
:101A0000BF90AF909F908F907F906F905F904F901E
:101A10003F902F9008951F920F920FB60F921124AE
:101A20002F933F934F938F939F93EF93FF938091C7
:101A3000C6008833A1F1893380F4843341F18533C2
:101A400038F4823301F1833300F58133E1F519C0B5
:101A5000863309F1873308F51CC0833441F184349F
:101A600048F4813401F1823400F58933D1F08A33AE
:101A700051F525C08534F9F08534D8F0863419F550
:101A80001CC041E021C042E01FC043E01DC044E053
:101A90001BC045E019C046E017C047E015C048E04C
:101AA00013C049E011C04AE00FC04BE00DC04CE04C
:101AB0000BC04DE009C04EE007C04FE005C01092DA
:101AC0009D0210929C0240E080919C0290919D02A8
:101AD0008330910551F1843091053CF481309105BA
:101AE00021F1029709F067C00AC085309105B1F174
:101AF0008530910514F1069709F05DC041C08091D1
:101B0000AE029091AF02840F911D9093AF0280932B
:101B1000AE028091AE029091AF02880F991F099694
:101B2000909389028093880235C0842F90E024E04E
:101B3000880F991F2A95E1F71EC08091AE029091FF
:101B4000AF02840F911D9093AF028093AE028091FB
:101B5000AE029091AF02982F88270DC02091AE025F
:101B60003091AF02842F90E0E4E0880F991FEA954E
:101B7000E1F7820F931F9093AF028093AE021BC0D8
:101B80008091AE029091AF02840F911D9093AF02AD
:101B90008093AE02E0913702EF5FE0933702E150AD
:101BA0008091AE029091AF02F0E0EE0FFF1FE25C79
:101BB000FD4F9183808380919C0290919D020997B3
:101BC0000CF488C020919C0230919D028091880283
:101BD00090918902281739070CF07CC080919C02F3
:101BE00090919D0283709070019759F4842F90E03A
:101BF000F4E0880F991FFA95E1F79093AF02809374
:101C0000AE0280919C0290919D0283709070029729
:101C100051F48091AE029091AF02840F911D909388
:101C2000AF028093AE0280919C0290919D028370DE
:101C30009070039759F4842F90E0E4E0880F991F87
:101C4000EA95E1F790938B0280938A0280919C023F
:101C500090919D0283709070892BE1F580918A02AA
:101C600090918B02840F911D90938B0280938A0236
:101C700080918A0290918B02982F882790938B02F3
:101C800080938A022091AE023091AF0280918A0245
:101C900090918B02820F931F9093AF028093AE02BC
:101CA000E0913702EF5FE0933702E1508091AE029E
:101CB0009091AF02F0E0EE0FFF1FE25CFD4F9183C9
:101CC0008083809193029091940201969093940264
:101CD0008093930280919C0290919D020196909333
:101CE0009D0280939C02809137028F71809337020E
:101CF000FF91EF919F918F914F913F912F910F9075
:101D00000FBE0F901F9018950E9458000E94E90086
:101D10000E9463030E94580080919B02882309F46B
:101D20007BC060918C0270918D0280913302909102
:101D300034026817790749F58091A802882319F0C1
:101D4000813019F51EC080918502409135025527DA
:101D500047FD5095992787FD90952091AC023091D1
:101D6000AD02281B390B4217530779F480913802D2
:101D700090913902862397239093AB028093AA0215
:101D800004C00E94E9001092A80220918C023091B8
:101D90008D0280913302909134022817390709F49B
:101DA000B7CF809184028823F1F08091A902882323
:101DB00051F080919A02882331F48091AA02909187
:101DC000AB020E945B0380919A02882361F08091AC
:101DD000AC029091AD022091AA023091AB02820F29
:101DE000931F0E945B038091A002882381F0809161
:101DF000A902882351F080919A02882331F48091BE
:101E0000AA029091AB020E945B0310929A020E9478
:101E1000E9001092A8027CCFF8948091C1008F77DE
:101E20008093C10085B18C7F85B981E090E00E94EC
:101E3000F504813019F48091C600F7CF8091A90292
:101E4000882351F080919A02882331F48091AA026C
:101E50009091AB020E945B0380919A02882361F00B
:101E60008091AC029091AD022091AA023091AB0218
:101E7000820F931F0E945B0308959F92AF92BF92BF
:101E8000CF92DF92EF92FF920F931F93CF93DF9346
:101E900010922D0210922C0210928702109286024C
:101EA000AA24BB24CC24DD24EE24FF244AE2942E71
:101EB0000EE28CE4B70140E00E94A102182F80934B
:101EC00086021092870288E4B70140E00E94A102D6
:101ED000D12FC0E09E01280F311D3093870220933F
:101EE00086020894E11CF11C80919702909198025F
:101EF000E816F90669F12F5F3F4F69F080912C02D7
:101F000090912D02019690932D0280932C020894BB
:101F1000A11CB11C03C00894C11CD11C88ECA816DC
:101F2000B10441F48091C00085FFFCCF9092C600BF
:101F3000AA24BB2488ECC816D10409F0BACF80913A
:101F4000C00085FFFCCF0093C600CC24DD24B1CFB8
:101F5000DF91CF911F910F91FF90EF90DF90CF9085
:101F6000BF90AF909F9008951F920F920FB60F925F
:101F70001124EF92FF920F931F932F933F934F9350
:101F80005F938F939F93AF93BF9310928100409183
:101F9000840050918500109285001092840081E0A9
:101FA00080938100209195023091960280913A02AF
:101FB00090E028173907B4F180913B02813019F085
:101FC000823041F40BC0BAE0EB2EF12CB1E00B2FC4
:101FD000112D09C0EE24FF24870105C0E12CF12C4E
:101FE000A2E00A2F112D8091B0029091B102A09130
:101FF000B202B091B3028452944FA040B0409A0113
:1020000040E050E0820F931FA41FB51F8E0D9F1D4F
:10201000A01FB11F8093B0029093B102A093B202AF
:10202000B093B30210923B02809195029091960278
:1020300001969093960280939502BF91AF919F91E4
:102040008F915F914F913F912F911F910F91FF9031
:10205000EF900F900FBE0F901F9018951F920F9248
:102060000FB60F9211248F9380913B028F5F809364
:102070003B028F910F900FBE0F901F9018950F93FA
:102080001F93CF93DF93EC018C010F5A1F4FCE01AA
:1020900021960E947319982F882351F0C017D107F9
:1020A00039F08091C00085FFFCCF9093C600EFCF40
:1020B000DF91CF911F910F9108952F923F924F92F0
:1020C0005F926F927F928F929F92AF92BF92CF92C8
:1020D000DF92EF92FF920F931F93DF93CF93CDB7D1
:1020E000DEB7CD50D1400FB6F894DEBF0FBECDBFE6
:1020F0001D821C821F821E82198618861982809179
:10210000A1029091A2029B838A830E943A0589E4EE
:1021100091E00E943F108DE191E00E9420058FEF39
:1021200090E00E94F5048823B1F38091C6008735C2
:1021300009F407C1883538F4833409F41AC28235AA
:1021400009F036C209C0823739F0873709F4F9C07F
:10215000833609F02DC20DC20E943A058FE460E07B
:1021600070E040E00E94A1028F3FA9F48FE461E09B
:1021700070E040E00E94A1028F3F69F48FE462E0CA
:1021800070E040E00E94A1028F3F29F481E291E0DB
:102190000E9420050DC28AE291E00E9420058091F4
:1021A000C00087FFFCCF0091C6000E940E058FE49F
:1021B00063E070E040E00E94A102182F8FE464E029
:1021C00070E040E00E94A102312F20E0280F311D75
:1021D00030939F0220939E028FE460E070E040E025
:1021E0000E94A102182F8FE461E070E040E00E949D
:1021F000A102312F20E0A901480F511DCA010E9400
:10220000F908013319F00233D9F51DC08FE460E0FD
:1022100070E040E00E94A102082F8FE461E070E0CE
:1022200040E00E94A102182F8FE462E070E040E0DD
:102230000E94A102682F902F80E0810F911D70E015
:102240000E94B80939C08FE460E070E040E00E946D
:10225000A102082F8FE461E070E040E00E94A1023B
:10226000182F8FE462E070E040E00E94A102682F26
:10227000902F80E0810F911D70E00E94370A1CC0F2
:102280008FE460E070E040E00E94A102082F8FE43C
:1022900061E070E040E00E94A102182F8FE462E04C
:1022A00070E040E00E94A102682F902F80E0810F33
:1022B000911D70E00E9433098FE463E070E040E01C
:1022C0000E94A102182F8FE464E070E040E00E94B9
:1022D000A102312F20E0280F311D2F5F3F4F09F45D
:1022E00067C18FE463E070E040E00E94A102182F14
:1022F0008FE464E070E040E00E94A102312F20E012
:10230000280F311D205032400CF052C185E391E07E
:102310000E9420058FE463E070E040E00E94A1028B
:10232000182F8FE464E070E040E00E94A102712F5A
:1023300060E0680F711D80E10E94C4050E943A05AB
:1023400037C18BE491E00E94200580E38A871C86D8
:102350000FE38091C00087FFFCCF1091C600812F52
:102360000E943806882339F08091C00085FFFCCF99
:102370000093C600EECF1B8784E690E00E94F50430
:102380008823C1F00FE31091C600812F0E94380608
:10239000882359F08091C00085FFFCCF0093C600D0
:1023A0008091C00087FFFCCFEECF0E940E058B8589
:1023B0008A871B87CE010A960E9445068C01181653
:1023C00019064CF585E391E00E94200560919E027C
:1023D00070919F02601B710B80E10E94C4050E94F6
:1023E0003A058CE591E00E9420058091C00087FFAE
:1023F000FCCF8091C600883571F40E940E052EE056
:1024000088E190E00FB6F894A895809360000FBE25
:1024100020936000FFCF0E940E0540919E025091D4
:102420009F02401B510B50939F0240939E02452FE9
:10243000550F550B89E463E070E00E94A10289E426
:1024400064E070E040919E020E94A10281E791E069
:102450000E94200572E0672E712C6C0E7D1E64E0D8
:10246000862E912C8C0E9D1E56E0A52EB12CAC0E06
:10247000BD1E4EE0C42ED12CCC0EDD1E7E01089474
:10248000E11CF11CC301B401A701950186010E9462
:102490007507882309F098C0198285B18C7F85B9AA
:1024A00083E891E00E942005EDCF85B18C7F85B94E
:1024B00083E891E00E9420051DC032E0232E312CDC
:1024C0002C0E3D1E24E0422E512C4C0E5D1E98E039
:1024D000692E712C6C0E7D1E86E0882E912C8C0E40
:1024E0009D1E0EE0A02EB12CAC0EBD1E6E010894F8
:1024F000C11CD11CC101B201A60193018401750167
:102500000E94610B882389F20E940E0585B18C7FA1
:1025100085B98CE891E00E9420050E940E054A8151
:102520005B81452F550F550B89E460E070E00E94F8
:10253000A10289E461E070E04A810E94A10289E47D
:1025400062E070E048850E94A1028091C00087FF90
:10255000FCCF8091C6008A819B810E94F908688522
:1025600079851616170624F58A819B810E94330906
:102570001FC00E943A058FE46EEF73E040E00E94B6
:10258000A102682F80E170E00E94C4058091C00024
:1025900085FFFCCF89E08093C6008FE46FEF73E086
:1025A00040E00E94A102682F80E170E00E94C40513
:1025B0002AE088E190E00FB6F894A8958093600037
:1025C0000FBE20936000FFCF85B18C7F85B98981D4
:1025D000823009F099CF71CFFC0180819181019601
:1025E0009183808301970E94731908956F927F925F
:1025F0008F929F92AF92BF92CF92DF92EF92FF9213
:102600000F931F93DF93CF93CDB7DEB727970FB606
:10261000F894DEBF0FBECDBF1B8284B78E7F84BF10
:102620003A9A88B194E0892788B980E28093B6000D
:102630001092B20084E690E00E948C02789482E0CE
:1026400080933A0280917000816080937000809145
:102650006F00816080936F000E94430181E080934E
:10266000B1008091B60080FDFCCF81E080938100B5
:1026700081EF898310E00EE2F02E04E08981815021
:1026800089838093660082E060E00E9467019B017D
:10269000AC016C837D838E839F838981893E70F733
:1026A000812F8F5F65E00E940319192F992349F448
:1026B0008091C00085FFFCCFF092C60088B18027D2
:1026C00088B9285E334040405040C4F6809166008F
:1026D0008B831A8218EEE12E13E0F12EB2E06B2EFE
:1026E000712C6C0E7D1EA4E08A2E912C8C0E9D1EEA
:1026F000F3E0AF2EB12CAC0EBD1E6E010894C11CD0
:10270000D11C8CE99FEFE80EF91EC701B601A301A9
:10271000940185010E94A80194E6E916F10489F765
:1027200082E060E00E9467016C837D838E839F83DB
:10273000109166000E944301809170008E7F80930B
:10274000700080916F008E7F80936F000E943A0529
:102750008EEF91E0612F0E947B198FEF91E0612F46
:102760000E947B190E943A0585E991E00E942005AC
:102770008EEF91E00E947319682F8AE070E00E944A
:10278000C40588E091E00E9420058FEF91E00E944F
:102790007319682F8AE070E00E94C40589E991E00E
:1027A0000E9420056C817D818AE00E94C4058C8195
:1027B0009D81AE81BF818E5E9240A040B04024F4E6
:1027C00082EA91E00E9420050E943A0527960FB602
:1027D000F894DEBF0FBECDBFCF91DF911F910F9157
:1027E000FF90EF90DF90CF90BF90AF909F908F9031
:1027F0007F906F9008950F931F938C01FC0180814F
:1028000091810E947B19F8018081918101969183C9
:1028100080831F910F910895CF92DF92EF92FF92E4
:102820000F931F93DF93CF9300D0CDB7DEB71A82FB
:1028300019820E943A0586EA91E00E9420050E94D2
:102840003A0581E060EA0E9454058091C00087FF4C
:10285000FCCF8091C60085EB91E00E9420050E948C
:102860003A058091C00087FFFCCF1091C60012325C
:1028700039F082E090E00E94F5048823C1F3F5CF9F
:102880008091C00087FFFCCF0091C6000D30C1F3DE
:102890000A30B1F380E090E0602F0E947B1991E054
:1028A000E92EF12C82E090E00E94F504882381F16A
:1028B0001091C6001D3021F01232A1F31A3059F4E4
:1028C000002389F0C70160E00E947B190894E11C95
:1028D000F11C00E008C0C701612F0E947B19089419
:1028E000E11CF11C012F8AEFE81681E0F806D4F212
:1028F0008AEFE81681E0F80659F48AEF91E060E08B
:102900000E947B190E943F058BEFE82E81E0F82E94
:1029100069817A8180E10E94C4058091C00085FFB1
:10292000FCCF89E08093C60010E009E06E010894B6
:10293000C11CD11C0DC0C6010E94EC12982F882327
:1029400049F08091C00085FFFCCF1F5F9093C600C7
:10295000163988F30E943A0569817A8180E10E94E4
:10296000C4058091C00085FFFCCF0093C60089811B
:102970009A818E159F0514F410E0DDCF0E943A0570
:102980008AEC91E00E943F100E943A0580E060E1ED
:102990000E9454058091C00087FFFCCF8091C60043
:1029A0002AE088E190E00FB6F894A8958093600043
:1029B0000FBE20936000FFCFDF92EF92FF920F9344
:1029C0001F93CF93DF9310922F0204B603FE03C030
:1029D00081E080933602A89584B7877F84BF809179
:1029E0006000886180936000109260008FEF91E03A
:1029F0000E947319182F803168F0803F58F48EEFD1
:102A000091E00E947319181729F41093660081E071
:102A100080932F0282E08093BA0080917C008064D2
:102A200080937C0085B78F7E85BF14B817B81AB81D
:102A30008FEF85B988B98BB94398609166008DEFA7
:102A400091E00E947B19499BFECF85E090E00E94B7
:102A50008C0280E060E10E94540583E084B985B176
:102A60008C7F85B980912F02882329F004B600FE5F
:102A700006C04A9904C04A9BFECF0E94F61280917C
:102A80003602813019F41092360294C08CEF91E036
:102A90000E947319813019F404B600FC0CC02AE0BE
:102AA00088E190E00FB6F894A895809360000FBE7F
:102AB00020936000FFCF80EC91E00E94200584E627
:102AC00090E00E94F5048823B1F38091C60082351E
:102AD00091F78CEF91E06FEF0E947B1984B78E7FA6
:102AE00084BF84E48093BC008091BC0087FFFCCF4E
:102AF0008091BB0084EC8093BC008091BC0087FF78
:102B0000FCCFD090BB0084EC8093BC008091BC00D3
:102B100087FFFCCF2091BB0084E88093BC008091AC
:102B2000BC0087FFFCCF8091BB0030E040E050E06C
:102B3000EE24F22E032F142FE80EF11C011D111D9F
:102B400080E88093BC000E943A0580E391E00E94F7
:102B50003F1080E091E00E9420058AE06D2D70E03A
:102B60000E94C4058091C00085FFFCCF89E080935E
:102B7000C60085EC91E00E9420058AE0B7010E9422
:102B8000C40528EEE21623E0F20620E0020720E06A
:102B9000120724F48CEC91E00E9420052AE088E1E1
:102BA00090E00FB6F894A895809360000FBE209334
:102BB0006000FFCF82ED91E00E9420058FEF90E052
:102BC0000E94F5048823B1F38091C6008835A1F0F6
:102BD000893538F4833521F1863581F0803551F718
:102BE000D1C28337E9F0843718F4803719F7CAC2A5
:102BF000863721F08837F1F607EDC5C287ED91E001
:102C00000E9420050E943A052AE088E190E00FB674
:102C1000F894A895809360000FBE20936000FFCFCA
:102C20000E940C142AE088E190E00FB6F894A89571
:102C3000809360000FBE20936000FFCF80E090E3A0
:102C400060E070E00E94BD038E3181F080EF91E082
:102C50000E9420052BE088E190E00FB6F894A8953B
:102C6000809360000FBE20936000FFCF80E090E370
:102C700060E071E00E94BD03C82FD0E080E090E3E7
:102C800060E072E00E94BD038830C1F0893038F402
:102C9000863051F1873078F4853091F512C08B3051
:102CA00019F18C3018F48A3059F50BC08F3099F037
:102CB000843131F510C088E090E008C083E290E0F4
:102CC00005C0C239D10569F480E390E09093B50264
:102CD0008093B40229C0C539D10519F488E491E084
:102CE000F5CF88E590E0F2CFC439D10519F488EA30
:102CF00090E0ECCFC339D105B9F48FE090E0E6CF96
:102D00000E943A0580EF91E00E9420050E943A055A
:102D10002BE088E190E00FB6F894A89580936000CE
:102D20000FBE20936000FFCF0E943A0580E090E044
:102D30000E943F108091B4029091B502883A9105AB
:102D400029F08854914009F049C019C085EF91E0FD
:102D50000E94200580E490E09093AD028093AC0245
:102D600080EC9FE1909339028093380280E090E2FA
:102D700090939802809397028AEF91E018C089EFB0
:102D800091E00E94200580E490E09093AD02809352
:102D9000AC0280EC9FE3909339028093380280E08C
:102DA00090E4909398028093970285EF93E090933C
:102DB0009F0280939E0285E090E09093A202809310
:102DC000A10288E090E00E943F100E943A0582E153
:102DD00090E00E943F100E943A050CC02EE088E16E
:102DE00090E00FB6F894A895809360000FBE2093F2
:102DF0006000FFCF8DEF91E00E9420058FEF90E003
:102E00000E94F5048823B1F31091C600183509F427
:102E10008DC0193530F4143481F0153409F092C0A6
:102E200009C0153639F0183709F480C0143609F096
:102E300089C04FC00E945D1085C087E092E00E946B
:102E400020058EE790E00E943F100E943A05809195
:102E5000C00087FFFCCF8091C600843471F588E9FB
:102E600090E00E943F108091B4029091B502883AA0
:102E7000910561F4C0E0D0E089E4BE014FEF0E940B
:102E8000A102219681E0CB3FD807B1F78091B4022F
:102E90009091B5028854914061F4C0E0D0E089E49B
:102EA000BE014FEF0E94A102219683E0C63FD807E2
:102EB000B1F781E192E00E9420052AE088E190E0EC
:102EC0000FB6F894A895809360000FBE2093600021
:102ED000FFCF89E192E00E9420058EE790E00E94FA
:102EE0003F100E943A058091C00087FFFCCF80917F
:102EF000C600843479F4C0E0D0E0CE016FEF0E94C8
:102F00007B19219621E0CB3FD207B9F781E192E00E
:102F10000E9420052AE088E190E00FB6F894A89579
:102F2000809360000FBE20936000FFCF2AE088E10D
:102F300090E00FB6F894A895809360000FBE2093A0
:102F40006000FFCF103519F0103709F053CF109201
:102F5000320210923102109292021092910210925B
:102F60009402109293021092A7021092A90210925A
:102F70003402109233021092840210929A0210923C
:102F80003702109299021092A80281E090E090938B
:102F90009D0280939C020E943A058DE590E00E947C
:102FA0003F100E943A050EC0883761F42AE088E19C
:102FB00090E00FB6F894A895809360000FBE209320
:102FC0006000FFCF8091C00087FFFCCF8091C600DA
:102FD0008A3351F78091C10080688093C100789452
:102FE00080E89CEA60E070E00E94BD030E94840ECD
:102FF00088EA9CEA602F70E00E94BD03003D59F40E
:1030000084EA9CEA6DEF70E00E94BD0380EA9CEACE
:1030100062EC70E00CC0073D61F484EA9CEA6FEF5B
:1030200070E00E94BD0380EA9CEA62EE70E00E94BC
:10303000BD0380EE9CEA6BEE70E00E94BD030E942F
:103040003D0F003D71F489E469EF73E041E00E94B7
:10305000A1028CEF91E061E00E947B1984B78E7F22
:1030600084BF0E943A0587ED91E00E9420050E94EE
:103070003A0584EA90E00E943F100E943A0588E0F9
:1030800090E560E070E00E94BD03682F80E170E091
:103090000E94C40588E098E560E070E00E94BD03EE
:1030A000682F80E170E00E94C40580E090E560E058
:1030B00070E00E94BD03682F80E170E00E94C405AB
:1030C00080E098E560E070E00E94BD03682F80E139
:1030D00070E00E94C40585ED90E00E943F1080E002
:1030E00091E00E9420056091660080E170E00E94FE
:1030F000C40580912F02813019F484E292E002C06D
:1031000088E292E00E9420050E943A0586EE90E057
:103110000E943F100E943A0589E991E00E943F1009
:1031200060919302709194028AE00E94C4050E940B
:1031300035050E94350560913102709132028AE0B6
:103140000E94C4050E94350560912C0270912D02E9
:103150008AE00E94C4050E943A05073D61F42AE016
:1031600088E190E00FB6F894A895809360000FBEB8
:1031700020936000FFCF86EF90E00E943F100E94F6
:103180003A05FFCF00ED98E09093900280E18093A4
:103190008E0280E28093A6029093A50284B1886299
:1031A00084B93B9A84E063EC0E94850298B18091D7
:1031B000A5028095892388B995B18091A602809552
:1031C000892385B984E063EC0E94850288B19091DF
:1031D000A502892B88B984E063EC0E94850298B12E
:1031E0008091A5028095892388B985E064E60E94D4
:1031F000850283E59CEA60E070E00E94BD038335B0
:1032000009F024CD1BCD991B79E004C0991F9617B6
:1032100008F0961B881F7A95C9F780950895AA1B18
:10322000BB1B51E107C0AA1FBB1FA617B70710F0B1
:10323000A61BB70B881F991F5A95A9F780959095E3
:10324000BC01CD01089597FB092E07260AD077FD12
:1032500004D0E5DF06D000201AF4709561957F4F09
:103260000895F6F7909581959F4F089597FB092E45
:1032700005260ED057FD04D014D00AD0001C38F417
:1032800050954095309521953F4F4F4F5F4F089592
:10329000F6F790958095709561957F4F8F4F9F4F72
:1032A0000895A1E21A2EAA1BBB1BFD010DC0AA1F87
:1032B000BB1FEE1FFF1FA217B307E407F50720F09F
:1032C000A21BB30BE40BF50B661F771F881F991F1A
:1032D0001A9469F760957095809590959B01AC0163
:1032E000BD01CF010895F999FECF92BD81BDF89A35
:1032F000992780B50895262FF999FECF1FBA92BD60
:1033000081BD20BD0FB6F894FA9AF99A0FBE0196C6
:063310000895F894FFCFC0
:103316002020000D0A002000202020200009414B1B
:1033260020746F20636F6E74696E7565003F202090
:10333600004E6F20446174612100312C32206F727F
:1033460020330D0A000D0A4170703A2053746172E1
:1033560074206164647227732020000D0A496E741C
:103366006567657228302D4646293F005820746FE0
:1033760020657363617065206F7220414F4B0D0AA3
:10338600000D0A53656E6420746578742066696C56
:10339600652E002020416761696E210020202041B2
:1033A6004B3F0D0A0055430900094572726F7220A2
:1033B6002000094F4B00425220326B34207468655E
:1033C6006E20414B00546578742066696C653F0039
:1033D60052202020006572726F722000204F4B0D24
:1033E6000A0050202020000D0A50726F6A6563742F
:1033F6005F7063625F3136385F56322E333043007A
:1034060054544E44003136380033323800502F457C
:103416002F5820202020000D0A5461726765742001
:103426000020446F6E650D0A000D0A4F6E2D63680D
:0C34360069702000205543002044430032
:00000001FF
