:100000000C9434000C9451000C9451000C94510049
:100010000C9451000C9451000C9451000C9451001C
:100020000C9451000C9451000C9451000C9451000C
:100030000C9451000C9451000C9451000C945100FC
:100040000C940B040C9451000C94DC0E0C94510095
:100050000C9451000C9451000C9451000C945100DC
:100060000C9451000C94510011241FBECFEFD4E02A
:10007000DEBFCDBF13E0A0E0B1E0EEECFCE202C0D9
:1000800005900D92AE31B107D9F713E0AEE1B3E0C0
:1000900001C01D92A03AB107E1F70E946E120C94C4
:1000A00065160C9400000000000000000000089598
:1000B00090918703809129039817D1F3E0918703EA
:1000C000F0E0EE0FFF1FE25DFC4FE081E09389035B
:1000D000809187038F5F80938703809187038F715F
:1000E000809387038E2FE7FD8F5F85958093220392
:1000F0008091950380311CF481E080939603E09316
:10010000950390918703809129039817D1F3E0918B
:100110008703F0E0EE0FFF1FE25DFC4F80819181CD
:10012000209187032F5F20938703209187032F71EE
:100130002093870362E070E00E943C169B0170935D
:100140007D0360937C0360918103709182036F5FF4
:100150007F4F709382036093810380912503909178
:1001600026032817390751F12115310549F140912E
:100170002A0350912B0342235323E0919803F091DB
:10018000990320919A0330919B032E0F3F1F241750
:1001900035072CF481E08093740310928E0342178C
:1001A000530729F41092740381E080938E034E1755
:1001B0005F0731F41092740310928E03109288033B
:1001C00063FF03C085B1836002C085B18C7F85B9B0
:1001D000089520917C0330917D0330932603209372
:1001E000250380912A0390912B03822393239093DC
:1001F000990380939803A901481B590B50939203CC
:1002000040939103409191035091920340937F0357
:1002100027702093750380919A03841B8093270392
:10022000089590918703809129039817D1F3E09165
:100230008703F0E0EE0FFF1FE25DFC4F80819181AC
:100240009093770380937603809187038F5F8093E9
:100250008703809187038F7180938703089584ECCF
:100260008093BC008091BC0087FFFCCF8091BB00D5
:10027000089584E88093BC008091BC0087FFFCCF88
:100280008091BB0008951F93142F883419F08C348B
:1002900021F406C0E0E0F8E405C0E0E0F0E002C0D0
:1002A000E0E0F0E4B09194035B2F5095A0918003BF
:1002B0004A2F409520E030E085B1852385B9CF01F4
:1002C000022E02C0880F991F0A94E2F797FF03C01D
:1002D00085B18A2B02C085B1842385B985B18B2B6A
:1002E00085B900000000000000002F5F3F4F203163
:1002F000310511F720E030E085B1852385B9CB01C8
:10030000022E02C0880F991F0A94E2F787FF03C0EC
:1003100085B18A2B02C085B1842385B985B18B2B29
:1003200085B900000000000000002F5F3F4F28301B
:10033000310511F720E030E0612F70E085B18523B1
:1003400085B9CB01022E02C0880F991F0A94E2F7EB
:1003500087FF03C085B18A2B02C085B1842385B98C
:1003600085B18B2B85B900000000000000002F5FD5
:100370003F4F2830310511F785B1582355B91F91EA
:1003800008950E94110160919103709192038CE491
:10039000409176030E944301609191037091920312
:1003A0004091770388E40E944301089566BD85BDAE
:1003B000A89BFECFA89A15BC08950F931F93CF93C7
:1003C000DF938C01C0E0D0E005C085E062EB0E94C5
:1003D000D6012196C017D107C4F3DF91CF911F91A9
:1003E0000F910895CF92DF92EF92FF920F931F9398
:1003F000CF93DF93582FE42E8C3479F08D3428F48A
:10040000883449F0893429F40CC08F3461F0873581
:1004100031F080E009C088E207C080E205C08CE4CA
:1004200003C080EC01C080EA40919403A42FA09502
:10043000B09180030B2F009520E030E0E82FF0E032
:1004400085B18A2385B9CF01022E02C0880F991F7A
:100450000A94E2F787FF03C085B18B2B02C085B1F8
:10046000802385B985B1842B85B900000000000088
:1004700000002F5F3F4F2830310511F720E030E0BA
:1004800085B18A2385B9CB01022E02C0880F991F3E
:100490000A94E2F797FF03C085B18B2B02C085B1A8
:1004A000802385B985B1842B85B900000000000048
:1004B00000002F5F3F4F2031310511F7F0907E0390
:1004C00010E027E030E06E2D70E0C7E0D0E0E1E022
:1004D000F0E085B18A2385B9593471F4CE01821BCD
:1004E000930B6B0102C0CC0CDD1C8A95E2F7C7FEB2
:1004F00003C085B18B2B02C085B1802385B985B13E
:10050000842B85B9000000000000000083B18F211A
:1005100041F0CF01022E02C0880F991F0A94E2F722
:10052000182B215030408FEF2F3F380791F685B1BF
:10053000A823A5B9573511F0593421F485E06CEDA5
:100540000E94D601812FDF91CF911F910F91FF90D3
:10055000EF90DF90CF900895BC0187E540E00E94C6
:10056000F2011092970308951F9311E050C08091FB
:100570002203815080932203109397030E94C101AC
:1005800080919103909192030196909392038093AE
:100590009103809125039091260301969093260361
:1005A00080932503809127038150809327038091B6
:1005B00023039091240301969093240380932303B3
:1005C000209191033091920380919A0390919B0323
:1005D00028173907E1F4609198037091990387E532
:1005E00040E00E94F2011092970310929203109241
:1005F000910380919A0380932703809175038093E0
:100600007F0380917503882311F0109388038091F4
:100610002203882309F0ABCF1F9108958F929F92F8
:10062000AF92BF92CF92DF92EF92FF920F931F9300
:10063000CF93DF93EC016B01A0E0B0E0DC019927E0
:1006400088279B0140E050E0280F391F4A1F5B1F9D
:10065000F09094037F2D709500918003E02EE0943C
:10066000E0E0F0E085B1872385B9CE010E2E02C00F
:10067000880F991F0A94E2F797FF03C085B1802B7A
:1006800002C085B18E2185B985B18F2985B9000059
:100690000000000000003196E031F10519F760918B
:1006A0007E0310E0E0E0F0E0AFE0B0E0C1E0D0E0D9
:1006B00087E0A82EB12C85B1872385B9C6010E2EFF
:1006C00002C0880F991F0A94E2F797FF03C085B113
:1006D000802B02C085B18E2185B985B18F2985B95E
:1006E0000000000000000000203080E0380780E0BB
:1006F000480780E5580709F45EC0213080E03807DC
:1007000080E0480780E55807E0F4203081E03807B2
:1007100080E0480780E3580709F44DC0203082E0AC
:10072000380780E0480780E3580709F444C02030C8
:1007300080E0380780E0480780E3580709F04DC0A3
:100740003AC0203080E0380780E0480788E5580745
:10075000B1F1213080E0380780E0480788E558078C
:1007600048F4203080E0380788E0480780E55807E3
:10077000A1F521C0203080E0380788E0480788E5EF
:100780005807C9F0203080E0380783E548078CEA35
:10079000580719F5E830F10504F583B18623E9F02F
:1007A000C5018E1B9F0B4E0102C0880C991C8A95B7
:1007B000E2F7C40111C0E830F1057CF003C0EA3073
:1007C000F1055CF083B1862341F0CE010A2E02C010
:1007D000880F991F0A94E2F7182B31961197E03190
:1007E000F10509F068CF85B1782375B985E067EB2D
:1007F0000E94D601812FDF91CF911F910F91FF9021
:10080000EF90DF90CF90BF90AF909F908F90089522
:1008100066BD85BD08951F920F920FB60F921124E9
:100820008F9381E08093200315BC8F910F900FBEB2
:100830000F901F90189570938500609384009FEF30
:1008400096BB80938100B09BFECFB09A109281003E
:10085000089590916E00916090936E0066BD85BD85
:10086000809120038823E1F31092200380916E0091
:100870008E7F80936E0008958091C00087FFFCCF2B
:100880008091C60008958091C6000895AC0120E0D3
:1008900030E00FC02F5F3F4F8FE0213A380724F040
:1008A0004150504020E030E04115510511F480E006
:1008B00008958091C00087FFEDCF81E0089582E028
:1008C00090E00E944604813019F48091C600F7CF71
:1008D0000895982F8091C00085FFFCCF9093C600AB
:1008E0000895AC0120E030E0FA01E20FF31FE0814F
:1008F000EE2359F02F5F3F4F8091C00085FFFCCF62
:10090000E093C600283C310579F7089580E091E036
:100910000E947104089583E091E00E94710408959B
:100920000F931F93182F062F85E064E60E94D601CF
:10093000E1ECF0E010821093C5000093C40082E067
:100940008093C00088E1808386E08093C2001F917D
:100950000F910895EF92FF920F931F93CF93DF9320
:10096000F82EEB018A01E22E80E0482F4F5FF8015C
:10097000E80FF11DCE016F2D70E00E9428168083D4
:100980008A3010F4805D01C0895C8083CE016F2DB8
:1009900070E00E942816EB016115710511F0842F9B
:1009A000E4CF443078F48AE5E81661F4842F90E3CC
:1009B00006C0F801E80FF11D90838F5F4F5F843010
:1009C000C0F301C0842FF801E80FF11D1082342F0D
:1009D000315020E00CC0D801A20FB11D9C91F8014C
:1009E000E30FF11D80818C9390832F5F315023178B
:1009F00090F3DF91CF911F910F91FF90EF900895A9
:100A00000F931F93DF93CF9300D000D000D0CDB7CA
:100A1000DEB78E010F5F1F4FA8012AE50E94AA04CE
:100A2000C8010E94710486E091E00E94710426963C
:100A30000FB6F894DEBF0FBECDBFCF91DF911F91EF
:100A40000F9108951F93A82F262F10E0FA01E10FB0
:100A5000F11D822F6A2F0E941C1690839A3010F489
:100A6000905D01C0995C9083312F3F5F822F6A2F88
:100A70000E941C16282F882311F0132FE7CFFA01AC
:100A8000E30FF11D108220E00BC0DA01A20FB11DAF
:100A90009C91FA01E80FF11D80818C9390832F5F68
:100AA000812F821B281788F31F9108950F931F939E
:100AB000DF93CF9300D000D0CDB7DEB78E010F5FAC
:100AC0001F4FA8010E942205C8010E94710486E000
:100AD00091E00E9471040F900F900F900F90CF91B2
:100AE000DF911F910F910895982F8A53873038F026
:100AF000903328F080E0973418F081E0089581E089
:100B000008951F93CF93DF93EC011881812F0E94EA
:100B10007405882301F589810E9474058823D9F41E
:100B2000812F80538883813110F017531883988167
:100B30002981822F80538983813110F027532983A3
:100B40008981292F30E044E0220F331F4A95E1F7D5
:100B5000280F311D02C020E030E0C901DF91CF91A4
:100B60001F9108951F93DF93CF9300D000D000D042
:100B7000CDB7DEB7BC0197FD02C01BE204C0709583
:100B800061957F4F1DE28AE0AE014F5F5F4F2EE41B
:100B90000E94AA041D3231F48091C00085FFFCCF71
:100BA0008DE205C08091C00085FFFCCF80E280937C
:100BB000C600CE0101960E94710480E091E00E947F
:100BC000710426960FB6F894DEBF0FBECDBFCF914D
:100BD000DF911F91089520E030E008C02F5F3F4F64
:100BE0008AE32939380711F480E008958091C00024
:100BF00087FFF4CF8091C6000895AF92BF92CF9245
:100C0000DF92EF92FF920F931F93DF93CF930F9298
:100C1000CDB7DEB77C0173E0A72EB12C00E010E069
:100C20006CE0C62ED12CF7019081992369F40894C9
:100C3000A11CB11CAA0CBB1CAA0CBB1C02C01595A4
:100C40000795AA94E2F728C0892F99830E9474051A
:100C500099818823F9F4892F8053F70180838131AA
:100C600010F097539083F70181917F0190E00C2C55
:100C700002C0880F991F0A94E2F7080F191F8CEF22
:100C80009FEFC80ED91EA114B10431F00894A10839
:100C9000B108C9CF00E010E0C8010F90CF91DF91FB
:100CA0001F910F91FF90EF90DF90CF90BF90AF908A
:100CB0000895FC0180818B3241F08D3219F020E0E3
:100CC00030E048C040E050E013C020E030E02BC0EE
:100CD000CA01A3E0880F991FAA95E1F7440F551F99
:100CE000840F951F422F50E040535040480F591F2A
:100CF00021813196822F80538A3050F32227332767
:100D0000241B350B2CC0C90163E0880F991F6A951D
:100D1000E1F7220F331F820F931F242F30E020535F
:100D20003040280F391F41813196842F80538A30FB
:100D300050F315C0C901B3E0880F991FBA95E1F7C8
:100D4000220F331F820F931F242F30E02053304097
:100D5000280F391F4191842F80538A3058F3C901DD
:100D600008958F929F92AF92BF92CF92DF92EF92AF
:100D7000FF920F931F93CF93DF936C015B014A01A6
:100D800079018091C00087FFFCCF8091C600C0E050
:100D9000D0E0882311F0C1E0D0E020E030E006C0D0
:100DA0002F5F3F4F8AE329393807B9F38091C0009C
:100DB00087FFF6CF8091C600882379F3219682328F
:100DC00061F743C02F5F3F4FEAE329393E0711F433
:100DD00020E030E08091C00087FFF4CF2091C60072
:100DE0002223B1F32196223209F48BC0F5018081D0
:100DF00091818C179D0754F52A3011F02D3081F424
:100E0000F70120813181F801E20FF31F31978081D2
:100E1000882329F421503040F7013183208320E0DA
:100E2000F70180819181F801E80FF91F2083019675
:100E3000F701918380838F37910544F02D3031F095
:100E4000222321F0F401408301C041E0F4018081BC
:100E5000882309F4BDCF813009F053C00E945F049C
:100E6000F501C083D183F70180819181F801E80FFA
:100E7000F91F10820196F7019183808385B1836009
:100E800085B9C0E0D0E00EC0F801EC0FFD1F89E489
:100E900040810E94F2012196F70180819181C8175B
:100EA000D90761F0F601608171816C0F7D1F80911F
:100EB0008C0390918D036817790734F3F601408114
:100EC00051819E01240F351F80918C0390918D03D9
:100ED0002817390751F483E0F401808360918C0373
:100EE00070918D036150704050C0415050404C0F84
:100EF0005D1FF60151834083F7011182108280E06B
:100F000054C085B1836085B9F70180819181F80172
:100F1000E80FF91F10820196F70191838083F50194
:100F2000D183C083F70180819181F60120813181D5
:100F3000820F931F9183808320918C0330918D03C6
:100F40008217930774F183E0F4018083C0E0D0E05E
:100F500009C0F801EC0FFD1F89E4B90140810E942E
:100F6000F2012196F60120813181F7018081918182
:100F7000281B390B2C0F3D1F60918C0370918D0342
:100F8000615070402617370724F389E440E00E943F
:100F9000F20180918C0390918D03F60191838083FF
:100FA00003C082E0F401808381E0DF91CF911F9143
:100FB0000F91FF90EF90DF90CF90BF90AF909F90F8
:100FC0008F900895DF93CF93CDB7DEB727970FB6F5
:100FD000F894DEBF0FBECDBFAB018983A1E0B0E0C6
:100FE000BE016F5F7F4F20E030E008C02F5F3F4FB2
:100FF0008AE32939380711F420E006C08091C00047
:1010000087FFF4CF2091C600FA018081918101967B
:1010100091838083203271F02D3061F02A3051F0BD
:10102000222341F0293031F0FB01EA0FFB1F20831E
:101030001196D9CFCE010196A80FB91F1C920E941C
:10104000590627960FB6F894DEBF0FBECDBFCF91DD
:10105000DF910895EF92FF920F931F93CF93DF9349
:101060007C01C0918F03D091900322C00E948B0419
:1010700080E1BE010E94000588E091E00E947104B9
:101080008E010F5F1F4F8FE4BE0140E00E94F2010E
:10109000982F882361F08091C00085FFFCCF90934A
:1010A000C60085E06CED0E94D601E801E9CFE801B9
:1010B000CE15DF05DCF20E948B04DF91CF911F91EA
:1010C0000F91FF90EF9008958F929F92AF92BF92F1
:1010D000CF92DF92EF92FF920F931F93CF93DF9304
:1010E000182F092F6B010E948B04212F302FC9016B
:1010F000EC0180E1BE010E9400050894C108D108FE
:10110000CC0CDD1C9924AA24BB24B9E08B2E46C04C
:101110008FE4BE0140E00E94F201182F8FE4B70176
:1011200040E00E94F20100E07801E80EF11C9920F5
:10113000C9F0892D90E083709070892B99F484E038
:10114000981621F48DE091E00E9471048091C00016
:1011500087FFFCCF8091C6000E948B0480E1BE0116
:101160000E9400058091C00085FFFCCF8092C600E0
:1011700080E1B7010E9400058091C00085FFFCCF8F
:101180008092C600C7010E94B20582E090E0A80EDE
:10119000B91E2296CA14DB046CF093947E01089465
:1011A000E11CF11C80918C0390918D03E816F906E7
:1011B0000CF4AECF0E945F04DF91CF911F910F918D
:1011C000FF90EF90DF90CF90BF90AF909F908F9067
:1011D00008956F927F928F929F92AF92BF92CF921B
:1011E000DF92EF92FF920F931F93CF93DF93182F0D
:1011F000092F6B010E948B04212F302FC9018C0114
:1012000080E1B8010E9400050894C108D108CC0C07
:10121000DD1C9924AA24BB2489E0682E3EC08FE4FB
:10122000B80140E00E94F201782E8FE4BE0140E058
:101230000E94F201882E9920C9F0892D90E08770D4
:101240009070892B99F488E0981621F48DE091E054
:101250000E9471048091C00087FFFCCF8091C6007E
:101260000E948B0480E1B8010E9400058091C000BB
:1012700085FFFCCF6092C600F72CEE24C701880DD5
:10128000911D0E94B20582E090E0A80EB91E0E5F8B
:101290001F4FCA14DB045CF09394E80121968091FF
:1012A0008C0390918D03C817D9070CF4B8CF0E9416
:1012B0005F04DF91CF911F910F91FF90EF90DF902E
:1012C000CF90BF90AF909F908F907F906F90089538
:1012D0006F927F928F929F92AF92BF92CF92DF9246
:1012E000EF92FF920F931F93CF93DF93182F092F45
:1012F0006B010E948B04212F302FC9018C0180E1EA
:10130000B8010E9400050894C108D108CC0CDD1C6E
:101310009924AA24BB2429E0622E3FC08FE4B8019F
:1013200040E00E94F201782E8FE4BE0140E00E946E
:10133000F201882E9920C9F0892D90E08770907075
:10134000892B99F488E0981621F48DE091E00E94B1
:1013500071048091C00087FFFCCF8091C6000E947D
:101360008B0480E1B8010E9400058091C00085FFD8
:10137000FCCF6092C600F72CEE24B701680D711DFA
:1013800080E10E94000582E090E0A80EB91E0E5F89
:101390001F4FCA14DB045CF09394E80121968091FE
:1013A0008C0390918D03C817D9070CF4B7CF0E9416
:1013B0005F04DF91CF911F910F91FF90EF90DF902D
:1013C000CF90BF90AF909F908F907F906F90089537
:1013D00020E030E008C02F5F3F4F8AE3293938070B
:1013E00011F480E008958091C00087FFF4CF8091D0
:1013F000C6000895AF92BF92CF92DF92EF92FF9214
:101400001F93CF93DF937C01C3E0D0E0CC24DD2495
:101410005CE0A52EB12CF7011081112361F4219617
:10142000CC0FDD1FCC0FDD1F960102C0369527952E
:10143000CA95E2F725C0812F0E947405882319F010
:1014400020E030E01DC0812F8053F701808381317F
:1014500010F017531083F70181917F0190E00A2C5F
:1014600002C0880F991F0A94E2F7C80ED91E8CEFAC
:101470009FEFA80EB91E209711F02197CCCF9601AF
:10148000C901DF91CF911F91FF90EF90DF90CF9036
:10149000BF90AF900895DF93CF93CDB7DEB7279776
:1014A0000FB6F894DEBF0FBECDBFAB01A0E0B0E039
:1014B000BE016F5F7F4F20E030E008C02F5F3F4FDD
:1014C0008AE32939380711F420E006C08091C00072
:1014D00087FFF4CF2091C600FA01808191810196A7
:1014E00091838083203271F02D3061F02A3051F0E9
:1014F000222341F0293031F0FB01EA0FFB1F20834A
:101500001196D9CFCE010196A80FB91F1C920E9447
:10151000FA0927960FB6F894DEBF0FBECDBFCF9164
:10152000DF9108952F923F924F925F926F927F9238
:101530008F929F92AF92BF92CF92DF92EF92FF92E3
:101540000F931F93DF93CF9300D0CDB7DEB7FC018D
:101550001B016A01390158011A821982D8012D91A3
:101560003C910190F081E02D2115310589F5D301E1
:101570006D917C918091C00087FFFCCF8091C60067
:1015800081E090E09A83898310C02F5F3F4FBAE3D8
:1015900029393B0731F08091C00087FFF6CF809159
:1015A000C6004F5F5F4F5A83498349815A81D101F9
:1015B0008D919C91481759071CF420E030E0EBCF47
:1015C0004B01880C991C8E0E9F1E442455247CC010
:1015D000DB018D919C919A8389832F01421A530AD2
:1015E0008824992471C02F5F3F4FBAE329393B0704
:1015F00021F420E008C020E030E08091C00087FFA7
:10160000F2CF2091C60089819A8101969A838983BD
:10161000222309F464C02A3308F059C0203340F46F
:101620002B3231F02D3221F0243209F050C019C094
:10163000822FB8010E94E207F50120813181F70174
:10164000E20FF31F492F552747FD5A9540832F5F1F
:101650003F4FF701E20FF31F80832F5F3F4FD5010C
:1016600018C084E2B8010E944B0AD5012D913C912B
:101670001197F701E20FF31F492F552747FD5A95A0
:1016800040832F5F3F4FF701E20FF31F80832F5FEF
:101690003F4F11963C932E93F301808191810196E7
:1016A000918380838D919C918F37910584F0D60131
:1016B0008C91823011F4E3E0EC93D6018C91882375
:1016C00031F4E4E0EC9303C08E010F5F1F4FD601AD
:1016D0008C91882309F48FCF823009F48CCF0E943B
:1016E0005F04F6018081823061F0833020F488232A
:1016F00009F460C05DC0833029F1843009F058C01E
:101700007CC085B1836085B900E010E010C0F701AE
:10171000E00FF11F89E440810E94F2010F5F1F4F2B
:10172000D5018D919C910817190709F48FC0B80154
:10173000640D751D80918C0390918D036817790756
:1017400034F384C085B1836085B900E010E00FC038
:10175000F701E00FF11F89E440810E94F2010F5F61
:101760001F4FF501808191810817190751F0B801C9
:10177000640D751D80918C0390918D036817790716
:101780003CF3040D151D80918C0390918D03081777
:10179000190721F485B18C7F85B958C0D5011D92F8
:1017A0001C92F601108289819A81D1018D939C93BC
:1017B00080E04DC085B1836085B900E010E00FC0C6
:1017C000F701E00FF11F89E440810E94F2010F5FF1
:1017D0001F4FF501808191810817190751F0B80159
:1017E000680D791D80918C0390918D03681779079E
:1017F0003CF3D5011D921C9229C085B1836085B947
:1018000000E010E00FC0F701E00FF11F89E4408114
:101810000E94F2010F5F1F4FF5018081918108172F
:10182000190751F0B801680D791D80918C039091D2
:101830008D03681779073CF3080D191D80918C03FF
:1018400090918D030817190709F0A8CF81E00F9038
:101850000F90CF91DF911F910F91FF90EF90DF904C
:10186000CF90BF90AF909F908F907F906F905F9040
:101870004F903F902F9008952F923F924F925F92FA
:101880006F927F928F929F92AF92BF92CF92DF9290
:10189000EF92FF920F931F93DF93CF93CDB7DEB7F5
:1018A000CF58D0400FB6F894DEBF0FBECDBF1D821B
:1018B0001C821F821E8219861886198280918F03CE
:1018C000909190039B838A838DE191E00E94710443
:1018D00080E591E00E9471048FEF90E00E94460441
:1018E0008823B1F38091C600873509F41AC1883581
:1018F00038F4833409F42DC2823509F049C21CC082
:10190000823739F0873709F40CC1833609F040C2B9
:1019100020C280918F039091900390932D03809328
:101920002C0380E092E09093900380938F0387EFE5
:1019300093E00E942A082CC20E948B048FE460E08E
:1019400070E040E00E94F2018F3FA9F48FE461E073
:1019500070E040E00E94F2018F3F69F48FE462E0A2
:1019600070E040E00E94F2018F3F29F484E591E0AD
:101970000E9471040DC28DE591E00E947104809176
:10198000C00087FFFCCF0091C6000E945F048FE477
:1019900063E070E040E00E94F201182F8FE464E001
:1019A00070E040E00E94F201312F20E0280F311D4D
:1019B00030938D0320938C038FE460E070E040E06F
:1019C0000E94F201182F8FE461E070E040E00E9475
:1019D000F201312F20E0A901480F511DCA010E94D8
:1019E0002A08013319F00233D9F51DC08FE460E0F5
:1019F00070E040E00E94F201082F8FE461E070E0A7
:101A000040E00E94F201182F8FE462E070E040E0B5
:101A10000E94F201682F902F80E0810F911D70E0ED
:101A20000E94E90839C08FE460E070E040E00E9465
:101A3000F201082F8FE461E070E040E00E94F201C3
:101A4000182F8FE462E070E040E00E94F201682FFE
:101A5000902F80E0810F911D70E00E9468091CC0EA
:101A60008FE460E070E040E00E94F201082F8FE414
:101A700061E070E040E00E94F201182F8FE462E024
:101A800070E040E00E94F201682F902F80E0810F0B
:101A9000911D70E00E9464088FE463E070E040E014
:101AA0000E94F201182F8FE464E070E040E00E9491
:101AB000F201312F20E0280F311D2F5F3F4F09F435
:101AC00067C18FE463E070E040E00E94F201182FEC
:101AD0008FE464E070E040E00E94F201312F20E0EA
:101AE000280F311D205032400CF052C188E691E0A1
:101AF0000E9471048FE463E070E040E00E94F20114
:101B0000182F8FE464E070E040E00E94F201712F32
:101B100060E0680F711D80E10E9400050E948B0447
:101B200037C18EE791E00E94710480E38A871C86AA
:101B30000FE38091C00087FFFCCF1091C600812F7A
:101B40000E947405882339F08091C00085FFFCCF86
:101B50000093C600EECF1B8784E690E00E94460407
:101B60008823C1F00FE31091C600812F0E947405F5
:101B7000882359F08091C00085FFFCCF0093C600F8
:101B80008091C00087FFFCCFEECF0E945F048B8561
:101B90008A871B87CE010A960E9481058C01181640
:101BA00019064CF588E691E00E94710460918C035F
:101BB00070918D03601B710B80E10E9400050E94F3
:101BC0008B048FE891E00E9471048091C00087FF30
:101BD000FCCF8091C600883571F40E945F042EE02E
:101BE00088E190E00FB6F894A895809360000FBE4E
:101BF00020936000FFCF0E945F0440918C035091BE
:101C00008D03401B510B50938D0340938C03452F44
:101C1000550F550B89E463E070E00E94F20189E4FE
:101C200064E070E040918C030E94F20184EA91E04C
:101C30000E94710462E0662E712C6C0E7D1E54E0D1
:101C4000852E912C8C0E9D1E46E0A42EB12CAC0E40
:101C5000BD1E3EE0C32ED12CCC0EDD1E7E010894AD
:101C6000E11CF11CC301B401A701950186010E948A
:101C7000B106882309F098C0198285B18C7F85B997
:101C800086EB91E00E947104EDCF85B18C7F85B920
:101C900086EB91E00E9471041DC022E0222E312CBF
:101CA0002C0E3D1E94E0492E512C4C0E5D1E88E0FA
:101CB000682E712C6C0E7D1E06E0802E912C8C0EF1
:101CC0009D1E1EE0A12EB12CAC0EBD1E6E0108940F
:101CD000C11CD11CC101B201A6019301840175018F
:101CE0000E94920A882389F20E945F0485B18C7F4A
:101CF00085B98FEB91E00E9471040E945F044A81D4
:101D00005B81452F550F550B89E460E070E00E9420
:101D1000F20189E461E070E04A810E94F20189E405
:101D200062E070E048850E94F2018091C00087FF68
:101D3000FCCF8091C6008A819B810E942A08688519
:101D400079851616170624F58A819B810E946408FE
:101D50001FC00E948B048FE46EEF73E040E00E948E
:101D6000F201682F80E170E00E9400058091C000C0
:101D700085FFFCCF89E08093C6008FE46FEF73E0AE
:101D800040E00E94F201682F80E170E00E940005AF
:101D90002AE088E190E00FB6F894A895809360005F
:101DA0000FBE20936000FFCF85B18C7F85B98981FC
:101DB000823009F099CF71CF1F920F920FB60F9218
:101DC00011242F933F934F938F939F93EF93FF9300
:101DD0008091C6008833A1F1893380F4843341F1C6
:101DE000853338F4823301F1833300F58133E1F533
:101DF00019C0863309F1873308F51CC0833441F1DB
:101E0000843448F4813401F1823400F58933D1F00F
:101E10008A3351F525C08534F9F08534D8F08634FD
:101E200019F51CC041E021C042E01FC043E01DC0C5
:101E300044E01BC045E019C046E017C047E015C0AC
:101E400048E013C049E011C04AE00FC04BE00DC0AC
:101E50004CE00BC04DE009C04EE007C04FE005C0AC
:101E600010928B0310928A0340E080918A03909134
:101E70008B038330910551F1843091053CF481301E
:101E8000910521F1029709F067C00AC085309105DC
:101E9000B1F18530910514F1069709F05DC041C09C
:101EA00080919C0390919D03840F911D90939D03BD
:101EB00080939C0380919C0390919D03880F991FB0
:101EC0000996909379038093780335C0842F90E02E
:101ED00024E0880F991F2A95E1F71EC080919C038A
:101EE00090919D03840F911D90939D0380939C037B
:101EF00080919C0390919D03982F88270DC020917D
:101F00009C0330919D03842F90E0E4E0880F991F9B
:101F1000EA95E1F7820F931F90939D0380939C03B2
:101F20001BC080919C0390919D03840F911D909301
:101F30009D0380939C03E0912903EF5FE0932903C5
:101F4000E15080919C0390919D03F0E0EE0FFF1F04
:101F5000E25DFC4F9183808380918A0390918B0393
:101F600009970CF488C020918A0330918B038091EB
:101F7000780390917903281739070CF07CC0809181
:101F80008A0390918B0383709070019759F4842F8A
:101F900090E0F4E0880F991FFA95E1F790939D0384
:101FA00080939C0380918A0390918B03837090703F
:101FB000029751F480919C0390919D03840F911D91
:101FC00090939D0380939C0380918A0390918B034F
:101FD00083709070039759F4842F90E0E4E0880FA9
:101FE000991FEA95E1F790937B0380937A038091A0
:101FF0008A0390918B0383709070892BE1F5809117
:102000007A0390917B03840F911D90937B038093BF
:102010007A0380917A0390917B03982F882790937D
:102020007B0380937A0320919C0330919D038091E0
:102030007A0390917B03820F931F90939D0380936B
:102040009C03E0912903EF5FE0932903E150809125
:102050009C0390919D03F0E0EE0FFF1FE25DFC4FAB
:102060009183808380918303909184030196909360
:1020700084038093830380918A0390918B0301965C
:1020800090938B0380938A03809129038F718093AF
:102090002903FF91EF919F918F914F913F912F9144
:1020A0000F900FBE0F901F9018950E9458000E942D
:1020B000E9000E94B4020E9458008091890388239D
:1020C00009F47BC060917C0370917D0380912503AE
:1020D000909126036817790749F580919603882324
:1020E00019F0813019F51EC08091750340912703C6
:1020F000552747FD5095992787FD909520919A0384
:1021000030919B03281B390B4217530779F48091B8
:102110002A0390912B03862397239093990380930E
:10212000980304C00E94E9001092960320917C035A
:1021300030917D038091250390912603281739075C
:1021400009F4B7CF809174038823F1F0809197034D
:10215000882351F080918803882331F4809198037B
:10216000909199030E94AC0280918803882361F0CA
:1021700080919A0390919B03209198033091990349
:10218000820F931F0E94AC0280918E03882381F0FE
:1021900080919703882351F080918803882331F43C
:1021A00080919803909199030E94AC021092880349
:1021B0000E94E900109296037CCFF8948091C100B0
:1021C0008F778093C10085B18C7F85B981E090E0E5
:1021D0000E944604813019F48091C600F7CF8091A7
:1021E0009703882351F080918803882331F48091EC
:1021F0009803909199030E94AC02809188038823F0
:1022000061F080919A0390919B0320919803309103
:102210009903820F931F0E94AC020895CF92DF9220
:10222000EF92FF920F931F93CF93DF9310921F03B0
:1022300010921E031092770310927603CC24DD24B3
:10224000EE24FF2400E08CE4B70140E00E94F2019C
:10225000182F809376031092770388E4B70140E04B
:102260000E94F201D12FC0E09E01280F311D309352
:102270007703209376030894E11CF11C8091850379
:1022800090918603E816F90631F12F5F3F4F89F0F0
:1022900080911E0390911F03019690931F038093DA
:1022A0001E032091230330912403821793070CF01F
:1022B00004E00894C11CD11C88ECC816D10419F69E
:1022C0008091C00085FFFCCF065D0093C6000A52D6
:1022D000CC24DD24B8CFDF91CF911F910F91FF90D7
:1022E000EF90DF90CF9008951F931EE285E090E07D
:1022F0000E944604813049F48091C6008091C0005C
:1023000085FFFCCF1093C600F1CF0E948B041F9174
:102310000895FC01808191810196918380830197CA
:102320000E944F1608950F931F93CF93DF93EC01F4
:102330008C01095B1F4FCE0121960E944F16982FEA
:10234000882351F0C017D10739F08091C00085FF74
:10235000FCCF9093C600EFCFDF91CF911F910F91EB
:1023600008950F931F938C01FC01808191810E943D
:102370005716F801808191810196918380831F9186
:102380000F910895DF92EF92FF920F931F93DF93C7
:10239000CF9300D0CDB7DEB71A82198288EC91E0D6
:1023A0000E94710481E060EA0E9490048091C00064
:1023B00087FFFCCF8091C6008EEE91E00E947104F1
:1023C0008091C00087FFFCCFE090C6008DE0E8164A
:1023D000B9F38AE0E816A1F380E090E06E2D0E9448
:1023E000571601E010E082E090E00E944604882346
:1023F00051F1F090C6008AE0F81619F08DE0F81659
:1024000051F4EE2079F0C80160E00E9457160F5F8A
:102410001F4FEE2407C0C8016F2D0E9457160F5F93
:102420001F4FEF2C81E0063F1807ECF281E0063FDA
:10243000180749F486EF91E060E00E9457160E9469
:10244000741107EF11E069817A8180E10E94000533
:102450008091C00085FFFCCF89E08093C6007E019B
:102460000894E11CF11C49E0D42EC7010E94891197
:10247000982F882339F08091C00085FFFCCF90937E
:10248000C600F3CF0E948B0469817A8180E10E94AB
:1024900000058091C00085FFFCCFD092C6008981E5
:1024A0009A81801791070CF382E092E00E947104F8
:1024B00080E060E10E9490048091C00087FFFCCF23
:1024C0008091C6002AE088E190E00FB6F894A895C4
:1024D000809360000FBE20936000FFCFFF920F93A8
:1024E0001F93CF93DF9304B603FE03C081E0809374
:1024F0002803A89584B7877F84BF80916000886196
:1025000080936000109260008FEF91E00E944F1660
:10251000182F803168F0803F58F48EEF91E00E94D0
:102520004F16181729F41093660081E08093210359
:1025300082E08093BA0080917C00806480937C006C
:1025400085B78F7E85BF14B817B81AB88FEF85B9D5
:1025500088B98BB94398609166008DEF91E00E9435
:102560005716499BFECF85E090E00E94DD0180E098
:1025700060E10E94900483E084B985B18C7F85B9C5
:1025800080912803813019F41092280386C08CEFC3
:1025900091E00E944F16813019F404B600FC0CC083
:1025A0002AE088E190E00FB6F894A8958093600047
:1025B0000FBE20936000FFCF83E392E00E9471047E
:1025C0008FEF90E00E9446048823B1F38091C6000B
:1025D000823591F78CEF91E06FEF0E94571684B728
:1025E0008E7F84BF84E48093BC008091BC0087FF11
:1025F000FCCF8091BB0084EC8093BC008091BC0038
:1026000087FFFCCF0091BB0084EC8093BC008091DD
:10261000BC0087FFFCCFF090BB0084E88093BC0037
:102620008091BC0087FFFCCF1091BB0080E88093B5
:10263000BC0088E392E00E94710480E1602F70E0AA
:102640000E9400058091C00085FFFCCF89E0809347
:10265000C6008EE492E00E9471042F2D30E040E02D
:1026600050E0542F432F322F2227210F311D411DBF
:10267000511D8AE0B9010E94000583E091E00E94AB
:1026800071042AE088E190E00FB6F894A895809351
:1026900060000FBE20936000FFCF85E592E00E94AE
:1026A00071048FEF90E00E9446048823B1F380917B
:1026B000C6008835A1F0893538F4833529F186358F
:1026C00089F0803551F776C28337F1F0843718F4FA
:1026D000803719F76FC2863729F08837F1F667ED32
:1026E000F62E6AC28AE592E00E9471040E948B0471
:1026F0002AE088E190E00FB6F894A89580936000F6
:102700000FBE20936000FFCF0E94C2112AE088E133
:1027100090E00FB6F894A895809360000FBE2093C8
:102720006000FFCF80E090E360E070E00E940E0365
:102730008E3191F082E591E00E9493110E948B040A
:102740002BE088E190E00FB6F894A89580936000A4
:102750000FBE20936000FFCF80E090E360E071E067
:102760000E940E03C82FD0E080E090E360E072E0AA
:102770000E940E038830C1F0893038F4863051F160
:10278000873078F4853091F512C08B3019F18C3098
:1027900018F48A3059F50BC08F3099F0843131F537
:1027A00010C088E090E008C083E290E005C0C23924
:1027B000D10569F480E390E090939F0380939E039A
:1027C0002BC0C539D10519F488E491E0F5CF88E52F
:1027D00090E0F2CFC439D10519F488EA90E0ECCF4B
:1027E000C339D105C9F48FE090E0E6CF0E948B0495
:1027F00082E591E00E9493110E948B040E948B0459
:102800002BE088E190E00FB6F894A89580936000E3
:102810000FBE20936000FFCF0E948B0483E792E0FD
:102820000E94710480919E0390919F03883A9105C4
:1028300021F088549140D9F513C08AE792E00E94B4
:10284000710480E490E090939B0380939A0380EC62
:102850009FE190932B0380932A0380E090E212C0C3
:102860008EE792E00E94710480E490E090939B03D5
:1028700080939A0380EC9FE390932B0380932A0329
:1028800080E090E4909386038093850380E092E05B
:1028900090938D0380938C0385E090E09093900358
:1028A00080938F0382E892E00E9471040CC02EE0B6
:1028B00088E190E00FB6F894A895809360000FBE71
:1028C00020936000FFCF80E992E00E9471048FEFB7
:1028D00090E00E9446048823B1F38091C60000E096
:1028E00014E0C0E0D2E0883509F468C0893530F4DE
:1028F0008434E1F0853409F06DC015C0853621F0CF
:10290000883709F067C05AC080919E0390919F0359
:102910008854914041F410938D0300938C03D0931D
:102920009003C0938F030E943C0C58C08CE992E046
:102930000E9471040E948B048091C00087FFFCCF2D
:102940008091C600843471F58AEB92E00E94710494
:1029500080919E0390919F03883A910561F4C0E0B5
:10296000D0E089E4BE014FEF0E94F201219682E09F
:10297000C030D807B1F780919E0390919F0388548F
:10298000914061F4C0E0D0E089E4BE014FEF0E94C5
:10299000F201219683E0CE3FD807B1F786EC92E0B2
:1029A0000E9471042AE088E190E00FB6F894A8959F
:1029B000809360000FBE20936000FFCF2AE088E183
:1029C00090E00FB6F894A895809360000FBE209316
:1029D0006000FFCF803549F0803739F08091C0002A
:1029E00087FFFCCF8091C6007ECF80E89CEA60E044
:1029F00070E00E940E0388EA9CEA6F2D70E00E944E
:102A00000E0320EDF21659F484EA9CEA6DEF70E0B3
:102A10000E940E0380EA9CEA62EC70E00DC087ED34
:102A2000F81661F484EA9CEA6FEF70E00E940E03EE
:102A300080EA9CEA62EE70E00E940E0380EE9CEA5F
:102A40006BEE70E00E940E03109224031092230399
:102A500010929503109284031092830310929703AF
:102A6000109226031092250310927403109288038B
:102A70000E948B0486E890E00E9493110E948B04D0
:102A80008091C10080688093C10078940E945510A5
:102A90000E940E1189E469EF73E041E00E94F201A7
:102AA0008CEF91E061E00E94571684B78E7F84BF5F
:102AB0000E948B048AE592E00E9471040E948B04BC
:102AC0008EEF90E00E9493110E948B0488E090E5C5
:102AD00060E070E00E940E03682F80E170E00E94C9
:102AE000000588E098E560E070E00E940E03682F22
:102AF00080E170E00E94000580E090E560E070E019
:102B00000E940E03682F80E170E00E94000580E0C3
:102B100098E560E070E00E940E03682F80E170E0AD
:102B20000E94000583E891E00E94931180912103A7
:102B3000813031F46091660080E170E00E94000510
:102B40006091660080E170E00E9400050E948B04A5
:102B500089E991E00E94931160918303709184034D
:102B60008AE00E9400050E9486048EEC92E00E949A
:102B700071040E94860460912303709124038AE00B
:102B80000E94000588ED92E00E9471040E94860474
:102B900060911E0370911F038AE00E9400058DED75
:102BA00092E00E9471040E948B0482EE92E00E94E7
:102BB0007104FFCF50EDF52E98E09093800380E1F3
:102BC00080937E0380E2809394039093930384B177
:102BD000886284B93B9A84E063EC0E94D60198B184
:102BE000809193038095892388B995B1809194034E
:102BF0008095892385B984E063EC0E94D60188B171
:102C000090919303892B88B984E063EC0E94D601EC
:102C100098B1809193038095892388B985E064E613
:102C20000E94D60183E59CEA60E070E00E940E03FA
:102C3000833509F07FCD76CD991B79E004C0991FCB
:102C4000961708F0961B881F7A95C9F78095089506
:102C5000AA1BBB1B51E107C0AA1FBB1FA617B707C2
:102C600010F0A61BB70B881F991F5A95A9F78095DE
:102C70009095BC01CD01089597FB092E07260AD037
:102C800077FD04D0E5DF06D000201AF47095619539
:102C90007F4F0895F6F7909581959F4F0895F99984
:102CA000FECF92BD81BDF89A992780B50895262F51
:102CB000F999FECF1FBA92BD81BD20BD0FB6F89421
:0E2CC000FA9AF99A0FBE01960895F894FFCF84
:102CCE002020000D0A002000202020200009414B6A
:102CDE0020746F20636F6E74696E7565000D0A50F7
:102CEE0072657373202D772D206F72202D722D201B
:102CFE00746F20777269746520746F206F72207202
:102D0E006561642066726F6D20454550524F4D00CF
:102D1E003F2020004E6F20446174612100312C321F
:102D2E00206F7220330D0A000D0A4170703A205345
:102D3E0074617274206164647227732020000D0A1E
:102D4E00496E746567657228302D4646293F0058D6
:102D5E0020746F20657363617065206F7220414F20
:102D6E004B0D0A000D0A53656E642074657874204D
:102D7E0066696C652E002020416761696E21002016
:102D8E002020414B3F0D0A0053657420626175642B
:102D9E00207261746520746F20322E346B2074683B
:102DAE00656E20707265737320414B0D0A0053657A
:102DBE006E64206D6573736167652066696C650D61
:102DCE000A000D0A424155442052415445203537E0
:102DDE002E366B21210D0A707265737320616E7928
:102DEE00206B657920746F20636F6E74696E7565E4
:102DFE000D0A0052202020000D0A5461726765747E
:102E0E002063616C20666163746F722020006572AE
:102E1E00726F72200050202020000D0A50726F6ACF
:102E2E006563745F7063625F3136385F56322E337E
:102E3E0030420041544D454741003136380033325F
:102E4E003800202064657465637465642E0D0A0075
:102E5E00502F652F452F442020202000526573658A
:102E6E00742074617267657420454550524F4D2130
:102E7E002044206F7220414F4B0031302073656328
:102E8E0020776169740020446F6E650D0A00642717
:102E9E006C6F616465643A0020696E3A00206F754C
:102EAE007400506F776572206379636C6520746867
:102EBE00656E207072657373202D722D20746F20D5
:102ECE006175746F2063616C207468652074617223
:0E2EDE00676574206465766963652E0D0A00D1
:00000001FF
