:100000000C9434000C9451000C9451000C94ED05A8
:100010000C9451000C9451000C9451000C9451001C
:100020000C9451000C9451000C9451000C9451000C
:100030000C9451000C9451000C9451000C945100FC
:100040000C9451000C9451000C9451000C945100EC
:100050000C9451000C9451000C9451000C945100DC
:100060000C9451000C94510011241FBECFEFD4E02A
:10007000DEBFCDBF12E0A0E0B1E0EEE3FEE002C0E3
:1000800005900D92AE3AB107D9F722E0AEEAB2E0A0
:1000900001C01D92AE3BB207E1F70E9411060C941D
:1000A0001D070C940000E1ECF0E010828093C50085
:1000B0006093C40082E08093C00088E1808386E082
:1000C0008093C200089520E030E08217930724F067
:1000D00000002F5F3F4FF9CF089566BD85BDA89BF7
:1000E000FECFA89A15BC08950F931F93CF93DF936B
:1000F0008C01C0E0D0E0C017D10734F462EB85E09A
:100100000E946D002196F7CFDF91CF911F910F9143
:100110000895EEE6F0E090819160908366BD85BD24
:100120000895EFE6F0E080818160808382E0809333
:100130008100089570938500609384009FEF96BBC3
:1001400080938100B09BFECFB09A109281000895F9
:10015000EFE6F0E09081916090837093850060936A
:1001600084008093810008956093B2008093B10071
:10017000B89BFECFB89A1092B10008958091C0004C
:1001800087FFFCCF08958091C00087FFFCCF80914E
:10019000C60008958091C600089520E030E0909157
:1001A000C00097FD0DC02F5F3F4F21349FE13907FD
:1001B0001CF0815020E030E08111F1CF80E0089503
:1001C00081E008950E94C3008D3011F08A3039F427
:1001D00081E00E94CD0081118091C6008DE00895DC
:1001E00085E00E94CD00813019F48091C600F8CFDF
:1001F00008959091C00095FFFCCF8093C6000895AC
:100200000F931F93CF93DF93EC018C0108531F4F83
:100210008991882329F00E94F900C017D107C1F7FE
:10022000DF91CF911F910F91089586E092E00C9499
:10023000000185E00E94CD00813031F48091C6003C
:100240008EE20E94F900F5CF0C9415012F923F9297
:100250004F925F926F927F928F929F92AF92BF92D6
:10026000CF92DF92EF92FF920F931F93CF93DF9382
:10027000EC012A013B01411551056105704849F522
:100280002A3091F0203109F063C080E388838983AC
:100290008A838B838C838D838E8388E38F838DE227
:1002A000888719861A8613C098E3988384E3898324
:1002B00026E32A8323E32B839C838D8397E39E830A
:1002C0008F8381E3888782E389878DE28A871B8613
:1002D0003FC08E01CE010C96FE011192E817F9077E
:1002E000E1F77301620177FE07C0CC24DD247601BB
:1002F000C418D508E608F708212C312C822E912C41
:10030000A12CB12CC701B601A50194010E94E806F9
:10031000F80160836A3010F4605D02C0695CF80126
:100320006083FFEF2F1A3F0AC701B601A5019401B0
:100330000E94E80669017A010F5F1F4F232B242BCF
:10034000252B01F777FE04C0C20DD31D8DE28883F3
:10035000DF91CF911F910F91FF90EF90DF90CF90A1
:10036000BF90AF909F908F907F906F905F904F90D5
:100370003F902F9008950F931F93CF93DF938C019D
:10038000FC01EF01C01BD10B81918111FACFC00F8D
:10039000D11F0C171D0721F08A910E94F900F9CF97
:1003A000DF91CF911F910F910895CF93DF93CDB738
:1003B000DEB72C970FB6F894DEBF0FBECDBF282F47
:1003C000CE0101960E942601CE0101960E94BB013A
:1003D0002C960FB6F894DEBF0FBECDBFDF91CF9144
:1003E000089590ED980F81E09A3008F080E008952C
:1003F000803328F08A3328F08154863010F080E072
:10040000089581E00895CF93C82F87FF0FC080E043
:1004100091E00E9400018C2F992781950CF4909512
:10042000AC01052E000C660B770B09C084E091E04F
:100430000E9400014C2FCC0F550B660B770B8AE006
:10044000CF910C94D5018F929F92AF92BF92CF9291
:10045000DF92EF92FF92CF93DF936A017B01EC0171
:100460000C96FE011192E817F907E1F7822E912C04
:10047000A12CB12CC701B601A50194010E94C606AA
:1004800068836A3010F4605D01C0695C6883C701ED
:10049000B601A50194010E94C60669017A01219660
:1004A000232B242B252B31F7DF91CF91FF90EF9059
:1004B000DF90CF90BF90AF909F908F900895CF9393
:1004C000DF93CDB7DEB72C970FB6F894DEBF0FBE23
:1004D000CDBF282FCE0101960E942302CE010196A6
:1004E0000E94BB012C960FB6F894DEBF0FBECDBFA5
:1004F000DF91CF9108958093BB0084EC8093BC0082
:100500008091BC0087FFFCCF08958093BB0084E8F6
:100510008093BC008091BC0087FFFCCF089584E4E9
:100520008093BC008091BC0087FFFCCF8091BB0012
:1005300080E00E947B0286E40E94850284E880932A
:10054000BC008091BC0081648093BC000895FF9240
:100550000F931F93CF93DF9310916B00D0916D0099
:1005600080916D008478843821F080916B0086FF43
:100570000AC080916B008F7B80936B0080916D002F
:100580008B7780936D0084E4F82E00E81E9B02C0F8
:10059000C0E301C0C1E34A9B01C04F9BC2E3F0929C
:1005A000BC008091BC0087FFFCCF8091BB008C2FEA
:1005B0000E9485020093BC00C23341F710936B0088
:1005C000D0936D00DF91CF911F910F91FF9008950F
:1005D000CF93C82F84E48093BC008091BC0087FF38
:1005E000FCCF8091BB0080E00E947B028C2F0E9498
:1005F000850280E88093BC00CF910895CF92DF926E
:10060000EF92FF920F931F93CF93DF93082FC62F84
:10061000F42E152F84E48093BC008091BC0087FFEA
:10062000FCCF8091BB00802F0E947B028C2F0E9408
:100630007B02CF2DD12FE12CF12C10E0680181E05D
:10064000C81AD108E016F10674F48881EC14FD0490
:1006500019F40E94850202C00E947B028FEFE81A03
:10066000F80A2196EFCF80E88093BC00DF91CF910C
:100670001F910F91FF90EF90DF90CF900895CF934F
:10068000DF9300D000D0CDB7DEB789839A836B8328
:100690007C83AE014F5F5F4F61E084E00E94FE0209
:1006A0000F900F900F900F90DF91CF910895CF93FF
:1006B000DF9300D0CDB7DEB789836A83AE014F5F89
:1006C0005F4F63E082E00E94FE020F900F90DF9187
:1006D000CF910895CF93DF9300D0CDB7DEB781E6F9
:1006E00089831A82AE014F5F5F4F62E082E00E9411
:1006F000FE020F900F90DF91CF910895AC0164E05E
:1007000088E00C94FE02AC0167E488E00C94FE02E1
:10071000AB01682F88E00C94FE020C948803CF9301
:10072000DF9300D0CDB7DEB76983AE014F5F5F4F77
:10073000682F81E00E94FE020F900F90DF91CF9111
:100740000895CF93DF9300D0CDB7DEB789836A8356
:10075000AE014F5F5F4F65E082E00E94FE020F90A6
:100760000F90DF91CF910895CF93DF9300D0CDB755
:10077000DEB769834A83AE014F5F5F4F682F82E027
:100780000E94FE020F900F90DF91CF910895CF93BA
:10079000DF931F92CDB7DEB71E9903C081E0898336
:1007A00001C01982AE014F5F5F4F61E581E00E9499
:1007B000FE020F90DF91CF910895CF93DF9300D089
:1007C00000D0CDB7DEB799838A837B836C83AE017B
:1007D0004F5F5F4F66E084E00E94FE020F900F9033
:1007E0000F900F90DF91CF910895CF93DF9300D0BA
:1007F00000D0CDB7DEB799838A837B836C83AE014B
:100800004F5F5F4F6AE484E00E94FE020F900F90FA
:100810000F900F90DF91CF910895CF93DF9300D089
:1008200000D01F92CDB7DEB799838A837B836C8318
:100830004D83AE014F5F5F4F6BE485E00E94FE0287
:100840000F900F900F900F900F90DF91CF91089520
:10085000AC0167E088E00C94FE0221E3FC012783F1
:10086000AC0167E088E00C94FE0222E3FC012783E0
:10087000AC0167E088E00C94FE02AC0168E088E01F
:100880000C94FE02AC01693429F06E3471F06434CA
:10089000C1F414C0FC01089611928E179F07E1F76E
:1008A00080E3FA01808364E00AC0FC01089611929B
:1008B000E817F907E1F780E3FA01808362E488E052
:1008C00004C0FC01608761E489E00C94FE0284ECC2
:1008D0008093BC008091BC0087FFFCCF8091BB005F
:1008E000089584E88093BC008091BC0087FFFCCF12
:1008F0008091BB000895CF92DF92EF92FF92CF9349
:10090000DF9384E48093BC008091BC0087FFFCCF20
:100910008091BB0080E00E947B0289E40E948502F6
:1009200084E88093BC0084E48093BC008091BC0088
:1009300087FFFCCF8091BB00C0E0D0E0C12CD12C60
:100940007601C330D10539F40E947104C80ED11C60
:10095000E11CF11C0AC00E946704C80ED11CE11CF6
:10096000F11CFE2CED2CDC2CCC242196C430D105BE
:1009700041F780E88093BC00C701B601DF91CF91B9
:10098000FF90EF90DF90CF900895EF92FF920F933A
:100990001F93CF93DF938C017B0184E48093BC0091
:1009A0008091BC0087FFFCCF8091BB00C0E0D0E00D
:1009B0000E946704482F50E060E070E0F8018081F9
:1009C0009181A281B381480F591F6A1F7B1FC330D9
:1009D000D10529F0762F652F542F442701C0F80147
:1009E00040835183628373832196C430D10501F71C
:1009F0000E947104F701808380E88093BC00DF913E
:100A0000CF911F910F91FF90EF900895CF93DF93B7
:100A1000CDB7DEB727970FB6F894DEBF0FBECDBFB8
:100A200019821A821B821C821F828D83AE014B5F4A
:100A30005F4F69E081E00E94FE028D818134A9F060
:100A4000BE01695F7F4FCE0101960E94C50488E018
:100A500091E00E94000149815A816B817C818AE08A
:100A60000E94D5018F810E94030227960FB6F89449
:100A7000DEBF0FBECDBFDF91CF91089581EB92E035
:100A80000E943D048091BA02813021F140F0823011
:100A900039F580916B008F7B80936B0021C0E8EB70
:100AA000F2E0DF018E9111968C93119782E0A13BC9
:100AB000B807C1F71092B1028291818382E0E13BD5
:100AC000F807D1F780E38093B10281EB92E00E94B6
:100AD0003D0406C08091B1028053823008F408952D
:100AE0008091BA028F5F8093BA020895CF93E1EBB1
:100AF000F2E0119282E0E93BF807D9F781EB92E04E
:100B00000E947E0381E48093B10281EB92E00E9417
:100B10003D0485E090E00E94740080E38093B10280
:100B200081EB92E00E943D04CFB71092BA0210927E
:100B3000BB0278948091BA02823049F08091BB0266
:100B40008823C1F30E943E051092BB02F3CFCFBFB2
:100B5000CF910895CF931E993EC0C0E38091B1021A
:100B6000893319F4C093B10203C08F5F8093B1023F
:100B700081EB92E00E943D0489E190E00E947400C4
:100B80001E9BECCF82E390E00E9474001E9BE6CF98
:100B90004A9B0FC08091BA02813059F08091BA020D
:100BA000811104C08091B602811103C0E8EBF2E02C
:100BB00004C081E08093BB020EC08291818382E0F9
:100BC000E13BF807D1F780E38093B10281EB92E03B
:100BD000CF910C943D04CF9108951F920F920FB6C0
:100BE0000F9211242F933F934F935F936F937F93B3
:100BF0008F939F93AF93BF93EF93FF930E94AA05A8
:100C0000FF91EF91BF91AF919F918F917F916F91E4
:100C10005F914F913F912F910F900FBE0F901F90BA
:100C2000189504B603FE03C081E08093AE02A89538
:100C300084B7877F84BF8091600088618093600063
:100C40001092600082E08093BA0080917C00806402
:100C500080937C0085B78F7E85BF8AB18B778AB9F8
:100C60008BB184688BB926982E9A85B78F7E85BF05
:100C700084B18B7784B987B1887F87B98AB1877847
:100C80008AB985B1846885B988B1876088B98BB124
:100C900088678BB9609166008DEF91E00E940F0725
:100CA000499BFECF6CED85E00E946D008EEF91E0D8
:100CB0000E940707C82F80EF8C0F803E40F48FEF13
:100CC00091E00E940707C81302C0C093660060E16C
:100CD00080E00E94530081E090E00E9474008091C7
:100CE000AE02811102C00E94C7038DE091E00E9414
:100CF00000018EE791E00E94000189E092E00E94ED
:100D000000018091680081608093680080916B0091
:100D1000806480936B004F9B04C04A99FCCFC2E56E
:100D200001C0C0E54A9BFECF4F9BFECF0E947605D7
:100D30008C2F0E9406051E99FECF4A9B0DC04F9B2B
:100D40000BC081E40E9406051E9BFECFC03511F04A
:100D5000C0E5EECFC2E5ECCF4A9BFECF4F9BFECF66
:100D6000E1EBF2E0119282E0E93BF807D9F781EB81
:100D700092E00E947E0399E088E10FB6F894A8956E
:100D8000809360000FBE90936000FFCFA1E21A2E07
:100D9000AA1BBB1BFD010DC0AA1FBB1FEE1FFF1F1F
:100DA000A217B307E407F50720F0A21BB30BE40B6F
:100DB000F50B661F771F881F991F1A9469F76095B6
:100DC0007095809590959B01AC01BD01CF01089570
:100DD000052E97FB1EF400940E94FF0657FD07D0D6
:100DE0000E94C60607FC03D04EF40C94FF065095F3
:100DF0004095309521953F4F4F4F5F4F0895909507
:100E00008095709561957F4F8F4F9F4F0895F99909
:100E1000FECF92BD81BDF89A992780B50895262FFF
:100E2000F999FECF1FBA92BD81BD20BD0FB6F894CF
:0E0E3000FA9AF99A0FBE01960895F894FFCF32
:100E3E0020452D0020452B000D0A302E000D0A49AD
:100E4E004E5445474552204E554D424552204F7007
:100E5E00730D0A50726573732073773120666F724B
:100E6E0020726F6F7473206F722073773320666FEA
:100E7E007220706F776572730D0A7265706561749A
:100E8E0065646C7920707265737320737732207489
:100E9E006F207363726F6C6C207468726F75676805
:100EAE0020746865206469676974730D0A00776839
:100EBE00656E2066696E616C20646967697420696D
:100ECE0073206265696E6720707265737365642046
:100EDE00707265737320737731206265666F726509
:100EEE002072656C656173696E672073773220744A
:100EFE0068656E2072656C65617365207377310D60
:100F0E000A70726573732073773220666F72206E6B
:100F1E00657874206E756D62657220286F6E6C79BF
:100F2E00206F6E6520646967697420697320616C37
:100F3E006C6F776564290D0A0072656C6561736567
:100F4E002073773220616E6420726F6F74206F721F
:100F5E0020706F7765722077696C6C2062652063F4
:100F6E00616C63756C617465640D0A70756C736584
:100F7E002073773220746F20726570656174206300
:100F8E00616C63756C6174696F6E0D0A686F6C6469
:100F9E0020737731206F722073773320646F776EF2
:100FAE00207768696C652070756C73696E67207345
:100FBE007732207468656E20707265737320697461
:100FCE0020616761696E20746F207265736574208D
:0E0FDE00746865206465766963650D0A00001D
:00000001FF
