:100000000C9434000C9451000C9451000C94510049
:100010000C9451000C9451000C9451000C9451001C
:100020000C9451000C945E010C9451000C945100FE
:100030000C9451000C9451000C9451000C945100FC
:100040000C9451000C9451000C94A4010C94510098
:100050000C9451000C9451000C9451000C945100DC
:100060000C9451000C94510011241FBECFEFD8E026
:10007000DEBFCDBF14E0A0E0B1E0E8ECF4E102C0E7
:1000800005900D92A030B107D9F724E0A0E0B4E0CC
:1000900001C01D92AE3BB207E1F70E943E060C94F0
:1000A000620A0C9400009091C00095FFFCCF8093F1
:1000B000C60008950F931F93CF93DF93EC018C013B
:1000C00008531F4F8991882329F00E945300C017BD
:1000D000D107C1F7DF91CF911F910F91089566BDB0
:1000E00085BDA89BFECFA89A15BC0895000000000E
:1000F0000000000008954F925F926F927F929F924E
:10010000AF92BF92CF92DF92EF92FF920F931F9325
:10011000CF93DF938C016B012C01712C612C320188
:1001200055244424460E571E611C711CD0E0C0E0CB
:1001300095B180912D048095892385B980912F04F4
:1001400098010C2E02C0220F331F0A94E2F795B1DA
:1001500037FF58C0892B85B985B190912D04892B23
:1001600085B90E9476002196C031D10509F7D0E00B
:10017000C0E0912C8FE0E82EF12C01E010E097E038
:10018000A92EB12C95B180912D048095892385B934
:1001900080912F0496010C2E02C0220F331F0A9467
:1001A000E2F795B137FF31C0892B85B985B19091C0
:1001B0002D04892B85B90E947600411451046104F5
:1001C00020E57206A9F020F5411481E0580661048B
:1001D00080E3780669F0411492E05906610490E3E7
:1001E000790631F041145104610420E37206F9F4F8
:1001F000C830D105E4F083B190912E048923B9F081
:10020000C7014DC080958923A6CF80958923CDCF86
:1002100041145104610438E5730609F44AC038F505
:100220004114510498E0690690E5790609F3219696
:10023000C031D10509F0A6CF95B180912D048095EC
:10024000892385B967EB85E00E946F00892DDF91D6
:10025000CF911F910F91FF90EF90DF90CF90BF90C3
:10026000AF909F907F906F905F904F900895411452
:10027000510428E0620628E5720609F4B9CF41145A
:10028000510433E563063CEA730689F6C830D105AC
:1002900074F683B190912E04892349F2C5018C1B19
:1002A0009D0B980102C0220F331F8A95E2F7922A14
:1002B000BECFCA30D1050CF4BACF9DCF1F920F929A
:1002C0000FB60F9211248F93EF93FF938091BC048C
:1002D000833091F58091BB0481508093BB041092D0
:1002E000B100809170008E7F809370008091BA047D
:1002F0008F5F8093BA048091BA048F738093BA049D
:10030000E091BA04F0E0EE0FFF1FE65CFB4F1182B4
:1003100010828091BA048F5F8093BA048091BA04EE
:100320008F738093BA04E091BA04F0E0EE0FFF1FE0
:10033000E65CFB4F11821082FF91EF918F910F903D
:100340000FBE0F901F9018951F920F920FB60F922D
:1003500011242F933F934F935F938F939F93EF932A
:10036000FF93E091C600E153E63108F0F7C0F0E0FA
:10037000E454FE4F0C945C0AD2018E029002920269
:100380009402960298029A029C02AA02AE02AE025F
:10039000AE02AE02AE02AE029E02A002A202A40211
:1003A000A602A80281E0209138043091390423305C
:1003B000310509F412C10CF0D3C02130310509F424
:1003C0000CC12230310509F4E0C02091380430918D
:1003D0003904293031050CF486C04091380450911D
:1003E00039042091340430913504421753070CF03E
:1003F0007AC020913804309139042370332721309A
:10040000310541F490E1899F900111243093370424
:100410002093360420913804309139042370332717
:100420002230310551F42091360430913704280FE1
:10043000311D3093370420933604209138043091D5
:100440003904237033272330310541F490E1899F2B
:100450009001112430933304209332042091380406
:100460003091390423703327232BE9F5209132048E
:1004700030913304820F932F911D90933304809316
:1004800032048091320490913304982F88279093FE
:10049000330480933204809132049091330420918C
:1004A000360430913704820F931F90933704809362
:1004B0003604E091BA0481E08E0F8093BA048091F3
:1004C000360490913704F0E0EE0FFF1FE65CFB4F1F
:1004D00091838083809130049091310401969093B0
:1004E000310480933004809138049091390401964E
:1004F00090933904809338048091BA048F73809369
:10050000BA04FF91EF919F918F915F914F913F912D
:100510002F910F900FBE0F901F90189582E043CF40
:1005200083E041CF84E03FCF85E03DCF86E03BCF05
:1005300087E039CF88E037CF89E035CF8AE033CF05
:100540008BE031CF8CE02FCF8DE02DCF8EE02BCF05
:100550008FE029CF109239041092380480E023CF25
:100560002530310509F453C00CF440C02630310564
:1005700009F02BCF2091360430913704280F311D1C
:10058000309337042093360416C0209136043091FE
:100590003704280F311D30933704209336042091FF
:1005A000360430913704220F331F275F3F4F3093BB
:1005B000350420933404E091BA0491E09E0F9093A7
:1005C000BA042091360430913704F0E0EE0FFF1F9B
:1005D000E65CFB4F31832083F8CE90E1899F900148
:1005E00011243093370420933604EFCE2091360443
:1005F00030913704280F311D30933704209336048F
:100600002091360430913704322F2227EACF4091CF
:1006100036045091370490E1899F90011124240FF2
:10062000351FDFCF809112049091130490931A0428
:100630008093190420911F0430912004282339232A
:1006400030930D0420930C04AC01421B530B5093C8
:100650000204409301042091010430910204877048
:1006600080930E0480910F04821B809311040895DF
:10067000909116048091BA049817D1F3E091160472
:10068000F0E0EE0FFF1FE65CFB4F808180931404C7
:10069000909116049F5F90931604909116049F7397
:1006A00090931604982F87FF02C091E0980F9595BC
:1006B0009093030490911C0490311CF491E090936A
:1006C000150480931C04909116048091BA04981725
:1006D000D1F3E0911604F0E0EE0FFF1FE65CFB4F54
:1006E00080819181209116042F5F20931604209120
:1006F00016042F73209316049695879590931304F0
:100700008093120420911D0430911E042F5F3F4FEF
:1007100030931E0420931D044091190450911A0433
:100720008417950741F41092170485B123FF2EC05A
:10073000836085B908950097C1F340911F045091DB
:1007400020048423952360910C0470910D04409142
:100750000F0450911004460F571F4817590768F4AB
:1007600041E04093180410920B0486179707E9F6AE
:100770001092180410920B04D6CF84179507A9F78E
:100780001092180441E040930B04EFCF8C7FD1CF3F
:10079000EF92FF920F931F93CF93DF9300D000D07F
:1007A00000D0CDB7DEB7972FE0E0E82E880FFF0826
:1007B0008E010F5F1F4F862FB7010E94340A9B01E5
:1007C000D801AE0FB11D8C938A303CF5805D8C93BF
:1007D000EF5F622F932F232B71F7E43040F4D801A1
:1007E000AE0FB11D80E3EF5F8D93E430E1F7E00FD2
:1007F000F12FF11D1082F8017F01E01AF10A8191B9
:100800008111FACFE00EF11E0E151F0541F0F70120
:1008100082917F010E945300F7CF895CD8CF83EB90
:1008200092E026960FB6F894DEBF0FBECDBFDF91E3
:10083000CF911F910F91FF90EF900C945A008091EF
:10084000C00087FFFCCF8091C6000895CF92DF9251
:10085000FF920F931F93CF93DF93EB01F42EC12CE4
:1008600098E4D92E883441F08C3419F0D12CC12C65
:1008700003C0C12C80E4D82E10E000E095B1809137
:100880002D048095892385B980912F049601002E2F
:1008900002C0220F331F0A94E2F795B137FF60C000
:1008A000892B85B985B190912D04892B85B90E943A
:1008B00076000F5F1F4F0031110501F710E000E0D7
:1008C00095B180912D048095892385B980912F045D
:1008D0009E01002E01C0220F0A94EAF795B127FF6E
:1008E00042C0892B85B985B190912D04892B85B99A
:1008F0000E9476000F5F1F4F0830110509F710E0C6
:1009000000E0CF2DD0E095B180912D048095892312
:1009100085B980912F049E01002E01C0220F0A94F8
:10092000EAF795B127FF22C0892B85B985B190914F
:100930002D04892B85B90E9476000F5F1F4F083068
:10094000110509F795B180912D048095892385B90A
:10095000DF91CF911F910F91FF90DF90CF9008957D
:10096000809589239ECF80958923BCCF809589234C
:10097000DCCFAF92BF92CF92DF92EF92FF920F93B4
:100980001F93CF93DF93B82E8B01C42FE8EBE80FB2
:10099000F0E0E050FF4FE080D12CC12CF12C95B15C
:1009A00080912D048095892385B980912F0497012A
:1009B0000C2C01C0220F0A94EAF795B127FF89C0D9
:1009C000892B85B985B190912D04892B85B90E9419
:1009D00076004FEFC41AD40A58E0C516D104F9F6D0
:1009E000F12CE12C95B180912D048095892385B956
:1009F00080912F0498010E2C02C0220F331F0A94FD
:100A0000E2F795B137FF68C0892B85B985B1909120
:100A10002D04892B85B90E9476008FEFE81AF80A19
:100A200090E1E916F104F1F687E0C82ED12CA12C53
:100A30000C2E000CDD0B07E010E0EE24E394F12C0B
:100A400095B180912D048095892385B980912F04DB
:100A500049E495B1B41243C098012C193D09AE0187
:100A600002C0440F551F2A95E2F747FF38C0892B73
:100A700085B985B190912D04892B85B90E947600A6
:100A800083B190912E04892339F0C7010C2C01C049
:100A9000880F0A94EAF7A82A51E0C51AD10880F60F
:100AA00095B180912D048095892385B997E5B91278
:100AB00019C06CED85E00E946F008A2DDF91CF9107
:100AC0001F910F91FF90EF90DF90CF90BF90AF906C
:100AD00008958095892375CF8095892396CF809539
:100AE0008923C6CF49E4B412E8CF809106048A3046
:100AF00001F767EBDFCF40E0BC0187E50E94B90456
:100B000010921B0408950F931F93CF93DF93C1E0BE
:100B1000D1E080910304882309F479C08091030413
:100B2000815080930304D0931B049091160480910C
:100B3000BA049817D1F3E0911604F0E0EE0FFF1F0E
:100B4000E65CFB4F40811181409323041093240401
:100B5000809116048F5F80931604809116048F7322
:100B60008093160460910104709102048CE40E9449
:100B700026046091010470910204412F88E40E94D0
:100B8000260480910104909102040196909302043E
:100B9000809301048091190490911A040196909316
:100BA0001A048093190480911104815080931104D8
:100BB00080912504909126040196909326048093B9
:100BC0002504009101041091020480910F0490917A
:100BD00010040817190709F09CCF60910C0470915C
:100BE0000D0440E087E50E94B90410921B041092A6
:100BF0000204109201040093110480910E0480916C
:100C00000E04882309F485CFC093170482CFDF91A7
:100C1000CF911F910F91089540E06CEF71E089E44E
:100C20000E94B9048FE39CE90197F1F700C000002E
:100C30008091C100877E8093C10085B78F7E85BF7C
:100C400014B817B81AB88FEF85B988B98BB983E093
:100C500084B985B18C7F85B9259A2D9816BC85E01D
:100C600085BD88B19091BD04892B88B990E2A89B7D
:100C7000FECFA89A85B1892785B9F9CF80E88093FE
:100C8000610081E080936100A89584B7877F84BF6D
:100C90008091600088618093600010926000809174
:100CA0007C00806480937C0085B78F7E85BF14B8FC
:100CB00017B81AB88FEF85B988B98BB983E084B9B2
:100CC00085B18C7F85B96CED85E00E946F0088E06E
:100CD00080932F0490E190932E0490E290932D0442
:100CE0008093BD0484B1886284B93B9A98B18091A5
:100CF000BD048095892388B96CED85E00E946F0062
:100D00001092C1001092C50089E18093C40082E076
:100D10008093C00088E18093C10086E08093C20088
:100D200098B18091BD048095892388B980E191E0D4
:100D30000E945A0090E080E02FEF30E04091C00028
:100D400047FD1FC30196813A4FE0940724F02150DC
:100D5000310990E080E02115310581F7E7CF84E18A
:100D600091E00E945A008EE191E00E945A0080E4D6
:100D700090E09093100480930F0480EC9FE1909397
:100D8000200480931F0480E090E2909322048093DB
:100D9000210480E092E090932C0480932B042FEFA9
:100DA00020930A0437ED3093090432EE309308049F
:100DB0002093070490932A048093290485E491E00A
:100DC0000E945A000E941F04823709F457C00CF099
:100DD00045C0843609F47AC08F7D803599F780E765
:100DE00092E00E945A000E941F048A3309F499C0BD
:100DF0008837C9F788E199E00FB6F894A8958093F1
:100E000060000FBE90936000FFCF84E191E00E94EC
:100E10005A0082E291E0A9CF81EB91E00E945A0052
:100E20008CEF93E00E945A0088E19AE00FB6F894A4
:100E3000A895809360000FBE90936000FFCF8EEF67
:100E400091E00E945A0088E19AE00FB6F894A895C4
:100E5000809360000FBE90936000FFCF843771F1E4
:100E6000883709F0B9CF88E199E00FB6F894A895D2
:100E7000809360000FBE90936000FFCF84E192E00A
:100E80000E945A000E941F048091C100877E8093B7
:100E9000C10085B78F7E85BF14B817B81AB88FEF19
:100EA00085B988B98BB983E084B985B18C7F85B960
:100EB00088B19091BD04892B88B9FFCF84E192E07D
:100EC0000E945A000E941F040E940C0689E392E0CF
:100ED0000E945A008CEF93E00E945A000E941F0467
:100EE0008434A1F48CE592E00E945A00D0E0C0E086
:100EF0004FEFBE0189E40E94B9042196C13082E01F
:100F0000D807B1F788E692E00E945A0088E199E09C
:100F10000FB6F894A895809360000FBE9093600080
:100F2000FFCF109226041092250410921E041092F6
:100F30001D04109231041092300410921C0410927F
:100F40001B0410921A0410921904109218041092A3
:100F500017041092BA04109216041092150481E03E
:100F600090E090933904809338048091C1008068A8
:100F70008093C100789470E060E080E89CEA0E9471
:100F80007B000E9438030E9412030E9483050E9486
:100F9000380380911404882309F472C0C0911204AC
:100FA000D09113048091190490911A04C817D9079D
:100FB00039F4809115048823B1F1813009F44EC0D1
:100FC0008091190490911A04C817D907F1F2809101
:100FD0001804882379F08091170490911B049923B9
:100FE00009F441C0811141C080910C0490910D041D
:100FF0000E947B0580910B04882381F080911B0463
:10100000882351F080911704811106C080910C044F
:1010100090910D040E947B05109217040E94120308
:1010200010921504B2CF30910E04209111048091DA
:101030000F0490911004831B910937FD9395281795
:10104000190609F0BDCF80911F04909120048C23D4
:101050009D2390930D0480930C04B2CF0E94120341
:1010600010921504ADCF882329F220910C04309101
:101070000D0480910F0490911004820F931FB8CF3C
:10108000F8948091C1008F778093C10085B18C7FE7
:1010900085B981EA9FE02091C00027FD62C00197D9
:1010A000D1F78091170490911B04992309F45CC037
:1010B00081115DC080910C0490910D040E947B050C
:1010C00060910A0470E084EA9CEA0E947B006091CF
:1010D000090470E088EA9CEA0E947B0060910804A1
:1010E00070E080EA9CEA0E947B006091070470E057
:1010F00080EE9CEA0E947B00109228041092270444
:10110000A0902504B0902604D0E0C0E05AE0E52E7F
:10111000F12CA114B10409F495C040E0BE018CE4A7
:101120000E94B904D82E40E0BE0188E40E94B904B0
:101130002D2D30E0322F2227820F932F911D909377
:1011400024048093230421962091210430912204C9
:10115000C217D307B9F00196A9F485B1836085B9A8
:10116000DCCF8091C60095CF882309F4A9CF2091C8
:101170000C0430910D0480910F0490911004820FA3
:10118000931F9CCF85B18C7F85B98091210490916C
:1011900022048C179D0709F455C0C801B7010E94AD
:1011A000480A892B19F48AE20E945300809127048F
:1011B0009091280401969093280480932704650158
:1011C00048E0C41AD108C50101975C0140E0BE01A6
:1011D0008CE40E94B904982E40E0BE0188E40E948D
:1011E000B904292D30E0322F2227820F932F911D31
:1011F000909324048093230421960196C9F041E042
:10120000A41AB10885B18C7F85B98091270490918B
:101210002804019690932804809327048091210448
:1012200090912204C817D90719F0AC14BD0471F6C7
:101230000F5F1F4F80912104909122048C179D070E
:1012400009F067CF85B18C7F85B98CEF93E00E9460
:101250005A0084E992E00E945A0060913004709133
:1012600031048AE00E94C80387EA92E00E945A0093
:1012700060912504709126048AE00E94C80385EBE2
:1012800092E00E945A0060912704709128048AE03D
:101290000E94C8038CEB92E00E945A0083EC92E01B
:1012A0000E945A0070E060E088E090E50E947B00B8
:1012B000682F70E080E10E94C80370E060E088E081
:1012C00098E50E947B00682F70E080E10E94C803CF
:1012D00070E060E080E090E50E947B00682F70E0A5
:1012E00080E10E94C80370E060E080E098E50E9421
:1012F0007B00682F70E080E10E94C8038CEF93E0D0
:101300000E945A0085EF92E00E945A008CEF93E011
:101310000E945A0040E06FEF71E08FE40E94B90430
:10132000803160F140E06FEF71E08FE40E94B9041A
:10133000803F20F540E06FEF71E08FE40E94B90438
:10134000C82F40E06EEF71E08FE40E94B904C8132B
:1013500015C08BE393E00E945A0040E06EEF71E00D
:101360008FE40E94B904682F70E08AE00E94C803ED
:1013700083E693E00E945A000E941F048AE893E0EB
:101380009FCD8091C600833709F0D0CC63EC84E018
:101390000E946F0098B18091BD048095892388B91F
:1013A00095B180912D048095892385B963EC84E003
:1013B0000E946F0088B19091BD04892B88B963ECBD
:1013C00084E00E946F0098B18091BD0480958923CC
:1013D00088B964E685E00E946F0070E060E083E514
:1013E0009CEA0E947B00833509F029CD70E060E023
:1013F00080E090E30E947B008E3109F020CD85E0F3
:101400008093060460E071E080E090E30E947B003E
:10141000C82F90E0909305048093040460E072E08C
:1014200080E090E30E947B00C43909F0F5CC86305F
:1014300009F495CC8B3009F4E8CC87E291E00E9466
:101440005A0080E491E00E945A008CEF93E00E94E1
:101450005A0088E199E00FB6F894A895809360004F
:101460000FBE90936000FFCFAA1BBB1B51E107C0CA
:10147000AA1FBB1FA617B70710F0A61BB70B881F24
:10148000991F5A95A9F780959095BC01CD010895B3
:1014900097FB072E16F4009407D077FD09D00E9421
:1014A000340A07FC05D03EF4909581959F4F08952E
:1014B000709561957F4F0895EE0FFF1F0590F49191
:0814C000E02D0994F894FFCF20
:1014C80028C00000200000A0000000000000004C20
:1014D800732020000D0A41746D6567612000313664
:1014E800380031363850000D0A556E7265636F67E3
:1014F8006E697365645F6465766963653A20200088
:1015080031364B42002064657465637465642E0D42
:101518000A5072657373202D702D20746F207072BD
:101528006F6772616D20666C6173682C202D722D57
:1015380020746F2072756E207461726765742C2038
:101548002D642D20746F20636C656172207468654A
:101558002074617267657420454550524F4D206F65
:1015680072202D782D20746F206573636170652E4D
:10157800000D0A50726F6772616D6D696E67207237
:1015880065737472696374656420746F2074686528
:101598002041746D65676131363820757365642044
:1015A800666F722073657474696E67207570205059
:1015B80043422D3131313030305F56322E00546184
:1015C800726765745F6E6F745F6465746563746574
:1015D800640D0A000D0A5365742035373630302003
:1015E8004261756420616E64207468656E20707253
:1015F80065737320414B0D0A000D0A5265736574BB
:1016080020454550524F4D212044206F7220414FB4
:101618004B20746F206573636170650031302073EF
:10162800656320776169740020446F6E650D0A0058
:101638000D0A53656E64206865782066696C6520BC
:10164800286F72207820746F206573636170652934
:101658002E0D0A000D0A4865785F66696C655F7330
:10166800697A653A202000202064276C6F616465E0
:10167800643A20200020696E3A202000206F75749B
:101688000D0A00436F6E6669672062797465733A64
:1016980020467573657320657874656E6465642C7F
:1016A80020686967682C206C6F7720616E64206CF5
:1016B8006F636B09000D0A554E4F5F70726F67724A
:1016C800616D6D65725F56332E300D0A5573656412
:1016D80020746F2070726F6772616D207468652066
:1016E8005043422D3131313030305F563220417411
:1016F8006D6567613136382E0D0A0041746D656776
:101708006131363820616C72656164792063616C7F
:10171800696272617465642E20526573756C743ADF
:101728002020000D0A20507265737320414B2074ED
:101738006F20726570656174206F722072657365C1
:101748007420554E4F0D0A0D0A00546F2063616CCA
:10175800696272617465207365742035373630307C
:10176800204261756420616E64207468656E207023
:101778007265737320414B200D0A554E4F207075CA
:10178800747320537175617265207761766520776F
:101798006974682036352E3533366D53207065727E
:1017A800696F64206F6E205042350D0A656C736551
:1017B80020726573657420554E4F0D0A0D0A00009E
:00000001FF
